:020000040800F2
:10000000F04E01200D2501089524010897240108D0
:10001000992401089B2401089D2401080000000088
:10002000000000000000000000000000EDCF00080C
:100030009F2401080000000095CF000871C9000846
:1000400015260108192601081D2601082126010888
:1000500025260108292601082D2601083126010838
:1000600035260108392601083D26010841260108E8
:1000700045260108492601084D2601085126010898
:1000800055260108592601085D2601086126010848
:1000900065260108692601086D26010871260108F8
:1000A00075260108792601087D26010881260108A8
:1000B00085260108892601088D2601089126010858
:1000C00095260108992601089D260108A126010808
:1000D000A5260108A9260108AD260108B1260108B8
:1000E000B5260108B9260108BD260108C126010868
:1000F000C5260108C9260108CD260108D126010818
:10010000D5260108D9260108DD260108E1260108C7
:10011000E5260108E9260108ED260108A1240108C9
:10012000F1260108F5260108F9260108FD26010837
:1001300001270108A724010805270108092701084C
:100140000D270108112701081527010819270108A3
:100150001D27010821270108252701082927010853
:100160002D27010831270108352701083927010803
:100170003D270108412701084527010849270108B3
:100180004D27010851270108552701085927010863
:100190005D27010861270108652701086927010813
:1001A00000000000000000006D27010820B1007A67
:1001B000002818BF01F095BB104601F0E7BB000016
:1001C0002DE9F84F04000E4692469846DFF868BACB
:1001D00006D10BF12803A3222EA1584601F05CFDA5
:1001E0003EB90BF12803A4220BF17801584601F027
:1001F00053FDDDF828905FEAC9704CBF0427002743
:10020000032001F09FFD050003D1304601F0E6FF19
:1002100019E085F80A90002028606E603189B942A3
:1002200006DA0BF12803B02222A1584601F034FD72
:100230003089C01B28811421304601F09CFF20B179
:10024000284603F005F9002021E068684168E9606C
:10025000E08A03F03BFCE9680880208B03F036FC61
:10026000E9684880404603F037FCE9684860781048
:1002700007EB9077BF107F1D4AEA073188B203F081
:1002800025FCE96888810020E96848822846BDE8A5
:10029000F28F00007463705F6372656174655F73F1
:1002A00065676D656E743A20696E76616C6964206D
:1002B00070636200702D3E746F745F6C656E203EDB
:1002C0003D206F70746C656E000000002DE9F047F2
:1002D0000E461C00804692463746DFF85C9906D1F0
:1002E00009F12803E82209F19C0100F031FB089D87
:1002F0002DB909F12803E9221DA100F029FB56457B
:100300001AD2099880070AD4A97E480614D40A98FC
:1003100028B1E86E002804BF286F00280CD03146B1
:1003200001F21B218908BAEB810F31BF574606F253
:100330001B274FF6FC7007404FF4207239464046A9
:1003400001F09AFD050008BF00200ED0286830B1EA
:1003500009F1280340F20B120DA100F0F9FA6889A7
:10036000801B20802E816E812846BDE8F08700002A
:100370007463705F706275665F707265616C6C6FDC
:10038000633A20696E76616C696420706362000074
:100390006E65656420756E636861696E6564207062
:1003A000627566002DE9F84F8CB005460020804646
:1003B00006900890CDF82C80ADF80C0009901F46EF
:1003C000002400260A906FF00F0ADFF86C9835B908
:1003D00009F128034FF4CF720FF2DC4116E0B5F8B3
:1003E00062006B8E4008834234BFADF81230ADF826
:1003F0001200BDF8120008B9ADF81230079149B9E2
:1004000009F128034FF4D77209F5987100F0A0FAAA
:10041000504691E1287D042818BF072805D00228FE
:100420001CBF03286FF00A00F3D1ADF80E2005F1D0
:10043000620AC2B1BAF8020090422CD3BAF80400A2
:10044000092828D2C0B105F16C014868002804BF12
:10045000E86E002807D109F128034FF4AB7209F1C7
:10046000C00100F075FABAF804B0E96E8DF81070AA
:10047000002900F0DB8014E005F16C0041680029E0
:1004800004BF00680028EED009F1280340F2591299
:1004900009F1FC01E5E7688B40F08000688349E1E1
:1004A000014608680028FBD10C46A07AC1072189C3
:1004B000BDF812004CBF042700277918884207DADC
:1004C00009F128034FF4F3720FF2044100F040FAEF
:1004D000BDF812102089091ACF1BBAF80610ADF822
:1004E0000C1000293CD0B8B2884207D209F1280389
:1004F0004FF4FC720FF2F03100F02AFABDF80C0054
:10050000BDF80E100894884234BFBDF80C00BDF849
:100510000E00B9B28142B8BF384606DBBDF80C0008
:10052000BDF80E10884288BF084680B2099009A81D
:10053000BDF80C2006880999921BADF80C207F1A93
:10054000BDF80C0000281CBFBDF80E00864207D085
:1005500009F128034FF400720FF2AC3100F0F8F902
:10056000BDF80E108E426CDAB8B200281CBF20898C
:1005700000286BD0B8B2891B8842B1BFADF81470A7
:10058000BDF80E10891BADF814109DF810000894EA
:10059000C10718D59DF81010019101200290009517
:1005A00003ABBDF81410BAB20020FFF78FFE00288D
:1005B00006902DD00798069BBDF814208119586825
:1005C00003F0B4FA29E0616800E0014608680028F9
:1005D000FBD1087B10F0C00F12D148684989014453
:1005E000079881420CD13EB109F1280340F2312233
:1005F00009F5B27100F0ACF9BDF814000A9010E0F2
:10060000BDF814100122002001F036FC00280690ED
:1006100071D00798069930444860069801F03DFE75
:100620008344BDF814108E19B6B20AE0BAF8060079
:1006300038B109F1280340F24B2209F5C87100F0E6
:1006400087F9BDF80E00864280F2A880BDF80E0042
:10065000BDF81220801B81B291423ABF80B2059052
:1006600005929DF81000C10727D5B8F1000F0CBF07
:1006700001200020029003AB9DF81000019000952E
:100680000598BDF8122081B23620FFF71FFE0190B9
:1006900088B341890598814207DA09F1280340F2BD
:1006A000672209F5E07100F053F90798019B059A5C
:1006B0008119586803F03AFA44E0BDF80C0030B1F3
:1006C00009F1280340F2712297A100F041F9059841
:1006D00081B2012200F0F4F907000CD007983044F1
:1006E00078604FF42072002100F0EAF9019030BBED
:1006F000384601F073FD688B40F0800068830698EF
:1007000008B101F06BFDB8F1000F1CBF404602F0CC
:1007100096FEBAF8040068B105F16C004168002942
:1007200004BF0068002805D109F128034FF44A727C
:1007300000F00CF94FF0FF300DB0BDE8F08F3946F6
:1007400001F0CDFD019801F0A8FD83441FFA8BF064
:100750000A2828BF0198CCD2002000900022EB6D1F
:100760000199F3182846FFF72BFD00280890C2D006
:10077000B8F1000F08BF80460CD0DDF82C0030B96E
:1007800009F1280340F2AB226BA100F0E1F80B99CC
:1007900008980860089805990B9044E70998B8B143
:1007A000676806460FE0398971183981386848B999
:1007B00078687B8907993246184403F0B7F978893D
:1007C000301878813F68002FEDD1208936182681B6
:1007D000BDF80C10AAF80610069888B13CB909F1CA
:1007E000280340F2E12209F5007100F0B1F8069902
:1007F000606801F074FD069A21891089411821E092
:100800000A9880B2F8B1002C1CBF6068002807D19C
:1008100009F1280340F2E72209F50E7100F098F87B
:1008200062680A9903E01389CB18138102461068A5
:100830000028F8D11089538908181081CB185381EA
:1008400020890918218105F16C02002C0CBFC2F827
:100850000080C4F80080E86DBDF80E104118E9650D
:10086000BAF80230BDF80E00AAF804B01B1ABAF8A4
:100870000400AAF8023058B15168002904BF10687A
:10088000002805D109F1280340F2133200F05EF888
:10089000089800281CBFC06800280AD09DF81000E6
:1008A000810706D4082003F011F90899C96800F0FF
:1008B000C6F9002040E700007463705F77726974C6
:1008C000653A20696E76616C69642070636200002D
:1008D0006D73735F6C6F63616C20697320746F6FED
:1008E00020736D616C6C0000696E636F6E73697369
:1008F00074656E74206F76657273697A652076739D
:100900002E20737061636500696E636F6E73697327
:1009100074656E74206F76657273697A652076737C
:100920002E206C656E0000006F76657273697A65C3
:10093000203D3D2030000000707265765F73656772
:1009400020213D204E554C4C000000000FF62C316C
:10095000484601F0A1B92DE9FE4F05008846B64E84
:1009600007D106F1280340F24B3206F51C7100F066
:10097000AAF8EC6E002C3DD0B8F1000F0AD106F1B8
:10098000280340F2533206F5257100F09CF86FF011
:10099000050093E02189884580F0898005F13207C0
:1009A0003888404507D206F1280340F25B320FF643
:1009B000EC2100F088F8208938B906F128034FF4BB
:1009C00057720FF6E82100F07EF8A07A0190C00778
:1009D0002689A6EB08064CBF4FF0040A4FF0000A28
:1009E000B6B20AEB06014FF4207289B200F068F843
:1009F0005FEA000960D0606821890389D9F804C0E2
:100A00005B1A43449BB232460CEB0A0101F026FD0F
:100A1000B0424ED1E06800F017F900F03F0A4FF005
:100A2000000B5FEA0A71E16844BF0AF0F70A4FF071
:100A3000080B5FEACA70486844BF2AF0010A4BF00D
:100A4000010B03F049F80199C9B2009100EB0803CA
:100A50005A4649462846FFF7B3FB050029D060688F
:100A600001F01BFCB98E081AB88660680189891BE1
:100A700089B201F0FFFA2089861B2681504603F0D7
:100A800025F8E16800F0DBF8606801F006FCB98E3B
:100A90004018B886686801F000FCB98E4018B88626
:100AA00022682A602560286808B90021F98600209C
:100AB00004E0484601F092FB4FF0FF30BDE8FE8FA6
:100AC000362001F0D9B9304601F0E6B838B5040057
:100AD00008D159480FF6E41100F1280340F2EB3237
:100AE00001F0DAF8E56EA5B100E0054628680028B7
:100AF000FBD100F0A8F810F0070F0AD1012002F096
:100B0000E5FF00F09BF8608B40F020006083002040
:100B100032BD2046BDE8344001212DE9F843894625
:100B2000002619F0030F0446DFF80C8107D108F105
:100B3000280340F2124208F52E7100F0F7F93CB993
:100B400008F1280340F213420FF68C1100F0EEF981
:100B50005FEA897046BF0126042700274FF4207200
:100B60003946FFF7ADFF050013D06889B84207DAB0
:100B700008F1280340F23A4208F5447100F0D6F932
:100B800000964A46E36D29462046FFF719FB05000B
:100B900006D1608B40F0800060834FF0FF3048E06A
:100BA000287B10F0030F07D008F1280340F24242DF
:100BB0000FF6441100F0BAF9288938B108F128037A
:100BC00040F2434208F5537100F0B0F904F16C06AD
:100BD000316811B9356004E0014608680028FBD18E
:100BE0000D6004F16607002019F0030F788002D031
:100BF000E06D401CE0655FEAC97003D5618B41F090
:100C000020016183686801F048FB3988401838800A
:100C100080B268B17168002904BF3068002807D12C
:100C200008F1280340F2664208F55E7100F07EF993
:100C30000020BDE8F2830000C8F80008E9688A894E
:100C4000104388817047E868808902F03FBF2DE932
:100C5000F84F040084B0DFF85C8707D108F128035F
:100C600040F2E1420FF6A80100F060F9207D012872
:100C700007D108F1280340F2E44208F5687100F05A
:100C800055F9DFF834070168A14200F04B8104F107
:100C90004806318B3088814234BF03910390756AD6
:100CA0006DB3221D21462046FFF780FA5FEA000956
:100CB00007D0002C1CBF2068002807D119F10400C0
:100CC00002D16FF003002EE10068206000F07AF995
:100CD000616C2F89039B401AC019834204F198026A
:100CE00016D21946338B994204BFB06A002806D148
:100CF000507820B900210120117050709170A07EB1
:100D0000810740F10A81204605B0BDE8F04FF5E2C9
:100D100000205070B76A27B100E007463868002805
:100D2000FBD100F04FF9616C2B89039A401AC0186F
:100D30008242C0F0EE80E968888902F0C7FE400771
:100D400007D508F1280340F237520FF2DC7100F0AA
:100D5000EDF8B06AA0B1628B12F0440F10D1716A45
:100D600029B1086860B90889618E884208D2B08BC1
:100D700030B1F08B082803DC12F0A00F00F0C9801E
:100D8000207D022804D0102002F0A0FEFFF756FFBD
:100D90003CB908F1280340F2B9520FF2A47100F0F7
:100DA000C5F8284600F0C5F800285AD1606A02F05C
:100DB00093FEE9688860608D02F088FEE968C8816A
:100DC000606A628D8218E26201F1140AA87AC10792
:100DD0000BD5221D49464FF4067002F043FD40F04A
:100DE000017002F079FE4AF8040BB4F930000028D3
:100DF00044BF00212186606B30B9DFF8C015086858
:100E0000606300F0DFF8A0636968E8684A684B89AE
:100E1000821A92B29B1A4B810B8948609A1A0A81F6
:100E200000210182AA7AD1074CBF0421002114308D
:100E30000844824507D008F1280340F21C620FF2F3
:100E4000207100F073F80620CDF808900190221D63
:100E5000A17A0091E37A6868214600F08FFE0100D4
:100E600028D128687062217D022904D0618B4FF659
:100E7000FC700140618300F0A5F88246FFF7E3FEB5
:100E800010F00301288918BF012150440818B168E7
:100E9000091A48BFB060FFF7D6FE10F00300298999
:100EA00018BF012040182DD000222A60B06A30B946
:100EB000B56225E0618B41F08001618333E000F091
:100EC00081F8F968824600F0E4F8BAEB000016D524
:100ED00004F1700A01E0DAF800A0DAF8000040B18D
:100EE00000F0D6F8E968834600F0D3F8BBEB0000C9
:100EF000F1D4DAF800002860CAF8005005E03D603F
:100F00002F4602E0284602F0A3FA756A002D7FF40E
:100F100008AF706A08B9002131844FF67F70618B89
:100F200001406183002005B0BDE8F08F404600F02D
:100F3000B3BE10B5040007D100F024F940F29A5274
:100F400000F5727100F0A8FE6068817B012901D074
:100F5000012010BD002010BD70B5040007D100F0C5
:100F600011F940F2636200F2144100F095FE256F22
:100F70002DB303E0FFF7DDFF08BB2D6828680028CC
:100F80002846F7D1FFF7D5FFC8B9E06E28600020EA
:100F9000216FE1662067618B41F40061618300F09D
:100FA00011F80646FFF74FFE10F00300298918BF1D
:100FB000012071184018E0640020606370BD6FF07C
:100FC000050070BDE968486802F086BD10B50400F0
:100FD00007D100F0D7F84FF4D36200F5876100F035
:100FE0005BFE94F84200FF281CBF401C84F84200BE
:100FF0002046BDE810402AE610B5040009D1DFF80C
:10100000B4030FF2705100F1280340F2AD6200F01A
:1010100043FE2046FFF7A0FF18B92046BDE8104068
:10102000D4E710BDF8B5050009D1DFF888030FF249
:10103000605100F1280340F2C16200F02DFE05F17D
:101040003406F46B1CB12046FFF773FF10B16FF04C
:101050000500F2BD2068F0636C3500E02D6828685B
:1010600038B100F015F8E168074600F012F83F1AB1
:10107000F4D4296821602C60206808B90021B18669
:10108000B07BFF281CBF401CB07300203060F2BD55
:10109000C168486802F020BD38B5040008D1C548D1
:1010A0000FF2045100F1280340F2F96200F0F4FD60
:1010B00004F14805A86A00B3A07E41071DD420466C
:1010C000FFF7B0FFC8B9288B2988814238BF08468E
:1010D00000EBD0704010618E82B2B2EB410F38BF8E
:1010E0004800688001EB41016888091829800020C8
:1010F000628B208642F00402628331BD2DE9F84FF5
:101100000D46824611464919143199464FF4207212
:1011100089B2222000F0B0FE040030D0608905F1D1
:101120001401884207DA00F02DF840F2247200F230
:101130005C4100F0B1FDDDF834800C9EDDF82CB090
:101140000A98676802F0C2FC38802D06584602F003
:10115000BDFC7880C7F80490504602F0BDFCAD0E8F
:10116000B8606D1D46EA0536B0B202F0AFFCB8813A
:10117000404602F0ABFCF88100203882788220469D
:10118000BDE8F28F8B4800F128037047F8B50400E2
:1011900084B00D4616461F4607D1FFF7F3FF40F215
:1011A000427200F28C4100F077FD608D03901021B7
:1011B00002913B46228B01923246E08A00902946FA
:1011C000606AFFF79BFF18B1616A628D8A18E2625C
:1011D00005B0F0BD70B50C001646764D08D105F18E
:1011E000280340F2567205F2B441284600F054FD3F
:1011F0006068F1074CBF0421002100F11402143093
:10120000084482420AD005F128032846BDE8704010
:1012100040F275720FF2483100F03EBD70BDFEB570
:101220000C00054616461F4607D1FFF7ABFF40F2FC
:10123000877200F2DC4100F02FFD3A463146284625
:10124000FEF7B4FF10B96FF003050FE0002D19BFD2
:10125000EB7AA97AFF2300210290009106200190E9
:101260003A463146204600F089FC0546204600F00B
:10127000B5FF2846FEBD2DE9F8431C0084B00746A3
:1012800088461646DFF82C9107D109F1280340F271
:10129000C4720FF23431FFF75BFB0C9D3DB909F1CD
:1012A000280340F2C5720FF23C31FFF751FB404674
:1012B00002F012FC46F2080103911422BDF8383006
:1012C000BDF83410019302920091034600220021E0
:1012D0003046FFF713FF06000DD0002300223146F1
:1012E0003846FFF777FF2B4622463146384605B091
:1012F000BDE8F04393E705B0BDE8F08338B50400DE
:1013000007D12C48BEA100F1280340F2EA7200F098
:10131000C3FC206D02F0E0FB0346002200212046C2
:10132000FFF734FF050006D1608B40F003006083B7
:101330006FF0010032BD0023002229462046FFF74E
:1013400049FF231D224629462046FFF768FF628B8E
:10135000010012BF42F003024FF6FC710A406283A3
:1013600032BD000038B5050007D11248ACA100F12C
:10137000280340F6240200F08FFC286D401E02F086
:10138000ABFB0346002200212846FFF7FFFE0400C6
:1013900002D14FF0FF3032BD002300222146284603
:1013A000FFF718FF2B1D2A462146284601B0BDE84D
:1013B000304034E7C8F80008F00D01202C00002070
:1013C0002DE9F041040007D1FFF7DCFE40F64F02A3
:1013D00000F5A16100F060FCE66E0EB900204BE064
:1013E00094F89A00FF281CBF401C84F89A00F0680B
:1013F000FFF72AFCC00704D531894D1EAD41ED0F22
:1014000000E00025F068436885F0010200212046D5
:10141000FFF7BCFE5FEA000808BF4FF0FF302BD09B
:10142000D8F804704DB1112002F050FBBA894CF28B
:10143000FF010A401043B88109E0706831890389CF
:101440005B1A9BB2012207F1140101F007F8F16861
:10145000FFF71FFE216D401C091A48BF20650023BD
:10146000002241462046FFF7B5FE231D2246414695
:101470002046BDE8F041D2E6BDE8F0817463705FBC
:1014800077726974653A2076616C6964207175655C
:101490007565206C656E67746800000073706C6918
:1014A00074203C3D206D7373000000007573656708
:1014B0002D3E6C656E203E20300000007463705F2E
:1014C00073656E645F66696E3A20696E76616C69F9
:1014D00064207063620000007463705F656E7175F4
:1014E0006575655F666C6167733A20696E76616CDD
:1014F00069642070636200007365672D3E746370D9
:10150000686472206E6F7420616C69676E65640038
:101510007463705F6F75747075743A20696E76616C
:101520006C69642070636200525354206E6F7420A3
:101530006578706563746564206865726521000074
:101540007463705F6F75747075745F7365676D65D4
:101550006E743A20696E76616C6964207063620013
:101560006F7074696F6E73206E6F742066696C6C37
:10157000656400007463705F7265786D69745F7292
:10158000746F3A20696E76616C69642070636200E2
:101590007463705F7265786D69743A20696E766104
:1015A0006C696420706362007463705F7265786D4B
:1015B00069745F666173743A20696E76616C696400
:1015C00020706362000000007463705F7273743A8D
:1015D00020696E76616C6964206C6F63616C5F6911
:1015E000700000007463705F7273743A20696E76E5
:1015F000616C69642072656D6F74655F697000006D
:101600007463705F73656E645F656D7074795F613C
:10161000636B3A20696E76616C6964207063620066
:101620007463705F6B656570616C6976653A20699B
:101630006E76616C696420706362000070472DE90A
:10164000F0470500DFF8BC8206D108F1280340F21C
:1016500027120FF2BC2108E0099C200008D108F1F4
:1016600028034FF4947208F1740100F0A5F830E0FB
:10167000DFF8940201B9014602B9024603B90346F4
:101680000A98089F0FF255260FF2A0294FF0000C80
:10169000C5F804C0C5F808C0C5F80CC06E61A5F84F
:1016A00024C005F12D06E64605F1200C86F800E081
:1016B000CCF800E0EF61DFF8547297F800C086F8CC
:1016C00003C02861284600F091F82846A04700286A
:1016D00003D0002032E0401CF0704FF0000AF07898
:1016E000FF2804BF0021F1707C681BE0AC4206D1EA
:1016F00008F1280340F28B12494600F05DF80AF128
:10170000010ABAF5807F07DB08F1280340F28D1249
:1017100008F1980100F050F8F07894F83010814208
:10172000D9D02468002CE1D1F078FE280CBF00202D
:10173000401C3870786828607D602846BDE8F087D6
:1017400038B504460D4602F0C1F829462046BDE8EA
:10175000344002F071BC2DE9FC410C0006461546F0
:101760000FF2DC17DFF89C8105D108F1280340F265
:10177000CB1200F020F82DB908F128034FF4E672DF
:1017800000F019F820687168884211D0009028464E
:10179000716829606946FFF7D3FF002C0CBF002059
:1017A000206870600121304600F062F8012000E0FE
:1017B0000020BDE8F6813946404600F06DBA0A685F
:1017C00083689A4204D001B90022826001207047E8
:1017D000002070470A68C3689A4204D001B9002209
:1017E000C260012070470020704700002DE9FC41D5
:1017F00080460C00444817461E4608BF044607B9F9
:10180000074606B90646002C1CBF2068002803D1F5
:1018100000F012F8012500E000250022394640467C
:10182000FFF7CDFF002231464046FFF7D3FF0DB949
:1018300000F002F8BDE8F3816A46214640468AE797
:10184000324988607047000038B92E4840A100F145
:1018500028034FF4547200F01FBA90F82D10CA07F5
:1018600005D441F0010180F82D10032100E07047FC
:1018700038B504000D4608D1224800F1280340F293
:101880006D3200F1EC0100F007FA94F82D1001F030
:10189000050005280BD1EA0709D5606838B10807AB
:1018A00005D5211D2046BDE8344003F03BB831BDCD
:1018B00038B914482DA100F1280340F29B3200F002
:1018C000EBB990F82D10CA0707D501F0FE0180F89A
:1018D0002D10090748BF02F082BD70476FF00B0062
:1018E000704701000BD00948406800E0006830B143
:1018F00090F830305B1CDBB29942F7D17047002082
:10190000704700002C1301080C260108780E0120F6
:101910006E657469665F6164643A20696E76616CB5
:101920006964206E65746966000000006E65746904
:101930006620616C7265616479206164646564002D
:10194000696E76616C696420706F696E746572008F
:101950006E657469665F7365745F75703A20696E51
:1019600076616C6964206E65746966006E65746981
:10197000665F7365745F646F776E3A20696E766137
:101980006C6964206E6574696600000070B5DFF8EC
:10199000E41204680A6800E01268AAB192F82D30D7
:1019A00003F005010529F7D151680029F4D09568A5
:1019B00005EA040629408E4204D09907ECD4D36886
:1019C0009C42E9D1104670BDAB49096859B191F804
:1019D0002D2002F00502052A05D14A68002A1CBF05
:1019E00000787F2801D1002070BD084670BD80B509
:1019F000014691F82D00C2070AD54A6842B19F48B6
:101A00004069904202D002F0DBFF08B1012002BD24
:101A1000002002BD2DE9F843054689466F683978F4
:101A2000080904283CD1880000F03C08788802F0BE
:101A30004DF829898842044603D22146284600F001
:101A400019FB688940452BDB2989A14228D3B8F1CD
:101A5000140F25DB3869894E7061F8683061307D7C
:101A600000F0F000E02808D199F82D00C10702D558
:101A7000D9F8040028B9002427E04846FFF7B7FF4B
:101A800090B15FEA090420D0306940B1494602F0C4
:101A900097FF28B9307C00F0F000E02800D0FCB9B6
:101AA000284600F09BFB25E0307D00247F280CD0E9
:101AB0007048046807E04C4504D02046FFF797FFC4
:101AC0000028E1D12468002CF5D1787A112802BFD2
:101AD000B91C31F80800B0F5884FD5D14C46DEE787
:101AE000F8884FF63F71084207D0284603F0F8F80F
:101AF000050001D100203FE06F683460C6F8049013
:101B0000B76041463878800000F03C00B08128463C
:101B100000F033FB787A01280DD0062806D0112872
:101B20000ED14946284602F018F81EE049462846DC
:101B300003F02CFC19E04946284604F011FE14E09D
:101B40007069214602F03CFF60B9307D00F0F00082
:101B5000E02807D04146284600F03EFB02212846F7
:101B600004F08DFE284600F039FB002030607060E4
:101B7000B060B08130617061BDE8F2833EB5089D10
:101B80000C4622B100291ABF096800292C1D0295B4
:101B90009DF818109DF81C5000910195214600F009
:101BA00001F83EBD2DE9F84306468846B07BDFF8D4
:101BB000D090012814461D4600F0088009F1280342
:101BC0004FF4557231A1484600F066F8ACB31421C9
:101BD000304600F0D0FA98BB70897768142808D294
:101BE00009F1280340F2893209F17801484600F0F2
:101BF00053F8099808993D72787245222068214D62
:101C000038613A707970308901F060FF7880002087
:101C1000F880288801F05AFFB8802888401CB8F165
:101C2000000F288003D118480168F96002E0D8F855
:101C30000000F8600021798109E07089142802DA37
:101C40006FF0010014E07168086900906C460A9B0F
:101C5000988C40B13189884205D2224619463046D7
:101C600003F012FA04E018465B69224631469847B1
:101C7000BDE8F2837C0E0120800E0120400E012081
:101C8000081F0108E40E01200C260108702D3E7289
:101C90006566203D3D2031000EB4C0B5024603A864
:101CA00000210190009101AB0121044878440C30DF
:101CB00004F02EFE06BC5DF810FB00BF2F080100EB
:101CC00030B5816800220A6000234268D21C920865
:101CD000920005E00C6814600A605B1C05882A44C9
:101CE0004488A342F6DB30BD38B50024374DA0B29E
:101CF00055F82000FFF7E4FF641CA1B20D29F6D3CC
:101D000031BD38B5044605F04AFF0546A0680468B1
:101D10009CB12168016014F0030009D02B4800F148
:101D2000800300F15C0140F219123430FFF7B4FF78
:101D3000284605F03DFF204632BD284605F038FF15
:101D4000002032BD10B50D28204C0ADB04F18003C1
:101D500040F257121EA104F13400FFF79DFF00204E
:101D600010BD54F82000BDE81040CAE738B504465D
:101D70000D4615F0030009D0DFF850001CA100F15A
:101D8000800340F26D123430FFF786FF05F007FF45
:101D9000A1680A682A600D60BDE8324005F008BFFE
:101DA00010B50D28094C0ADB04F1800304F134005E
:101DB000BDE810404FF4D57215A1FFF76DBF21B1FA
:101DC00054F82000BDE81040D0E710BDFC1B01080E
:101DD0006D656D705F6D616C6C6F633A20747970C6
:101DE00065203C204D454D505F4D4158000000009E
:101DF0006D656D705F667265653A206D656D20700A
:101E0000726F7065726C7920616C69676E656400D1
:101E10006D656D705F667265653A207479706520D6
:101E20003C204D454D505F4D4158000080B505F0B8
:101E3000B6FEDFF8E0260021117005F0B9FEDFF8EC
:101E4000D806006800E0C06830B1416F0029FAD0C0
:101E5000BDE8024001F068BD01BD70B5BDF910508C
:101E6000059C002606604160057344730121C6731A
:101E700002814381817370BD2DE9FE4F9246BAF114
:101E8000010F18BFBAF1410F04460F46DFF88C96D8
:101E900006D0BAF5C17F0AD0BAF5207F6DD0A0E098
:101EA000002000F0A7F805462846BDE8FE8F002573
:101EB000AB460C20FFF746FF5FEA00083BD0E61C6C
:101EC0004FF6FC700640C6F51476B8B2B1B288423F
:101ED00038BF3E4608EB0400002200F110010192D9
:101EE000C91C8908CDF800A0B3B2BAB28900404637
:101EF000FFF7B3FF98F8040010F0030F07D009F1C3
:101F0000580340F2011209F1280100F0A4FAE41C80
:101F1000A408A400D4F5147407D109F1580340F2C1
:101F2000031209F1A40100F096FA002D0CBF4546FA
:101F3000CBF800801AE005F032FEDFF8D8452678AD
:101F40000121217005F034FE5EB90021DFF8D005D3
:101F500005F0DBFE28B105F022FE0021217005F01E
:101F600027FE05B3284600F039F91CE0BF1B00240A
:101F7000B8B20028C3469CD196E7E21CF91C92082F
:101F80008908920002EB810202F1100092B2B2EBDA
:101F9000810F24BF82B2B2EB810F04D380B206F06E
:101FA000CFF8050001D100207FE700200190CDF897
:101FB00000A0281900F11001C91C89083B463A46C7
:101FC00089002846FFF749FF287910F0030F07D052
:101FD00009F1580340F2231209F1D80100F03BFA4D
:101FE00062E709F1580340F227120FF2385100F06E
:101FF00032FAD8E7FEB51746412F18BF012F054624
:102000000E4609D0DFF814050FF2345100F15803E1
:102010004FF4A572FFF740FE0B20FFF793FE04007C
:1020200001D10020FEBD00200190009733463246CA
:1020300029462046FFF711FF2046FEBD3EB51C464F
:10204000C01C079B800801EB8005AB4201D2002039
:102050003EBD069B0092002B14BF03EB80000020C6
:10206000022301930A460B4601462046FFF7F5FE80
:1020700020463EBD2DE9F04104000E46DFF89C5499
:1020800008D105F158034FF4CC720FF2C84128462D
:10209000FFF702FE2789BE423BD2BF1BBFB20FF241
:1020A000CC480EE0361A2089C01B2081B6B22468C5
:1020B0003CB905F1580340F2AF1241462846FFF7FC
:1020C000EBFD6089B042EDDB207B10F00F0F17D1E4
:1020D0006089864214D0617B880711D46168091B2E
:1020E000711889B2204605F08FFF040008D105F170
:1020F000580340F2BD120FF28C412846FFF7CCFD89
:10210000668160892081206808B100F067F80020AE
:102110002060BDE8F081F8B558B9DFF800040FF28F
:10212000804100F1580340F2DF12FFF7B5FD0120B6
:10213000F2BDB1F5803FFAD2D9B104890B46E4185B
:10214000A5B29EB2B542F2D3077B3D0607D54268E1
:102150004942114400F11005A94205D2E7E7002ADF
:10216000E5D04268494211444160048141895B18CD
:1021700043810020F2BD0022CDE710B5DFF89C437B
:1021800030B904F1580340F24B220FF214410DE034
:10219000B1F5803F0DD2B1B143898AB293420ADAD8
:1021A00004F1580340F255220FF200412046FFF798
:1021B00073FD012010BD4468214441609B1A0189D0
:1021C00043818A1A0281002010BD0B0058BFFFF71F
:1021D000A2BF5B421946D0E70122F6E72DE9F0479E
:1021E0000400DFF8388309D108F158034FF437723F
:1021F0000FF2AC3100F04EF8002049E000250FF25C
:10220000E4390FF2C83A05F0CAFC0646A07B30B9A3
:1022100008F1580340F2F122514600F03BF8A07B50
:10222000471EA773304605F0C3FCFFB27FBB617B3E
:10223000207B26688A0700F00F000DD5206938B989
:1022400008F1580340F2FF2208F5827100F022F8ED
:1022500021692046884717E0022802D121460C2038
:1022600003E0012804D121460B20FFF799FD0BE084
:1022700018B9204605F00AFE06E008F1580340F2BE
:102280000F32494600F006F86D1C3400BBD1E8B2AD
:10229000BDE8F0874046FFF7FFBC0146002001E0A3
:1022A0000968401C0029FBD180B2704710B50400BA
:1022B00014D005F074FCA17B491CA17305F078FCD7
:1022C000A07B58B9BDE81040DFF850020FF228316A
:1022D00000F1580340F24232FFF7DEBC10BD70B58A
:1022E00004000D4618BF002DDFF830620FD106F153
:1022F000580306F594713046BDE8704040F25A32FA
:10230000FFF7CABC21892A89511821810446206817
:102310000028F7D120896189884208D006F1580346
:1023200040F2623206F5B0713046FFF7B5FC206826
:1023300040B106F1580340F263320FF2D02130462B
:10234000FFF7AAFC2189288941182181256070BDE9
:1023500010B50C46FFF7C3FF2046BDE81040A5E7C7
:102360002DE9F0470546002600270C46002D18BF32
:10237000002C6FF00F08DFF8A49103D02889218981
:10238000884206D209F1580340F2CA3209F5DA71DF
:102390004DE060896168A0EB070A6889801B82456F
:1023A00088BF824668685246C919801901F0BEFB91
:1023B00069895644B142574407D209F1580340F2A3
:1023C000D9320FF2582100F046F86089B84207D29E
:1023D00009F1580340F2DA320FF2582100F03BF8CD
:1023E00060898742688924BF00272468864202BF2B
:1023F00000262D68002D12D02CB1608921898842D9
:1024000001D12068B8B92DB168892989884201D1E4
:102410002868D8B9002CBCD10020BDE8F087002C7A
:10242000FAD009F158034FF479720FF2242100F029
:1024300012F84046F1E709F1580340F2EA3209F593
:10244000F27100F008F86FF00500E6E709F15803B3
:1024500040F2EF32F3E74846FFF71EBC2DE9F843A0
:102460000446002688461546B1462C4834B900F18A
:10247000580340F20A420FF2E81108E0B8F1000FE9
:102480001CD100F1580340F20B4200F50471FFF734
:1024900003FC002021E0FF1ABFB2A8B29BB2B842F1
:1024A000B8BF07466068C118B0B23A46404401F070
:1024B0003DFB2468B944BE19ED1B0023A8B250B1FE
:1024C00007E098B267890028E5D0B842E3D32468D2
:1024D000DB1B002CF5D11FFA89F0BDE8F283000068
:1024E00038B515460A462989FFF7C6FC040001D114
:1024F000002032BD2946FFF733FF40B1DFF81C0052
:102500005FA100F1580340F22452FFF7C5FB2046BB
:1025100032BD0000E70E012038000020F40701085A
:102520002D1E0008706275665F616C6C6F633A20E7
:102530006572726F6E656F757320747970650000D7
:10254000696E76616C696420706275665F7479701B
:1025500065000000706275665F7265616C6C6F6328
:102560003A207020213D204E554C4C00706275661B
:102570005F7265616C6C6F633A207120213D204E63
:10258000554C4C006D656D5F7472696D2072657499
:1025900075726E65642071203D3D204E554C4C0097
:1025A0007020213D204E554C4C000000696E637236
:1025B000656D656E745F6D61676E697475646520C5
:1025C0003C3D20702D3E6C656E00000070627566AB
:1025D0005F667265653A20702D3E726566203E200A
:1025E00030000000696E76616C6964207062756607
:1025F00020747970650000007062756620726566EF
:10260000206F766572666C6F77000000702D3E6EED
:10261000657874203D3D204E554C4C006F666673C6
:1026200065745F746F203C3D20705F746F2D3E6C4D
:10263000656E00006F66667365745F66726F6D200D
:102640003C3D20705F66726F6D2D3E6C656E0000C4
:10265000705F746F20213D204E554C4C00000000EF
:10266000706275665F636F70795F706172746961C3
:102670006C3A20696E76616C696420627566000050
:10268000706275665F636F7079206661696C6564FE
:102690000000000080B505F073FEC0F30D00DFF808
:1026A000C418A0F58040088001BD000010B50446A4
:1026B000207D012840F00880DFF8AC0805A100F17A
:1026C0002803D422FFF7E8FA2146BDE81040012094
:1026D000FFF766BB7463705F667265653A204C49AC
:1026E0005354454E0000000080B500F02EFEDFF888
:1026F0004C0C0178491C0170C80703D5BDE80140A6
:1027000000F042BC01BD00002DE9FE4304000D466F
:10271000DFF8548840F0078008F128034FF4AF72C7
:1027200074A100F025F9217DDFF8146C002D42D052
:10273000042918BF07293ED1A06F002804BF208DAF
:10274000B0F5066F37D0A07EC10606D408F1280385
:102750004FF4B2726FA100F00BF9208B0290221D92
:10276000E18A009201912346626A216D2046FEF7BC
:1027700082FD204600F0D8FF3069A04203D1C06836
:10278000306106E0084620B1C168A142FAD1E16893
:10279000C1600020E0600121DFF81C2C317010685E
:1027A000A04204D103F041FF0020BDE8FE83204693
:1027B000FFF77CFFF8E719B1022955D013D35BE08E
:1027C000E08A0028F3D0B068A04203D1C068B060AE
:1027D00006E0084620B1C168A142FAD1E168C160B3
:1027E0000020E060E3E794B908F1280340F21112F9
:1027F0005CA100F0BDF80020017D012900F00780F8
:1028000008F128034FF4897249A100F0B1F80127BB
:102810000FF2386959F8270005686CB908F12803E8
:10282000FF2208F1740100F0A3F805E0E86FA04270
:1028300004BF0021E967ED68002DF7D17F1C042F4C
:10284000E8D3214606F10C0000F09EFF207D012810
:1028500005D108F12803DF223BA100F089F82146C9
:102860000220FFF79DFA9FE7214606F1100000F0D5
:102870008BFF012030709AE72046BDE8FE4300BF81
:1028800038B5050040F00980DFF8DC0635A100F11D
:1028900028034FF4CE72FFF7FFF9287D032804D0F8
:1028A00004280AD0072813D019E02846FEF70EF9AD
:1028B000040007D10520287505E02846FEF706F933
:1028C0000400F7D06CB92846FEF7C1F9204632BDA6
:1028D0002846FEF7FBF80400F4D10920EBE70020BE
:1028E00032BD14F1010FF1D1688B40F0080068830C
:1028F000F5E700007463705F636C6F73655F736806
:102900007574646F776E3A20696E76616C696420C5
:10291000706362007063622D3E666C61677320268F
:102920002054465F5258434C4F534544000000002A
:102930007063622D3E7374617465203D3D204C4987
:102940005354454E000000007463705F6672656505
:102950005F6C697374656E3A20214C495354454E3F
:102960000000000070636220213D204E554C4C0059
:102970004046FFF791B9000080B558B9DFF8BC0BAD
:102980000AA100F128034FF4F472FFF785F96FF004
:102990000F0002BD017D012903D0418B41F01001E0
:1029A00041830121BDE80440AEE600007463705F1E
:1029B000636C6F73653A20696E76616C6964207030
:1029C0006362000010B5040040F00980DFF86C0B72
:1029D00013A100F1280340F2072200F07FBD207D03
:1029E000012819D089B1608B40F01000608322B1BA
:1029F00001212046BDE8104086E6A06F18B1FFF720
:102A0000EDFB0020A067002010BD002AFBD0C01EF7
:102A10000128EED9001FECD06FF00A0010BD0000B5
:102A20007463705F73687574646F776E3A20696E53
:102A300076616C6964207063620000002DE9F84FD4
:102A4000040084B08B46DFF820050AD10DF1140D87
:102A5000BDE8F04F00F1280340F23D222DA1FFF721
:102A60001BB9217D012907D100F1280340F2412241
:102A700000F19C01FFF710F9217DDFF8C4780A29E5
:102A800009D1214607F1140000F07EFE204605B072
:102A9000BDE8F04F0AE6206D03900025666AD4F881
:102AA00090A0D4F81080E08AA94621B960B100F066
:102AB0005DFAE56008E08146214607F1100000F06C
:102AC00063FE01205D463870206F08B100F0B7FC4E
:102AD000E06E08B100F0B3FC606F08B100F0AFFC2D
:102AE0005DB1208B0290211D0091CDF8049023460A
:102AF000039932462046FEF7BEFB2046FFF7D6FD7F
:102B00005FEA0A0003D06FF00C014046D04705B0E1
:102B1000BDE8F08F7463705F6162616E646F6E3ADE
:102B200020696E76616C6964207063620000000049
:102B3000012183E7F8B505460C00134608BFDFF80E
:102B4000E44BDFF824044DB900F1280340F2A92238
:102B500022A1FFF7A1F86FF00F00F2BD297D51B15E
:102B600000F1280340F2AB2200F1D001FFF794F806
:102B70006FF00500F2BD180006D100F041F9030026
:102B80001DD16FF00100F2BD00270FF2C02656F8EC
:102B90002700026800E0D26872B1D08A9842FAD168
:102BA0003AB1116829B124B12068002818BF8142C8
:102BB000F1D16FF00700F2BD7F1C042FE7DB002C82
:102BC0001EBF206800282860DFF87407EB82816848
:102BD000E960856005F03AFC0020F2BD7463705F27
:102BE00062696E643A20696E76616C696420706314
:102BF0006200000010B50C0040F00980DFF86803A7
:102C000006A100F1280340F20F32FFF745F82046F5
:102C1000FFF78EFF6FF00C0010BD00007463705F53
:102C20006163636570745F6E756C6C3A20696E7673
:102C3000616C69642070636200000000F8B50646AC
:102C400014460025C84856B900F1280340F259320D
:102C500000F1F801FFF720F86FF00F0045E0317D3B
:102C600051B100F1280340F25A3200F59471FFF798
:102C700013F86FF00E0038E00220FFF763F805004C
:102C800008BF4FF0FF3030D03069DFF8B4762861EC
:102C90000120F18AE9822875717D69750021707AB9
:102CA00068722972F07AE872B17AA97232682A6081
:102CB000F08A70B1B868B04203D1C068B86006E06D
:102CC000084620B1C168B142FAD1F168C160002064
:102CD000F0603046FFF7EAFCDFF8840BA861F96882
:102CE000E960FD6005F0B2FB002004B120702846C9
:102CF000F2BD0000F8B50400DFF8405808D105F136
:102D0000280340F2A63205F5B0712846FEF7C4FF4D
:102D1000218D666A628E701840F23147BA42E36ACA
:102D2000A8BF4FF48662C01A821A01D46185F2BD31
:102D3000F01A0028C8BF00260CDC9E1BB6F5803FA9
:102D4000C0F0088005F1280340F2B63203A12846FE
:102D5000FEF7A2FF66850020F2BD00006E65775F7A
:102D60007263765F616E6E5F776E64203C3D2030EB
:102D7000786666666600000038B504000D46DFF828
:102D8000900B0AD10DF1040DBDE8304000F128038D
:102D900040F2CF3214A1FEF77FBF217D012907D178
:102DA00000F1280340F2D33200F5C271FEF774FF40
:102DB000208D2D18ADB240F661018D4201DA8542B9
:102DC00001DA4FF4066525852046FFF793FFB0F53D
:102DD000067F08D3608B40F0020060832046BDE888
:102DE0003240FDF734BF31BD7463705F7265637646
:102DF00065643A20696E76616C6964207063620074
:102E000070B5002211A3574C2088401C4FF6FF7567
:102E100081B2A94208BF4FF440402080002520889D
:102E2000E9B253F82110096800E0C96849B1CE8AB7
:102E30008642FAD1521C90B2B0F5804FE4DB0020FC
:102E400070BD6D1CE9B20429EADB70BD34000020BE
:102E500030000020380000203C0000202DE9F04127
:102E600004001F466FF00F053F4806D100F128030C
:102E700040F235420FF6C42106E041B900F12803C3
:102E800040F236420FF6D021FEF706FF66E0237DC2
:102E900053B100F128034FF4876200F5D671FEF7B5
:102EA000FBFE6FF009005AE0086860602283207A18
:102EB00010B1FEF716FD02E0201DFEF767FD0500CC
:102EC00003D0216831B9281D02D16FF0030046E01C
:102ED00068682060B4F81680B8F1000F06D1FFF7DB
:102EE0008FFFE08210B96FF0010038E0204600F05B
:102EF000A5FC002104F148066162B060221D401E5D
:102F00006064306170614FF40660616A608520859D
:102F1000E162308329464FF40670608600F0A2FC1F
:102F2000608602210120308037642046FDF7F5FDE0
:102F3000050013D10220B8F1000F2075DFF80074EE
:102F400003D000F013F80020E0603869E0603C61D5
:102F500005F07CFA0120387000F02BFA2846BDE815
:102F6000F0810000D4010020F4FD0008B868A04200
:102F700003D1C068B8607047084620B1C168A1425B
:102F8000FAD1E168C16070472DE9FE4FDFF8B06308
:102F9000DFF8A8A57068401C70607078401C7070E5
:102FA00028E0A84207D00AF1280340F271520AF53E
:102FB0003F7100F0C7F9E8683061B8F1000F0BD03D
:102FC000288B02902A1DE98A009201912B466A6A99
:102FD00021692846FEF74FF92C692846ED68FFF76E
:102FE00065FB002030705FB16FF00C012046B847E0
:102FF000307828B135694FF0000901E0A946ED6845
:10300000002D00F05C81287D38B90AF1280340F2D8
:10301000BE420AF5EE7100F095F9287D012807D12E
:103020000AF1280340F2BF420AF5027100F08AF962
:10303000287D0A2807D10AF128034FF498620AF57F
:103040000D7100F07FF97078A97F8142D6D0A87702
:103050004FF0000B287D0228D84605F1400405F109
:10306000980706D1A0780628A8BF4FF0010B80F280
:103070009E80A0780C2819DA7878002840D0206B40
:1030800038B10AF1280340F2D4420AF5197100F070
:1030900059F9E06A38B90AF1280340F2D5420AF535
:1030A000267100F04FF9B8780C2802DB4FF0010BC5
:1030B00070E079780FF60C20014411F8010C397892
:1030C0008142BCBF491C39703978814262DB218C56
:1030D0000029284604D1FEF773F900285AD107E0E9
:1030E000FDF739FC20B92846FDF7B1FD002851D085
:1030F00087F80080787806284CD8401C787049E022
:10310000B5F93000010005D447F6FF7290421CBFAC
:10311000401C2886B5F93000B4F90010884239DB2C
:103120002846FDF719FF18B1206B98BBE06A88B3F9
:10313000287D022814D0A078B5F93C10B5F93E20BE
:103140000C2802EBE10228BF0C200FF6681108568C
:1031500002FA00F047F6FF718842A8BF08462080B7
:1031600005F1400005F14001A5F8308000890A8C86
:10317000698E904288BF1046490040088BB2984241
:1031800038BF08466081688E2081A4F82A802846CE
:10319000FDF71CFF287D062809D1A87EC10606D5AB
:1031A0007068296A401A292828BF0BF1010B687A38
:1031B000010728D5287D042818BF072823D1716866
:1031C000286ADFF85027081A616D52184FF4FA7315
:1031D000B2FBF3F3834204D20BF1010B4FF0010871
:1031E00011E0FA78DFF8303703FB02114FF4FA727E
:1031F000B1FBF2F1814206D22846FEF7B3F810B9CE
:10320000F878401CF870606B60B17068296AB4F996
:1032100000200623401A12FB03F3984224BF2846DD
:1032200000F082FB287D03280BF1010104D17068B6
:103230002A6A801A292805E0092805D170682A6AB7
:10324000801AF12828BF8B465FFA8BF0B0B1276D4A
:10325000284600F069FAB9F1000F30693FF4A1AED9
:10326000854207D10AF1280340F26D520AF5347104
:1032700000F068F8E868C9F80C009EE6A94699F8DD
:103280001C0099F81D10ED68401C89F81C00C0B2A4
:10329000884213D3002089F81C003070D9F88C20A4
:1032A0004AB1D9F8100049469047317800297FF497
:1032B000A1AE002802D14846FDF7C9FCA0E6756919
:1032C0004FF000090FE0A84207D00AF1280340F2AE
:1032D000B3520AF5607100F035F8E868706128466D
:1032E000ED68FFF7E3F93DB3287D0A2807D00AF11E
:1032F000280340F2A1520AF54A7100F023F87068E1
:10330000296A401AF12814D3284600F00DFA706992
:10331000B9F1000FD7D0854207D10AF1280340F256
:10332000AF520AF5567100F00DF8E868C9F80C00C4
:10333000D5E7A946ED68D6E7BDE8F78FE80E01208E
:10334000280000205046FEF7A7BC70B5DFF8CC552A
:103350006878401C68702C6920E0A077608BC107FA
:1033600006D500F023F8608B4FF6FC7108406083AF
:10337000608B010706D54FF6F77210406083204638
:10338000FFF77EFAE668A06F38B100212970204669
:1033900000F014F828780028DDD134462CB1687884
:1033A000A17F8142D9D1E468F8E770BD40F0020006
:1033B00060832046FDF74BBCF00D01202DE9F04164
:1033C00004000AD100F084F940F2096200F56A7144
:1033D000FEF762FC6FF00F002FE0A76FD4F8845067
:1033E0007E7B0020002DA06703463A46214602D08E
:1033F0002069A84701E000F056F801006FF00C08C2
:1034000012D1B00618D5208DB0F5066F1CBF401C38
:103410002085D4F884507DB1206900230022214604
:10342000A847404508D101E0404501D1404604E0AD
:10343000A7676FF0040000E00020BDE8F08110B540
:10344000002803E0046800F003F82000FAD110BD62
:1034500010B5040009D0606808B1FEF7BFFE214630
:10346000BDE810400320FEF79BBC10BD38B5050039
:1034700009D1DFF89C040FF2FC4100F1280340F26F
:103480008262FEF709FC0320FEF75CFC040001D118
:10349000002032BD1022294600F048FB6068FEF78C
:1034A00005FF204632BD10B50800144607D1234859
:1034B0000FF2DC4100F128034FF4D3620EE03CB17F
:1034C0002189FFF759FC2046FEF788FE002010BD39
:1034D000002BFBD1BDE81040FFF74EBAFEF7DCFB36
:1034E0006FF00F0010BDB0B5082818BF09280446BA
:1034F00008D012480FF2B44100F1280340F2DD6217
:10350000FEF7CAFBDFF8143418695F680021002257
:1035100009E0057DA54205D1056A7D1B8D4224BFCA
:1035200029460246C0680028F3D12AB1BDE8B04060
:1035300000211046FFF782BAB0BD0000F4FD00087C
:10354000F8B5064600F085F80400DFF8D05358D1EE
:10355000286900280AE0418BC4680A0705D54FF6A0
:10356000F77319404183FFF78BF92000F3D16869A5
:103570006C680022002106E0036AE31A934224BF2C
:103580001A460146C0680028F6D111B10846FFF777
:10359000CFFA00F05EF8040033D10920FFF7A3FF53
:1035A00000F057F804002CD10820FFF79CFF00F032
:1035B00050F8040025D1802EA8BF7F2001DA30000A
:1035C0001CD0421E2869D2B20023002110E0447DA5
:1035D000944207DB0BD16F68D0F820C0A7EB0C0733
:1035E0009F4204D36968036ACB1A01462246C06829
:1035F0000028ECD111B10846FFF79AFA00F029F83B
:10360000044624B39C21204604F0D8FF04F148006E
:1036100066754FF4866181834FF406626285228568
:103620004FF40673FF22E27263860622A4F840205C
:10363000E28701234FF0FF32228603806A6822620C
:103640006B78B74AA3774180C264B649C16320460C
:10365000F2BD0120FEF776BB00BF402070E700B14D
:103660000161704738B50C4668B100F1140528783F
:10367000012807D100F02CF840F2DF7200F57471D8
:10368000FEF70AFB2C6731BD38B504000D460CD09F
:10369000207D012807D100F01BF840F2F37200F5FD
:1036A0007E71FEF7F9FAC4F8805031BD38B50C468A
:1036B00068B100F114052878012807D100F008F856
:1036C00040F60D0200F58461FEF7E6FAEC6731BDC5
:1036D0008F4800F12803704718B1027D012A08BF06
:1036E0008161704770B504000D461646884809D1BF
:1036F000BDE8704000F1280340F63D020FF2BC2106
:10370000FEF7CABA217D012907D100F1280340F64E
:103710003E020FF2C021FEF7BFFAC4F88C50667764
:1037200070BD00000C26010838B504000BD101B0B3
:10373000BDE8304076480FF2BC2100F1280340F686
:103740005102FEF7A9BA207D00281CBF0A280128D3
:1037500019D004F16805286918B1FEF73FFD002073
:103760002861E86810B1204600F0DEF84FF0FF3025
:1037700020866868FFF763FEA868FFF760FE0020F8
:103780006860A860288031BD70B50C000546604EA9
:1037900007D106F1280340F683020FF2742100F0EE
:1037A0004AF83DB906F1280340F684020FF27C2165
:1037B00000F041F82868A04203D1C068286006E004
:1037C000084620B1C168A142FAD1E168C160002079
:1037D000E0602046FFF7A8FF207D0A2809D00128D5
:1037E00025D0608BC10704D5FFF7E0FD207D0128BF
:1037F0001DD0D4F86C0030B106F1280340F69302D6
:1038000092A100F018F8D4F8700030B106F1280346
:1038100040F6940293A100F00EF8D4F8740030B191
:1038200006F1280340F6960295A100F004F8002066
:103830002075E08270BD3046FEF72EBA80B540B9E3
:10384000DFF8CC0094A100F1280340F6AF02FEF7A8
:1038500023FA324A906951680818906102BD00004D
:10386000F52B000838B505460C463AB9FFF730FF8E
:1038700040F6C50200F58961FEF70EFA002C1CBF68
:10388000A08C002807D02828CCBF2838002080B280
:10389000854288BF0546284632BD70B505000C46F6
:1038A00009D1FFF715FF4FF4106200F58E61FEF7A6
:1038B000F3F900E0344644B120682968E66888429C
:1038C00004BF2046FFF734F9F4E770BD70B504007B
:1038D0001CBF206800280D4618D0104E31692046C4
:1038E000FFF7DBFFB1682046FFF7D7FF002D1CBFB5
:1038F000286800280AD0F06806E001682268914232
:1039000004BF2B680360C0680028F6D170BD0000BA
:10391000F4FD0008B84C0A00F8240100280000203B
:1039200000DD6D00A734000810B50446606F18B1C3
:10393000FFF785FD0020606710BD00007463705FB5
:10394000636F6E6E6563743A20696E76616C69644C
:1039500020706362000000007463705F636F6E6EBE
:103960006563743A20696E76616C69642069706180
:10397000646472007463705F7365675F636F70790E
:103980003A20696E76616C69642073656700000097
:103990007463705F726563765F6E756C6C3A2069F4
:1039A0006E76616C6964207063620000696E766196
:1039B0006C69642073746174650000007463705FE7
:1039C000706F6C6C3A20696E76616C69642070630C
:1039D00062000000696E76616C696420736F636BCE
:1039E000657420737461746520666F7220706F6CEB
:1039F0006C0000007463705F7063625F7075726763
:103A0000653A20696E76616C6964207063620000BB
:103A10007463705F7063625F72656D6F76653A2084
:103A2000696E76616C696420706362007463705FB4
:103A30007063625F72656D6F76653A20696E76615C
:103A40006C6964207063626C69737400756E736571
:103A50006E74207365676D656E7473206C65616B41
:103A6000696E6700756E61636B6564207365676D71
:103A7000656E7473206C65616B696E670000000091
:103A80006F6F736571207365676D656E7473206CFD
:103A900065616B696E6700007463705F6E65787452
:103AA0005F6973733A20696E76616C696420706334
:103AB0006200000001020304050607070707070765
:103AC0000700000003060C18306078000146000A69
:103AD00040EA012080B270470146080200F47F00EE
:103AE0000A0A40EA016002F47F42104340EA116092
:103AF000704730B4002513E050F8042BD30744BFBF
:103B0000A9F101039A18091F042942F8045BFAD2AB
:103B100013468C0744BF15809B1CC90748BF1D7006
:103B200050F8041B0029E7D130BC70474AB10000AF
:103B300011F8013B521E00F8013B1CBF11F8013B7C
:103B4000F8E7704780B504F01BFCC0F30D00DFF808
:103B50001815A0F58040088001BD2DE9F14F82B015
:103B60000E4640B9DFF804350FF21051DFF80005BA
:103B7000CF22FEF791F846B9DFF8F4040FF21451A2
:103B800000F14C03D022FEF787F8029841890829FA
:103B9000C0F2A8804468DFF8DC7439687869DFF81F
:103BA000D08400F00DFF81462088FFF78FFF82460A
:103BB0006088FFF78BFFDFF8B0144C6800904FF07F
:103BC000000B00250FE0002C1CBF206800282CD023
:103BD000796911F1010F1FBFB2681040114088428E
:103BE00023D0A346E468002C47D0608A009988421D
:103BF000F7D13EB908F14C03882208F198014046FC
:103C0000FEF74AF8207A30B1796891F83020521CDA
:103C1000D2B29042E5D1B9F1000FD4D1002C1FBF30
:103C20002068002879698842DBD1207C41070FD4C5
:103C30006DB1B9F1000F0BD0786910F1010F07D108
:103C400070682968814203D02268824200D12546EB
:103C5000A08A5045C5D1606800281CBF39698842D8
:103C6000BFD1BBF1000F0ED0E168DFF8FC03CBF849
:103C70000C104168E160446005E02C0003D17068DD
:103C8000796988422DD102980821FEF776FA58B951
:103C9000A4B1A5692DB3CDF800A0029AE06907F19F
:103CA00010032146A84721E0404600F14C034FF4A1
:103CB000B8720FF2FC31FDF7EFFF12E0B9F1000F1F
:103CC0000FD1387D00F0F000E0280AD0B7F90C10D1
:103CD0000298083109B2FEF77FFA0298032102F038
:103CE000CEFD0298BDE8FE4FFEF778BABDE8F78F2B
:103CF0007CB56FF00F06DFF8784330B904F14C0360
:103D00004FF420720FF2C43117E031B904F14C03C3
:103D100040F281220FF2D0310FE032B904F14C03AE
:103D200040F282220FF2DC3107E0069D55B904F122
:103D30004C0340F283220FF2EC312046FDF7ACFF3A
:103D4000304676BD0468002C1ABF04F0F006E02E61
:103D50002C1D06D06E68B44202D06FF0030076BD11
:103D600004460194009500F001F876BD2DE9F84F66
:103D7000050084B099466FF00F04DFF8F47206D1A5
:103D800007F14C0340F2D1220FF2B83127E05FEA8D
:103D9000010806D107F14C0340F2D2220FF2C431E0
:103DA0001DE01000039206D107F14C0340F2D3222C
:103DB00007F1C00113E0DDF83CA0BAF1000F06D115
:103DC00007F14C034FF4357207F1E40107E00E9E52
:103DD00056B907F14C0340F2D52207F584713846F5
:103DE000FDF75AFF204656E0688A38B90022294676
:103DF000284600F053F8002883464BD1B8F8080055
:103E000000F1080189B281420CD308214046FEF737
:103E1000B2F990B14FF4207208212220FEF72CF85D
:103E2000040002D14FF0FF3035E0B8F8080028B1A7
:103E300041462046FEF78CFA00E044466089082897
:103E400008D207F14C0340F20E3207F5967138465E
:103E5000FDF722FF6768688AFFF738FE388048461A
:103E6000FFF734FE78800020F8802089FFF72EFECF
:103E7000B8800296112001902046A97A039A0091F9
:103E80005146EB7AFDF78EFE834644451CBF204623
:103E9000FEF7A4F9584605B0BDE8F08FF8B5044622
:103EA000154601B974495CB971480FF2D82100F187
:103EB0004C0340F2B732FDF7EFFE6FF00F00F2BD9A
:103EC000694FD7F804C00026604600E0C06810B112
:103ED0008442FBD1012628001ED100223B88581CB9
:103EE0004FF6FF75AB4208BF4FF440403880604644
:103EF0003D8800E0C06840B1438AAB42FAD1521C11
:103F000090B2B0F5804FE9DB1CE028001AD0002900
:103F10000CBF0020086818E0634600E0DB68002B57
:103F2000F5D09C42FAD0588AA842F7D10A6818689E
:103F3000904218BF002918BF002A03D0002B18BFD9
:103F40000028EBD16FF00700F2BD2060658216B942
:103F5000C4F80CC07C600020F2BD0000F8B504007D
:103F60000D4616466FF00F07414808D100F14C038B
:103F700040F2354289A1FDF78FFE3846F2BD2DB9DA
:103F800000F14C0340F236428BA1F4E7608A30B96D
:103F9000002221462046FFF781FF0100EED128686C
:103FA00031496060A682207C40F0040020744A6899
:103FB000104600E0C06818B18442FBD10020F2BD79
:103FC000E2604C60F2BD000038B9294881A100F1DF
:103FD0004C0340F28A42FDF75FBE8161C2617047C7
:103FE000010008D1DFF8880080A100F14C0340F205
:103FF000A142FDF751BE1C4842688A4203D1D268F3
:10400000426008E0024632B1D0680028FAD0884207
:10401000F8D1C868D0600020FDF7C2BE10B50020FE
:10402000FDF790FE040004D0202104F0CFFAFF2019
:10403000E072204610BDF1E7002800D1704730B58E
:104040000268002A18BF00290DD00A685AB1064B31
:104050005A6806E013680468A34204BF0D6815603F
:10406000D268002AF6D130BD440000201C1201089D
:10407000D0110108400E01200C2601087564705F04
:10408000696E7075743A20696E76616C696420702F
:10409000627566007564705F696E7075743A206948
:1040A0006E76616C6964206E65746966000000005C
:1040B000706275665F72656D6F76655F6865616475
:1040C0006572206661696C65640A00007564705FE2
:1040D00073656E64746F5F69663A20696E76616CB1
:1040E00069642070636200007564705F73656E645C
:1040F000746F5F69663A20696E76616C69642070DE
:10410000627566007564705F73656E64746F5F6975
:10411000663A20696E76616C6964206473745F69C5
:10412000700000007564705F73656E64746F5F6922
:10413000663A20696E76616C6964206E65746966A2
:10414000000000007564705F73656E64746F5F6972
:10415000665F7372633A20696E76616C6964207081
:10416000636200007564705F73656E64746F5F698D
:10417000665F7372633A20696E76616C6964207061
:10418000627566007564705F62696E643A20696E7C
:1041900076616C6964207063620000007564705F12
:1041A000636F6E6E6563743A20696E76616C6964E4
:1041B00020706362000000007564705F636F6E6E54
:1041C0006563743A20696E76616C69642069706118
:1041D000646472007564705F726563763A20696E1C
:1041E00076616C6964207063620000007564705FC2
:1041F00072656D6F76653A20696E76616C696420D0
:104200007063620038B5044618204443DFF818573D
:10421000285918B1FDF7E2FF002028512A19002182
:10422000117531BD10B500241822DFF8FC16624369
:104230000A44107DF8B1508A401C508280B2B0F51B
:10424000967F05DA107D012806D1518A042903DD05
:104250002046FFF7D7FF0EE0032808BF042002D056
:10426000042802D10220107505E0012803D19068CE
:10427000111D00F057FB641C0A2CD5DB10BD2DE985
:10428000F24F84B000240A2603900292ADF8044055
:10429000B346B246B0460025DFF890960094182148
:1042A000DFF88406694347180FFA8AF23C7D0A2A30
:1042B00004BF002CAA4637D0B4B3012C08D007DCC9
:1042C00009F168034FF4927209F1280100F016FB1E
:1042D000039840B101687A68914204D1029880B194
:1042E000B96888420DD0012C15D138680028788A29
:1042F00009D0BDF80410884216D3A846ADF80400D2
:1043000012E028B262E0BDF8021088420CD32E46BB
:10431000ADF8020008E007DD788ABDF80010884299
:1043200024BFAB46ADF800006D1C0A2DB7DB9DF82D
:104330001000039C029D810705D40FFA8AF10A2917
:1043400004D1C00705D44FF0FF303FE00FFA8AFADE
:1043500028DB0FFA8BF00A280DDA824600F039F8D4
:10436000885888B109F1680340F26D120FF2CC5100
:1043700000F0C4FA08E036B20A2EB2BFB2460FFA15
:1043800088FABAF10A0FDEDA5046FFF73BFFBAF1BE
:104390000A0F07DB09F1680340F283120FF2B451F0
:1043A00000F0ACFA00F015F88E18307D38B109F144
:1043B000680340F2851209F1BC0100F09FFA0CB1CC
:1043C0002068706000217182B560504605B0BDE87C
:1043D000F08F1822DFF8501512FB0AF2704738B53B
:1043E000044600251822DFF840156A431144087D71
:1043F00028B18868A04204BF2846FFF703FF6D1C60
:104400000A2DEFDB31BD2DE9F84380460C0086B064
:10441000DFF8180508D100F1680340F28A220FF294
:104420005851FDF739FC84E0D8F804703988B1F5AB
:10443000807F04BF3979062978D17979042904BFAE
:104440007988082972D107F10E0104AA0B6813605C
:1044500007F1180105AA0B681360616821B18B424E
:1044600002D10125A94602E000254FF0020994F887
:104470002C10062907D000F1680340F2A91200F1C0
:10448000E801FDF709FC049898B3214600F098FA7A
:1044900078BB049800F0F000E0282AD02246494674
:1044A00004A8FFF7ECFE002823D41821DFF87824B5
:1044B0004843161802203075B460062207F108013F
:1044C00006F10C00FFF732FB00207082D6F8009056
:1044D000B9F1000F0DD030604FF40061009107F189
:1044E000080304F12602494600F060F84846FDF74B
:1044F00075FEF888B0F5807F07D0B0F5007F02BF69
:1045000004A9204604F0D0FA10E07DB1022004A9ED
:10451000231D0390029107F108020093019204F118
:10452000260304F12601204600F084F94046FDF7F9
:1045300055FE07B0BDE8F0837CB504460D46182053
:10454000DFF8E41342438E18327D022A09DADFF8DD
:10455000DC0300F1680340F2EF2200F59871FDF7EB
:104560009BFB307D022816D1708A40F21D118842D3
:1045700005DB311D204600F0D5F960B909E0B0F542
:10458000877F08DB06F10C02311D204600F0B9F9E7
:1045900008B9032030754FF40061009106F10C0357
:1045A00004F1260200F001F876BD2946204605F008
:1045B000D1B82DE9FF410400174688463E46DFF892
:1045C0006C5308D105F1680340F21E320FF2A83196
:1045D0002846FDF761FBB8F1000F08D105F168032B
:1045E00040F21F320FF2A0312846FDF755FB47B9C4
:1045F00005F168034FF448720FF26C312846FDF75D
:104600004BFB3868214600F0DBF958B1C84B4FF43A
:104610000060009004F126024146FFF7C7FF04B096
:10462000BDE8F081386800F0F001E02915D10120E3
:104630008DF8040000215E228DF805108DF806200B
:1046400001AB787800F07F008DF80700B8788DF81E
:104650000800F8788DF80900D9E7A168636801EAD5
:10466000000219408A421EBF80B24FF6A9618842FB
:1046700003D0E068E8B104F10C06AE4BDFF8A8C245
:104680001A781827104678430CEB0001097D02299F
:1046900012DB0CF108010958A14201BF35680CF189
:1046A00004010858854207D141462046FFF744FFE0
:1046B000B5E76FF00300B2E700222046314607FB62
:1046C00002F40CEB0406367D022E0ADB0CF1080521
:1046D0002E59864201BF0D680CF104063459A542DB
:1046E00006D0521C0A2AEADB424600F007F896E799
:1046F0001A704146D2B2D9E7000000002DE9F84F08
:1047000082460D461446286851464FF0FF3900F0A6
:1047100057F9CB46002738B9286800F0F001E029A6
:1047200018BF002D00D010B96FF00F007CE052468A
:1047300001212846FFF7A3FD060048BF40B273D40D
:104740007F2EDFF8E88106D308F1680340F2C1321A
:1047500090A100F06BF8F6B200963246182172482C
:104760004A438618307D18B901273775C6F808A066
:10477000307D012808D007DC08F1680340F2CF3211
:1047800008F5B07100F052F807B974B929465046DF
:1047900000F0C8F8002C834645D006D108F1680324
:1047A00040F2E13278A100F041F8307D01280FDDC0
:1047B000009860494FF400620092087006F10C0303
:1047C0000AF126022146504604F0C4FF83462AE03F
:1047D00029D1254673A700E02D68FDB16889298994
:1047E000884208D1286830B108F1680340F2F132FC
:1047F000394600F01BF8287B4106EDD522464FF4E0
:1048000020710E20FDF76CFE04465CB1306808B1E3
:10481000FDF7E4FC34604FF0000B04E02046FDF7A8
:1048200045FDF2E7CB465846BDE8F28F4046FDF71E
:1048300033BA00002DE9FC4704000E469246984624
:10484000DFF8E89040F0078009F1680340F2574232
:1048500049A100F053F84FF420721C210E20FDF7FF
:104860000BFB050008BF4FF0FF3045D068891C28BE
:1048700007DA09F1680340F2634209F5C47100F0F8
:104880003DF80D986F68FFF721F9F88094F82C0037
:10489000062807D009F1680340F26A4209F5DE7183
:1048A00000F02CF80622414607F10800FFF73EF918
:1048B0000B99062207F11200FFF738F90A980268EF
:1048C00007F10E0153460A6007F118010C980268BF
:1048D0000A6008204FF480723A807880062139718E
:1048E0000420787140F6060100913246FFF75DFE24
:1048F0002846FDF773FC0020BDE8F6874846FDF723
:10490000CBB938B584B0012303930291051D0A4C3D
:104910000194009500F1260300F12601FFF78AFFBC
:1049200005B030BD024AECE75C040120B40C01087C
:10493000C0970008E60E0120F42501086172705F3F
:104940007461626C655B695D2E71203D3D204E5542
:104950004C4C000069203C204152505F5441424C75
:10496000455F53495A4500006970616464722021B3
:104970003D204E554C4C00006E6574696620213D0B
:10498000204E554C4C0000007120213D204E554CCE
:104990004C00000074797065206F766572666C6FEC
:1049A000770000006E6F207061636B657420717515
:1049B0006575657320616C6C6F776564210000001C
:1049C000C24318BF002810D091F82D2093070ED5B0
:1049D0004A6890420BD0896801EA00030A4093427A
:1049E00002BFC9430840884201D10120704700201E
:1049F000704700002DE9F843804684B098F80040E5
:104A00000D46E94606E003A881456ED249F8046BDD
:104A100018F8014FA4F130000A2866D200260A27B0
:104A2000302C0ED118F8014F782C14BF582C1027B9
:104A300005D0082705E0303C07FB0644264618F859
:104A4000014FA4F130000A28F5D3102F13D1A4F19F
:104A50006100062824BFA4F1410106290BD220469B
:104A600004F0B2FE002814BF612041200A34241A49
:104A700044EA0616E3E72E2CC5D024B1204604F004
:104A8000ADFE002831D06846009C019AA9EB0007D2
:104A9000BF1024067F1C042F2FD8DFE807F026352F
:104AA000030C1800B6F1807F3CBF0098B0F5807F02
:104AB0001BD2264328E0B6F5803F3EBF0098B0F5F4
:104AC000807FB2F5807F10D244EA024313E0B6F54E
:104AD000807F3CBF0098B0F5807F06D2B2F5807F22
:104AE0003CBF0298B0F5807F01D3002013E044EA78
:104AF000024343EA00231E4306E0084808A100F1F0
:104B00002803F922FDF7C8F82C0003D03046FEF741
:104B1000E3FF2860012005B0BDE8F083942101087F
:104B2000756E68616E646C656400000038B5DFF80E
:104B300010074468002503E0401EE07725460C4638
:104B40004CB1E07F21680028F6D120460C4629466A
:104B500000F002F8F4E731BD2DE9F84F07460D46A5
:104B60000026BD42DFF8DC8606D108F12803AB221F
:104B70000FF2E06100F05EF8002D1CBF2868B8421B
:104B800006D008F12803AD220FF2D46100F052F8EC
:104B90007C680FF2E06961688888D0B9086878603D
:104BA0001422606807F10801FEF7C0FF01212046CA
:104BB00001F068FE2046FDF770FB0646B6F5803F23
:104BC00004DB08F12803BC2200F033F82046FDF78F
:104BD00005FB7C6815E06068A24604685046FDF756
:104BE0005CFB83460BEB0600B0F5803F04DB08F16D
:104BF0002803CC2200F01DF850465E44FDF7EEFA83
:104C0000B6B2002CE7D12946384600F04AF8DFF862
:104C100030462088B04206DA08F12803D22208F193
:104C20007C0100F007F82088801B20803046BDE81A
:104C3000F28F49464046FDF72FB82DE9F041044672
:104C400088460023DFF8F865716800200027864653
:104C50008446002917E0E2684D69954202BF226947
:104C60008D69954202BF8A89A588AA4207D07F1C18
:104C700018B1C27FCD7FAA4201D30846F4460A6824
:104C800002B18E461100E6D120B11D466146FFF704
:104C900063FF4319434501DA012FD5DC1846BDE80F
:104CA000F08138B50546DFF898050C464168A94201
:104CB00002D12A6842600CE04CB9DFF888050FF297
:104CC000D45100F1280340F24512FCF7E5FF2A68B1
:104CD00022602946BDE834400420FDF761B8000099
:104CE0002DE9F14F84B045682978890001F03C0135
:104CF000142940F09681E888FEF7E8FEC000ADF880
:104D000002006888FEF7E2FE2978890001F03C0184
:104D10008842C0F28681401A0190DFF824A50498E9
:104D2000FDF7BBFA8146BAF8000048440A280BDDBB
:104D300049462846FFF781FF002800F07281BAF843
:104D4000000048440A28D4DCDAF8044000E0246873
:104D5000002C5BD0E8686169814202BF2869A169C3
:104D6000814202BFA089A9888842F0D1E888FEF775
:104D7000ADFEC00407D1E089FEF7A8FEC00402D052
:104D8000142200F055F9E888BDF80210DFF8B4B439
:104D90000006400F00F0010080F001080198411862
:104DA000B8F1000FADF800100AD0BDF80000BDF852
:104DB0000210884213DB4FF6EC72904280F21681AB
:104DC0000498002101220391029246687088FEF740
:104DD0007DFE3778BF0007F03C07B8420546C0F2B9
:104DE0000581F088FEF772FE04994E680022C0002B
:104DF00032602D18B080ED1BF58080B2ADB28542D7
:104E000054D36068039D029F01902DE00420FCF7BD
:104E100099FF04000CD149462846FFF70EFF48458C
:104E200004DB0420FCF78EFF040001D100240DE018
:104E30002021204603F0C2FB0F20E0771422DAF88D
:104E400004102160CAF8044000F0F2F8002C9AD156
:104E5000E7E073D0C888824228D3002D1EBFE888BF
:104E60009842002708680D4628B34168B2888B88AD
:104E70009A42EED23060B5B11046EA88904222BF25
:104E80008888F188884211D304982860E988B0881E
:104E9000814218BF0027B8F1000F26D1A07FC107BB
:104EA00023D400274BE08888F1888842C0F09E8098
:104EB00004986060EFE765B1B088E9888842E3D282
:104EC0000BF128034FF4DB720FF2E43100F0BEF96E
:104ED000DAE701980028EBD00BF1280340F2BF126B
:104EE0000BF1A00100F0B2F9E2E72FB3616811B352
:104EF0004A689088002803E04668D088B2889042CB
:104F000019D1306800283246F6D14868B04207D13E
:104F10000BF1280340F2E1120FF2B43100F096F9E0
:104F2000306848B10BF1280340F2E3120BF1D801CD
:104F300000F08CF900E0002717F1010F56D0BAF805
:104F400000004844B8F1000FAAF8000006D0A17F85
:104F5000BDF80000A08341F00101A177012F63D1CA
:104F60006068A78B41680D680E46142204F10801A1
:104F70003046FEF7DBFD1437B8B2FEF7A7FD7080B0
:104F80000020F0807081666809E06F68142128466F
:104F9000FDF7F3F829463046FDF7A1F93D68002DED
:104FA000F3D1DAF804108C4202D1002105E0014669
:104FB00000291CBF0868A042F9D12046FFF771FE06
:104FC0003046FDF76AF90446BAF80000A04206DA56
:104FD0000BF1280340F29B22C1A100F037F9BAF887
:104FE0000000041BAAF8004030461EE03CB90BF15B
:104FF00028034FF42A7200BFC0A100F027F96068AF
:1050000078B9DAF80400844200F007800BF1280335
:1050100040F2AB22BCA100F019F900212046FFF7B5
:1050200040FE0498FDF7DAF8002005B0BDE8F08FE7
:10503000294604F10800FEF779BD000010B5040010
:1050400007D18048B8A100F128034FF43172FCF772
:1050500023FE2146BDE810400520FCF7A1BE00005C
:1050600010B5040007D17748B2A100F1280340F23F
:10507000CE22FCF711FE606908B1FDF7AFF82046BB
:10508000BDE81040DAE700002DE9F24F8AB006468D
:10509000888C1438811000EB5170C01007900027E5
:1050A0007068069014250178890001F03C011429EC
:1050B00014466FF005090CD17089DFF888B1142807
:1050C00080F209800BF128034FF43F729CA100F09D
:1050D000BDF84846ADE00698C088FEF7F7FCC0F37F
:1050E0000C02089005923089079A0994A0F11401E6
:1050F00089B20391D100ADF80A1033E00A98818C8F
:10510000039814397D1981420598ADB2B4BF0021CE
:105110000121C0F30C0011B108998A0401D540F4B3
:105120000050FEF7D3FC0499C880BDF80800143085
:1051300080B2FEF7CBFC0499488000200499488196
:1051400041460A98099A4469A0474046FDF746F847
:105150000399BDF80800091A89B2039107980599C7
:10516000411805910398002863D0BDF80A108842C1
:10517000B4BFADF80800ADF808104FF42072142148
:105180000E20FCF779FE040051D06089142806DA5D
:105190000BF1280340F2253270A100F057F8069970
:1051A00060681422FEF7C2FC60680490A046BDF857
:1051B000080004461FE0B8B201904B4670684019E1
:1051C00000904122B9B20020FCF738FF5FEA000AE4
:1051D00032D03046FDF76AF81B48C9F81000C9F80C
:1051E000146051464046FDF77AF8E41BA4B2002C47
:1051F00084D036680025002CFAD07089471B06DA67
:105200000BF1280340F22D325CA100F01FF8B8B278
:105210008442B8BF2746B8B20028EAD00520FCF780
:1052200091FD5FEA0009C6D14046FCF7D7FF4FF079
:10523000FF300BB0BDE8F08F4846FFF7FFFEF3E705
:10524000840E0120F8160108615000085846FCF74A
:1052500023BD00007072657620213D2069707200C8
:10526000707265762D3E6E657874203D3D206970C4
:105270007200000070627566735F66726565642017
:105280002B20636C656E203C3D2030786666666638
:105290000000000073616E69747920636865636B58
:1052A000206C696E6B6564206C697374000000008B
:1052B000636865636B20667261676D656E747320E9
:1052C000646F6E2774206F7665726C6170000000E9
:1052D00073616E69747920636865636B0000000018
:1052E00069705F72656173735F70627566636F7515
:1052F0006E74203E3D20636C656E00006970722004
:10530000213D204E554C4C006E6F742066697273BF
:1053100074616C74686F756768206A757374206552
:105320006E717565756564007020213D204E554C89
:105330004C00000070637220213D204E554C4C0003
:105340006970345F6672616728293A2070627566F9
:1053500020746F6F2073686F7274000074686973D3
:10536000206E656564732061207062756620696EC9
:10537000206F6E652070696563652100702D3E6C3D
:10538000656E203E3D20706F666600002DE9F84F87
:10539000050084B0DFF8AC8A06D108F12803832227
:1053A0000FF6700100F09CFCDFF89C6A68683062C0
:1053B0006989142940DBDFF8949AD9F80010D9F8EC
:1053C0001400FFF7FDFA002840F01B8499F8140040
:1053D00000F0F000E02800F01484306A00F046FD90
:1053E000000B81001429A4BF2889884224DBA1F185
:1053F00014000022B08272626B898B4204DBF0825F
:105400002846FCF7BAFE36E0286830B908F12803D0
:10541000C2220FF6180100F063FC14212846FCF7A5
:10542000ACFE6989B48AF1822846641AFCF7A5FEAD
:1054300028684189A4B2A142C0F2E3834268726243
:105440002146FCF79AFE298968890C1B2C8130B112
:1054500008F12803DF220FF2E47100F041FC296813
:1054600028890A89904206D008F12803E0220FF229
:10547000D87100F035FC306A0088FEF727FB316AEE
:1054800008804888FEF722FB316A488000F0EAFC79
:10549000316A4860B062316A8868FEF71DFB316A84
:1054A0008860F062306AC089FEF710FB316AC881FB
:1054B00001F065F800F03F00307031782889B08342
:1054C00011F0030F05D0411CB18389B28142C0F0B5
:1054D0009883DFF87CA9DAF80040002701E027462E
:1054E000E468002C00F07E80207D30B908F12803AC
:1054F000FB2208F1740100F0F3FB207D0A2806D19D
:1055000008F12803FC2208F19C0100F0E9FB207D52
:10551000012806D108F12803FD2208F1C80100F096
:10552000DFFB207A10B100F0D3FBD8D1306A218B99
:105530000288914202BFE18A40888142CFD16168EE
:10554000D9F81000814202BF2168D9F814008142C5
:10555000C5D1E168A14207D108F1280340F20D123C
:1055600008F1F00100F0BCFB37B1E068F860DAF850
:105570000010E160CAF80040E068A04207D108F1DD
:10558000280340F2151208F58E7100F0A9FB0020E7
:1055900070602989306AB181306100213163717096
:1055A0007183B5603078010703D5687B40F0010056
:1055B000687304F14407786B00280AD02046FDF791
:1055C000FDFE10F10D0F06D0786B00281CBFB08BCC
:1055D000002800F0F980608D002802D12046FBF7FA
:1055E0008DFEEEE2DFF86C08046800E0E468002C51
:1055F0004AD0207D0A2807D008F1280340F21F1264
:1056000008F5A47100F06CFB207A10B100F060FB8B
:10561000ECD1306A218B0388994202BF4788E08A27
:10562000B842E3D16168D9F81000814202BF216815
:10563000D9F814008142D9D132785107204670D46C
:10564000B18B940713D5B46A426AB4EB020E14D43A
:10565000028DAEEB0202002A0FDC0293019709F1E2
:10566000100300936218F16A09F11403C7E2D2072C
:1056700003D5DFF8E4371C680462002951D0418B60
:1056800041F0020141839CE0DFF8D077336A38684B
:10569000002201E00246C068002800F09C82017AE6
:1056A00039B1D9F8044094F83040641CE4B2A14206
:1056B000F0D1B3F802E0C18A7145EBD10168D9F8A5
:1056C0001440A14218BF002818BF0029E2D10446A7
:1056D00022B1E068D0603968E1603C603078410711
:1056E0001FD4C2060ED51888029009F1100100914E
:1056F000CDF804E0B06AB18B4218F16A09F11403E5
:1057000020467CE280070CD5607DFDF719FF07007D
:1057100008D1A369002B04D020694FF0FF3200218B
:1057200098476EE2D9F8140038600322D9F81010B7
:10573000796007F16009E08AF882316A0888388365
:105740003A75B06A401C7862F8623846FEF776F81F
:10575000B86538657864F865B06A401E7865206978
:105760003861C9F81C40607A00F00C007872207A29
:105770003872DAF80010F960CAF8007002F066FEBC
:10578000DFF8DC1601200870384600F011FF306A9F
:10579000C089A9F80000A9F80200381DFCF7F6F846
:1057A0000146788E3A1DFEF75DF87886122138465C
:1057B000FBF7B3F920B100213846FDF73FF920E2AD
:1057C0003846FBF744FA1CE230787463410725D56C
:1057D000207D022804D1F06AF968884216D10CE0D5
:1057E000616AB26A8A4212D138B908F128034FF4CB
:1057F0004E720FF2744100F073FA707840F00800B6
:1058000070704FF6FE70618B014061836BE1511A3D
:10581000FCD4208D091A0029F8DC55E1800704D555
:10582000207D022818BF0328F7D1A07EC10603D42B
:10583000DFF824060268226204F19A000021417018
:105840000170204600F0B4FEB26AB08B96F800E01A
:10585000336AF16A101803900EF0100094F814B037
:10586000ABF1020BBBF1070F41F21C1519D8DFE8B1
:105870001BF0CA00770071004C0044007100190051
:10588000080000F016FA3078C1060AD5F06AF96807
:10589000884204BFB86A002803D1707840F0100035
:1058A000707020E100F005FA3078C106F9D5F06A91
:1058B000F968884204BFB86A0028F2D12046FDF793
:1058C00033FFDAF80000A04230D000E0084620B1F3
:1058D000C168A142FAD1E168C1600020DFF88025EB
:1058E000E060012111700A202075DFF86805016869
:1058F000E160046002F0AAFDF5E000F0DAF97078EA
:105900008106F9D500F0D0F9D8E700F0D2F9727825
:105910003078F16A930600F0100011D560B1FA6892
:10592000914204BFB86A002806D1EBE7DAF800001C
:10593000C168CAF80010D0E700F0B6F9082152E0BB
:1059400000280CD0FA68914204BFB86A002806D13A
:10595000062148E000F0ADF97078810640D4C2E03D
:10596000002845D03868081A401E3ED4F868081A46
:1059700000283ADC04212175B86B002816D0806914
:1059800038B908F128034FF46A720FF2FC2100F0D5
:10599000A7F9B86B8369002B08D020690022214643
:1059A000984720B110F10D0F00F00B81D2E000F00C
:1059B00080F9708B08B1401E7083608E4200AA424D
:1059C0008CBF13462B468100994238BF800003D319
:1059D000AA428CBF40002846B8807078810603D563
:1059E00000F062F9072121757DE000F064F97AE0AA
:1059F0005FEA8E7077D5616A491E8A4273D120466C
:105A0000FBF710FB6FE00EF0120EBEF1120F02BF9B
:105A1000D7F800C00CF1010C614558D1501C6062F0
:105A2000E0623960521ED889B883F8833A61042055
:105A30002075201DFBF7AAFF0146608E221DFDF791
:105A400011FF4200AA428CBF13462B46608681009C
:105A5000994238BF800003D3AA428CBF4000284639
:105A6000B880788C38B908F128034FF45B720FF6D0
:105A7000F03100F035F9788C411E7984FD6A65B902
:105A8000BD6A3DB908F128034FF45D720FF6E831A5
:105A900000F026F92868B86201E02968F962284612
:105AA000FDF7D6FCF86A00280EBF4FF0FF3000204B
:105AB00084F8420020867B6C33B1206900222146A5
:105AC000984710F10D0F7CD000F0EEF80BE050B1CC
:105AD00000F0F1F894F84200062804DA002121864B
