:020000040800F2
:100000002805022021320108A9310108AB3101087D
:10001000AD310108AF310108B13101080000000025
:10002000000000000000000000000000A1DA00084D
:10003000B33101080000000049DA000809D40008C3
:100040003D330108413301084533010849330108B4
:100050004D33010851330108553301085933010864
:100060005D33010861330108653301086933010814
:100070006D330108713301087533010879330108C4
:100080007D33010881330108853301088933010874
:100090008D33010891330108953301089933010824
:1000A0009D330108A1330108A5330108A9330108D4
:1000B000AD330108B1330108B5330108B933010884
:1000C000BD330108C1330108C5330108C933010834
:1000D000CD330108D1330108D5330108D9330108E4
:1000E000DD330108E1330108E5330108E933010894
:1000F000ED330108F1330108F5330108F933010844
:10010000FD330108013401080534010809340108F0
:100110000D3401081134010815340108B531010806
:10012000193401081D34010821340108253401085F
:1001300029340108BB3101082D340108313401088C
:1001400035340108393401083D34010841340108CF
:1001500045340108493401084D340108513401087F
:1001600055340108593401085D340108613401082F
:1001700065340108693401086D34010871340108DF
:1001800075340108793401087D340108813401088F
:1001900085340108893401088D340108913401083F
:1001A00000000000000000009534010820B1007A32
:1001B000002818BF01F0D7BB104601F029BC000091
:1001C0002DE9F84F04000E4692469846DFF868BACB
:1001D00006D10BF12803A3222EA1584601F09EFD63
:1001E0003EB90BF12803A4220BF17801584601F027
:1001F00095FDDDF828905FEAC9704CBF0427002701
:10020000032001F0E1FD050003D1304602F028F89B
:1002100019E085F80A90002028606E603189B942A3
:1002200006DA0BF12803B02222A1584601F076FD30
:100230003089C01B28811421304601F0DEFF20B137
:10024000284603F03BFA002021E068684168E96035
:10025000E08A03F071FDE9680880208B03F06CFDF3
:10026000E9684880404603F06DFDE9684860781011
:1002700007EB9077BF107F1D4AEA073188B203F081
:100280005BFDE96888810020E96848822846BDE86E
:10029000F28F00007463705F6372656174655F73F1
:1002A00065676D656E743A20696E76616C6964206D
:1002B00070636200702D3E746F745F6C656E203EDB
:1002C0003D206F70746C656E000000002DE9F047F2
:1002D0000E461C00804692463746DFF85C9906D1F0
:1002E00009F12803E82209F19C0100F031FB089D87
:1002F0002DB909F12803E9221DA100F029FB56457B
:100300001AD2099880070AD4A97E480614D40A98FC
:1003100028B1E86E002804BF286F00280CD03146B1
:1003200001F21B218908BAEB810F31BF574606F253
:100330001B274FF6FC7007404FF4207239464046A9
:1003400001F0DCFD050008BF00200ED0286830B1A8
:1003500009F1280340F20B120DA100F0F9FA6889A7
:10036000801B20802E816E812846BDE8F08700002A
:100370007463705F706275665F707265616C6C6FDC
:10038000633A20696E76616C696420706362000074
:100390006E65656420756E636861696E6564207062
:1003A000627566002DE9F84F8CB005460020804646
:1003B00006900890CDF82C80ADF80C0009901F46EF
:1003C000002400260A906FF00F0ADFF86C9835B908
:1003D00009F128034FF4CF720FF2DC4116E0B5F8B3
:1003E00062006B8E4008834234BFADF81230ADF826
:1003F0001200BDF8120008B9ADF81230079149B9E2
:1004000009F128034FF4D77209F5987100F0A0FAAA
:10041000504691E1287D042818BF072805D00228FE
:100420001CBF03286FF00A00F3D1ADF80E2005F1D0
:10043000620AC2B1BAF8020090422CD3BAF80400A2
:10044000092828D2C0B105F16C014868002804BF12
:10045000E86E002807D109F128034FF4AB7209F1C7
:10046000C00100F075FABAF804B0E96E8DF81070AA
:10047000002900F0DB8014E005F16C0041680029E0
:1004800004BF00680028EED009F1280340F2591299
:1004900009F1FC01E5E7688B40F08000688349E1E1
:1004A000014608680028FBD10C46A07AC1072189C3
:1004B000BDF812004CBF042700277918884207DADC
:1004C00009F128034FF4F3720FF2044100F040FAEF
:1004D000BDF812102089091ACF1BBAF80610ADF822
:1004E0000C1000293CD0B8B2884207D209F1280389
:1004F0004FF4FC720FF2F03100F02AFABDF80C0054
:10050000BDF80E100894884234BFBDF80C00BDF849
:100510000E00B9B28142B8BF384606DBBDF80C0008
:10052000BDF80E10884288BF084680B2099009A81D
:10053000BDF80C2006880999921BADF80C207F1A93
:10054000BDF80C0000281CBFBDF80E00864207D085
:1005500009F128034FF400720FF2AC3100F0F8F902
:10056000BDF80E108E426CDAB8B200281CBF20898C
:1005700000286BD0B8B2891B8842B1BFADF81470A7
:10058000BDF80E10891BADF814109DF810000894EA
:10059000C10718D59DF81010019101200290009517
:1005A00003ABBDF81410BAB20020FFF78FFE00288D
:1005B00006902DD00798069BBDF814208119586825
:1005C00003F0EAFB29E0616800E0014608680028C2
:1005D000FBD1087B10F0C00F12D148684989014453
:1005E000079881420CD13EB109F1280340F2312233
:1005F00009F5B27100F0ACF9BDF814000A9010E0F2
:10060000BDF814100122002001F078FC00280690AB
:1006100071D00798069930444860069801F07FFE33
:100620008344BDF814108E19B6B20AE0BAF8060079
:1006300038B109F1280340F24B2209F5C87100F0E6
:1006400087F9BDF80E00864280F2A880BDF80E0042
:10065000BDF81220801B81B291423ABF80B2059052
:1006600005929DF81000C10727D5B8F1000F0CBF07
:1006700001200020029003AB9DF81000019000952E
:100680000598BDF8122081B23620FFF71FFE0190B9
:1006900088B341890598814207DA09F1280340F2BD
:1006A000672209F5E07100F053F90798019B059A5C
:1006B0008119586803F070FB44E0BDF80C0030B1BC
:1006C00009F1280340F2712297A100F041F9059841
:1006D00081B2012200F0F4F907000CD007983044F1
:1006E00078604FF42072002100F0EAF9019030BBED
:1006F000384601F0B5FD688B40F0800068830698AD
:1007000008B101F0ADFDB8F1000F1CBF404602F08A
:10071000CCFFBAF8040068B105F16C00416800290B
:1007200004BF0068002805D109F128034FF44A727C
:1007300000F00CF94FF0FF300DB0BDE8F08F3946F6
:1007400001F00FFE019801F0EAFD83441FFA8BF0DF
:100750000A2828BF0198CCD2002000900022EB6D1F
:100760000199F3182846FFF72BFD00280890C2D006
:10077000B8F1000F08BF80460CD0DDF82C0030B96E
:1007800009F1280340F2AB226BA100F0E1F80B99CC
:1007900008980860089805990B9044E70998B8B143
:1007A000676806460FE0398971183981386848B999
:1007B00078687B8907993246184403F0EDFA788906
:1007C000301878813F68002FEDD1208936182681B6
:1007D000BDF80C10AAF80610069888B13CB909F1CA
:1007E000280340F2E12209F5007100F0B1F8069902
:1007F000606801F0B6FD069A21891089411821E050
:100800000A9880B2F8B1002C1CBF6068002807D19C
:1008100009F1280340F2E72209F50E7100F098F87B
:1008200062680A9903E01389CB18138102461068A5
:100830000028F8D11089538908181081CB185381EA
:1008400020890918218105F16C02002C0CBFC2F827
:100850000080C4F80080E86DBDF80E104118E9650D
:10086000BAF80230BDF80E00AAF804B01B1ABAF8A4
:100870000400AAF8023058B15168002904BF10687A
:10088000002805D109F1280340F2133200F05EF888
:10089000089800281CBFC06800280AD09DF81000E6
:1008A000810706D4082003F047FA0899C96800F0C8
:1008B000C6F9002040E700007463705F77726974C6
:1008C000653A20696E76616C69642070636200002D
:1008D0006D73735F6C6F63616C20697320746F6FED
:1008E00020736D616C6C0000696E636F6E73697369
:1008F00074656E74206F76657273697A652076739D
:100900002E20737061636500696E636F6E73697327
:1009100074656E74206F76657273697A652076737C
:100920002E206C656E0000006F76657273697A65C3
:10093000203D3D2030000000707265765F73656772
:1009400020213D204E554C4C000000000FF62C316C
:10095000484601F0E3B92DE9FE4F05008846B64E42
:1009600007D106F1280340F24B3206F51C7100F066
:10097000AAF8EC6E002C3DD0B8F1000F0AD106F1B8
:10098000280340F2533206F5257100F09CF86FF011
:10099000050093E02189884580F0898005F13207C0
:1009A0003888404507D206F1280340F25B320FF643
:1009B000EC2100F088F8208938B906F128034FF4BB
:1009C00057720FF6E82100F07EF8A07A0190C00778
:1009D0002689A6EB08064CBF4FF0040A4FF0000A28
:1009E000B6B20AEB06014FF4207289B200F068F843
:1009F0005FEA000960D0606821890389D9F804C0E2
:100A00005B1A43449BB232460CEB0A0101F068FDCD
:100A1000B0424ED1E06800F017F900F03F0A4FF005
:100A2000000B5FEA0A71E16844BF0AF0F70A4FF071
:100A3000080B5FEACA70486844BF2AF0010A4BF00D
:100A4000010B03F07FF90199C9B2009100EB080393
:100A50005A4649462846FFF7B3FB050029D060688F
:100A600001F05DFCB98E081AB88660680189891B9F
:100A700089B201F041FB2089861B2681504603F094
:100A80005BF9E16800F0DBF8606801F048FCB98EC2
:100A90004018B886686801F042FCB98E4018B886E4
:100AA00022682A602560286808B90021F98600209C
:100AB00004E0484601F0D4FB4FF0FF30BDE8FE8F64
:100AC000362001F01BBA304601F028B938B50400D1
:100AD00008D159480FF6E41100F1280340F2EB3237
:100AE00001F01CF9E56EA5B100E005462868002874
:100AF000FBD100F0A8F810F0070F0AD1012003F095
:100B00001BF900F09BF8608B40F020006083002010
:100B100032BD2046BDE8344001212DE9F843894625
:100B2000002619F0030F0446DFF80C8107D108F105
:100B3000280340F2124208F52E7100F0F7F93CB993
:100B400008F1280340F213420FF68C1100F0EEF981
:100B50005FEA897046BF0126042700274FF4207200
:100B60003946FFF7ADFF050013D06889B84207DAB0
:100B700008F1280340F23A4208F5447100F0D6F932
:100B800000964A46E36D29462046FFF719FB05000B
:100B900006D1608B40F0800060834FF0FF3048E06A
:100BA000287B10F0030F07D008F1280340F24242DF
:100BB0000FF6441100F0BAF9288938B108F128037A
:100BC00040F2434208F5537100F0B0F904F16C06AD
:100BD000316811B9356004E0014608680028FBD18E
:100BE0000D6004F16607002019F0030F788002D031
:100BF000E06D401CE0655FEAC97003D5618B41F090
:100C000020016183686801F08AFB398840183880C8
:100C100080B268B17168002904BF3068002807D12C
:100C200008F1280340F2664208F55E7100F07EF993
:100C30000020BDE8F2830000C4040108E9688A8945
:100C4000104388817047E868808903F075B82DE902
:100C5000F84F040084B0DFF85C8707D108F128035F
:100C600040F2E1420FF6A80100F060F9207D012872
:100C700007D108F1280340F2E44208F5687100F05A
:100C800055F9DFF834070168A14200F04B8104F107
:100C90004806318B3088814234BF03910390756AD6
:100CA0006DB3221D21462046FFF780FA5FEA000956
:100CB00007D0002C1CBF2068002807D119F10400C0
:100CC00002D16FF003002EE10068206000F07AF995
:100CD000616C2F89039B401AC019834204F198026A
:100CE00016D21946338B994204BFB06A002806D148
:100CF000507820B900210120117050709170A07EB1
:100D0000810740F10A81204605B0BDE8F04FF5E2C9
:100D100000205070B76A27B100E007463868002805
:100D2000FBD100F04FF9616C2B89039A401AC0186F
:100D30008242C0F0EE80E968888902F0FDFF40073A
:100D400007D508F1280340F237520FF2DC7100F0AA
:100D5000EDF8B06AA0B1628B12F0440F10D1716A45
:100D600029B1086860B90889618E884208D2B08BC1
:100D700030B1F08B082803DC12F0A00F00F0C9801E
:100D8000207D022804D0102002F0D6FFFFF756FF86
:100D90003CB908F1280340F2B9520FF2A47100F0F7
:100DA000C5F8284600F0C5F800285AD1606A02F05C
:100DB000C9FFE9688860608D02F0BEFFE968C881FC
:100DC000606A628D8218E26201F1140AA87AC10792
:100DD0000BD5221D49464FF4067002F079FE40F013
:100DE000017002F0AFFF4AF8040BB4F9300000289C
:100DF00044BF00212186606B30B9DFF8C015086858
:100E0000606300F0DFF8A0636968E8684A684B89AE
:100E1000821A92B29B1A4B810B8948609A1A0A81F6
:100E200000210182AA7AD1074CBF0421002114308D
:100E30000844824507D008F1280340F21C620FF2F3
:100E4000207100F073F80620CDF808900190221D63
:100E5000A17A0091E37A6868214600F0D1FE010092
:100E600028D128687062217D022904D0618B4FF659
:100E7000FC700140618300F0A5F88246FFF7E3FEB5
:100E800010F00301288918BF012150440818B168E7
:100E9000091A48BFB060FFF7D6FE10F00300298999
:100EA00018BF012040182DD000222A60B06A30B946
:100EB000B56225E0618B41F08001618333E000F091
:100EC00081F8F968824600F0E4F8BAEB000016D524
:100ED00004F1700A01E0DAF800A0DAF8000040B18D
:100EE00000F0D6F8E968834600F0D3F8BBEB0000C9
:100EF000F1D4DAF800002860CAF8005005E03D603F
:100F00002F4602E0284602F0D9FB756A002D7FF4D7
:100F100008AF706A08B9002131844FF67F70618B89
:100F200001406183002005B0BDE8F08F404600F02D
:100F3000F5BE10B5040007D100F024F940F29A5232
:100F400000F5727100F0EAFE6068817B012901D032
:100F5000012010BD002010BD70B5040007D100F0C5
:100F600011F940F2636200F2144100F0D7FE256FE0
:100F70002DB303E0FFF7DDFF08BB2D6828680028CC
:100F80002846F7D1FFF7D5FFC8B9E06E28600020EA
:100F9000216FE1662067618B41F40061618300F09D
:100FA00011F80646FFF74FFE10F00300298918BF1D
:100FB000012071184018E0640020606370BD6FF07C
:100FC000050070BDE968486802F0BCBE10B50400B9
:100FD00007D100F0D7F84FF4D36200F5876100F035
:100FE0009DFE94F84200FF281CBF401C84F842007C
:100FF0002046BDE810402AE610B5040009D1DFF80C
:10100000B4030FF2705100F1280340F2AD6200F01A
:1010100085FE2046FFF7A0FF18B92046BDE8104026
:10102000D4E710BDF8B5050009D1DFF888030FF249
:10103000605100F1280340F2C16200F06FFE05F13B
:101040003406F46B1CB12046FFF773FF10B16FF04C
:101050000500F2BD2068F0636C3500E02D6828685B
:1010600038B100F015F8E168074600F012F83F1AB1
:10107000F4D4296821602C60206808B90021B18669
:10108000B07BFF281CBF401CB07300203060F2BD55
:10109000C168486802F056BE38B5040008D1C5489A
:1010A0000FF2045100F1280340F2F96200F036FE1D
:1010B00004F14805A86A00B3A07E41071DD420466C
:1010C000FFF7B0FFC8B9288B2988814238BF08468E
:1010D00000EBD0704010618E82B2B2EB410F38BF8E
:1010E0004800688001EB41016888091829800020C8
:1010F000628B208642F00402628331BD2DE9F84FF5
:101100000D46824611464919143199464FF4207212
:1011100089B2222000F0F2FE040030D0608905F18F
:101120001401884207DA00F02DF840F2247200F230
:101130005C4100F0F3FDDDF834800C9EDDF82CB04E
:101140000A98676802F0F8FD38802D06584602F0CC
:10115000F3FD7880C7F80490504602F0F3FDAD0E21
:10116000B8606D1D46EA0536B0B202F0E5FDB88103
:10117000404602F0E1FDF881002038827882204666
:10118000BDE8F28F8B4800F128037047F8B50400E2
:1011900084B00D4616461F4607D1FFF7F3FF40F215
:1011A000427200F28C4100F0B9FD608D0390102175
:1011B00002913B46228B01923246E08A00902946FA
:1011C000606AFFF79BFF18B1616A628D8A18E2625C
:1011D00005B0F0BD70B50C001646764D08D105F18E
:1011E000280340F2567205F2B441284600F096FDFD
:1011F0006068F1074CBF0421002100F11402143093
:10120000084482420AD005F128032846BDE8704010
:1012100040F275720FF2483100F080BD70BDFEB52E
:101220000C00054616461F4607D1FFF7ABFF40F2FC
:10123000877200F2DC4100F071FD3A4631462846E3
:10124000FEF7B4FF10B96FF003050FE0002D19BFD2
:10125000EB7AA97AFF2300210290009106200190E9
:101260003A463146204600F0CBFC0546204600F0C9
:10127000F7FF2846FEBD2DE9F8431C0084B0074661
:1012800088461646DFF82C9107D109F1280340F271
:10129000C4720FF23431FFF75BFB0C9D3DB909F1CD
:1012A000280340F2C5720FF23C31FFF751FB404674
:1012B00002F048FD46F2080103911422BDF83830CF
:1012C000BDF83410019302920091034600220021E0
:1012D0003046FFF713FF06000DD0002300223146F1
:1012E0003846FFF777FF2B4622463146384605B091
:1012F000BDE8F04393E705B0BDE8F08338B50400DE
:1013000007D12C48BEA100F1280340F2EA7200F098
:1013100005FD206D02F016FD034600220021204647
:10132000FFF734FF050006D1608B40F003006083B7
:101330006FF0010032BD0023002229462046FFF74E
:1013400049FF231D224629462046FFF768FF628B8E
:10135000010012BF42F003024FF6FC710A406283A3
:1013600032BD000038B5050007D11248ACA100F12C
:10137000280340F6240200F0D1FC286D401E02F044
:10138000E1FC0346002200212846FFF7FFFE04008F
:1013900002D14FF0FF3032BD002300222146284603
:1013A000FFF718FF2B1D2A462146284601B0BDE84D
:1013B000304034E7C4040108080002202C0000205B
:1013C0002DE9F041040007D1FFF7DCFE40F64F02A3
:1013D00000F5A16100F0A2FCE66E0EB900204BE022
:1013E00094F89A00FF281CBF401C84F89A00F0680B
:1013F000FFF72AFCC00704D531894D1EAD41ED0F22
:1014000000E00025F068436885F0010200212046D5
:10141000FFF7BCFE5FEA000808BF4FF0FF302BD09B
:10142000D8F804704DB1112002F086FCBA894CF254
:10143000FF010A401043B88109E0706831890389CF
:101440005B1A9BB2012207F1140101F049F8F1681F
:10145000FFF71FFE216D401C091A48BF20650023BD
:10146000002241462046FFF7B5FE231D2246414695
:101470002046BDE8F041D2E6BDE8F0817463705FBC
:1014800077726974653A2076616C6964207175655C
:101490007565206C656E67746800000073706C6918
:1014A00074203C3D206D7373000000007573656708
:1014B0002D3E6C656E203E20300000007463705F2E
:1014C00073656E645F66696E3A20696E76616C69F9
:1014D00064207063620000007463705F656E7175F4
:1014E0006575655F666C6167733A20696E76616CDD
:1014F00069642070636200007365672D3E746370D9
:10150000686472206E6F7420616C69676E65640038
:101510007463705F6F75747075743A20696E76616C
:101520006C69642070636200525354206E6F7420A3
:101530006578706563746564206865726521000074
:101540007463705F6F75747075745F7365676D65D4
:101550006E743A20696E76616C6964207063620013
:101560006F7074696F6E73206E6F742066696C6C37
:10157000656400007463705F7265786D69745F7292
:10158000746F3A20696E76616C69642070636200E2
:101590007463705F7265786D69743A20696E766104
:1015A0006C696420706362007463705F7265786D4B
:1015B00069745F666173743A20696E76616C696400
:1015C00020706362000000007463705F7273743A8D
:1015D00020696E76616C6964206C6F63616C5F6911
:1015E000700000007463705F7273743A20696E76E5
:1015F000616C69642072656D6F74655F697000006D
:101600007463705F73656E645F656D7074795F613C
:10161000636B3A20696E76616C6964207063620066
:101620007463705F6B656570616C6976653A20699B
:101630006E76616C696420706362000070472DE90A
:10164000F0470500DFF8408306D108F1280340F297
:1016500027120FF2403108E0099C200008D108F160
:1016600028034FF4947208F1780100F0A7F832E0F3
:10167000DFF8180301B9014602B9024603B903466F
:101680000A98089F0FF2D9260FF224394FF0000C68
:10169000C5F804C0C5F808C0C5F80CC06E61A5F84F
:1016A00028C005F13106E64605F1240C86F800E075
:1016B000CCF800E02F62C5F81CE0DFF8D47297F890
:1016C00000C086F803C02861284600F090F828463C
:1016D000A047002803D0002032E0401CF0704FF0FB
:1016E000000AF078FF2804BF0021F1707C681BE03D
:1016F000AC4206D108F1280340F28B12494600F0B3
:101700005DF80AF1010ABAF5807F07DB08F12803CA
:1017100040F28D1208F19C0100F050F8F07894F836
:1017200034108142D9D02468002CE1D1F078FE2811
:101730000CBF0020401C3870786828607D60284607
:10174000BDE8F08738B504460D4602F0F5F92946A4
:101750002046BDE8344002F0DFBD2DE9FC410C001D
:10176000064615460FF25C27DFF81C8205D108F10A
:10177000280340F2CB1200F020F82DB908F128031D
:101780004FF4E67200F019F820687168884211D0B1
:1017900000902846716829606946FFF7D3FF002C46
:1017A0000CBF0020206870600121304600F062F814
:1017B000012000E00020BDE8F6813946404600F0F7
:1017C000ADBA0A6883689A4204D001B900228260E7
:1017D00001207047002070470A68C3689A4204D00D
:1017E00001B90022C26001207047002070472DE936
:1017F000FC4180460C00654817461E4608BF04465B
:1018000007B9074606B90646002C1CBF2068002809
:1018100003D100F012F8012500E00025002239462E
:101820004046FFF7CEFF002231464046FFF7D4FF87
:101830000DB900F002F8BDE8F3816A462146404642
:101840008BE75349886070470000000038B94E4864
:1018500060A100F128034FF4547200F05FBA90F8D1
:101860003110CA0705D441F0010180F8311003217D
:1018700000E0704738B504000D4608D1424800F139
:10188000280340F26D3200F1F00100F047FA94F8BD
:10189000311001F0050005280BD1EA0709D5606871
:1018A00038B1080705D5211D2046BDE8344003F0B6
:1018B000D1B931BD38B934484DA100F1280340F207
:1018C0009B3200F02BBA90F83110CA0707D501F00F
:1018D000FE0180F83110090748BF02F018BF7047B9
:1018E00038B504000BD101B0BDE83040264800F106
:1018F00028034FF4787200F58A7100F00FBA04F1F2
:101900001C05687D41070FD440F00400687520462F
:1019100003F06AFC03212046FFF7ACFF296819B1E8
:101920002046BDE83440084731BD40B9164800F1B3
:10193000280340F2064200F59C7100F0EFB900F177
:101940001C014A7D530706D502F0FB024A7509685F
:10195000002918BF0847704700B1C16170470000F7
:101960006FF00B00704701000BD00948406800E0A1
:10197000006830B190F834305B1CDBB29942F7D18B
:1019800070470020704700004C1E010834330108E6
:10199000AC0002206E657469665F6164643A206918
:1019A0006E76616C6964206E657469660000000083
:1019B0006E6574696620616C72656164792061642A
:1019C00064656400696E76616C696420706F696E2D
:1019D000746572006E657469665F7365745F7570B7
:1019E0003A20696E76616C6964206E657469660080
:1019F0006E657469665F7365745F646F776E3A20B5
:101A0000696E76616C6964206E65746966000000B9
:101A100070B5DFF8E41204680A6800E01268AAB141
:101A200092F8313003F005010529F7D151680029FA
:101A3000F4D0956805EA040629408E4204D099073F
:101A4000ECD4D3689C42E9D1104670BDAB4909681B
:101A500059B191F8312002F00502052A05D14A68F2
:101A6000002A1CBF00787F2801D1002070BD0846E5
:101A700070BD80B5014691F83100C2070AD54A68A9
:101A800042B19F484069904202D004F013FA08B175
:101A9000012002BD002002BD2DE9F843054689461C
:101AA0006F683978080904283CD1880000F03C08A8
:101AB000788802F041F929898842044603D22146F8
:101AC000284600F019FB688940452BDB2989A14293
:101AD00028D3B8F1140F25DB3869894E7061F86896
:101AE0003061307D00F0F000E02808D199F8310035
:101AF000C10702D5D9F8040028B9002427E04846D8
:101B0000FFF7B7FF90B15FEA090420D0306940B118
:101B1000494604F0CFF928B9307C00F0F000E02805
:101B200000D0FCB9284600F09BFB25E0307D002466
:101B30007F280CD07048046807E04C4504D020464C
:101B4000FFF797FF0028E1D12468002CF5D1787ABF
:101B5000112802BFB91C31F80800B0F5884FD5D163
:101B60004C46DEE7F8884FF63F71084207D028461A
:101B700004F074FB050001D100203FE06F68346081
:101B8000C6F80490B76041463878800000F03C0009
:101B9000B081284600F033FB787A01280DD0062862
:101BA00006D011280ED14946284602F00CF91EE055
:101BB0004946284604F0A8FE19E04946284606F0A2
:101BC0008DF814E07069214604F074F960B9307D35
:101BD00000F0F000E02807D04146284600F03EFB28
:101BE0000221284606F009F9284600F039FB0020BA
:101BF00030607060B060B08130617061BDE8F283C8
:101C00003EB5089D0C4622B100291ABF096800297B
:101C10002C1D02959DF818109DF81C5000910195FF
:101C2000214600F001F83EBD2DE9F84306468846FE
:101C3000B07BDFF8D090012814461D4600F00880E4
:101C400009F128034FF4557231A1484600F066F8B7
:101C5000ACB31421304600F0D0FA98BB7089776895
:101C6000142808D209F1280340F2893209F17801D9
:101C7000484600F053F8099808993D727872452259
:101C80002068214D38613A707970308902F054F83B
:101C900078800020F880288802F04EF8B8802888E4
:101CA000401CB8F1000F288003D118480168F96082
:101CB00002E0D8F80000F8600021798109E070891D
:101CC000142802DA6FF0010014E0716808690090CE
:101CD0006C460A9B188D40B13189884205D2224654
:101CE0001946304604F08EFC04E018465B69224633
:101CF00031469847BDE8F283B0000220B4000220CC
:101D000064000220982B01081C01022034330108D2
:101D1000702D3E726566203D3D2031000EB4C0B589
:101D2000024603A800210190009101AB0121044863
:101D300078440C3006F0AAF806BC5DF810FB00BF32
:101D4000BF14010030B5816800220A600023426898
:101D5000D21C9208920005E00C6814600A605B1CBB
:101D600005882A444488A342F6DB30BD38B50024F8
:101D7000374DA0B255F82000FFF7E4FF641CA1B274
:101D80000E29F6D331BD38B5044607F0C6F905462D
:101D9000A06804689CB12168016014F0030009D0B8
:101DA0002B4800F1840300F1600140F21912383031
:101DB000FFF7B4FF284607F0B9F9204632BD2846A0
:101DC00007F0B4F9002032BD10B50E28204C0ADB14
:101DD00004F1840340F257121EA104F13800FFF70A
:101DE0009DFF002010BD54F82000BDE81040CAE758
:101DF00038B504460D4615F0030009D0DFF8500051
:101E00001CA100F1840340F26D123830FFF786FF09
:101E100007F083F9A1680A682A600D60BDE83240C6
:101E200007F084B910B50E28094C0ADB04F18403CD
:101E300004F13800BDE810404FF4D57215A1FFF74A
:101E40006DBF21B154F82000BDE81040D0E710BDAF
:101E5000842801086D656D705F6D616C6C6F633A0D
:101E60002074797065203C204D454D505F4D4158A0
:101E7000000000006D656D705F667265653A206DEB
:101E8000656D2070726F7065726C7920616C696726
:101E90006E6564006D656D705F667265653A20748D
:101EA000797065203C204D454D505F4D41580000F4
:101EB00080B507F032F9DFF810280021117007F023
:101EC00035F9DFF80808006800E0C06830B1416FFC
:101ED0000029FAD0BDE8024001F05CBE01BD70B53A
:101EE000BDF91050059C00260660416005734473DF
:101EF0000121C67302814381817370BD2DE9FE4FBC
:101F00009246BAF1010F18BFBAF1410F04460F46CD
:101F1000DFF8BC9706D0BAF5C17F0AD0BAF5207FAA
:101F20006DD0A0E0002000F0A7F805462846BDE8E7
:101F3000FE8F0025AB460D20FFF746FF5FEA000845
:101F40003BD0E61C4FF6FC700640C6F51476B8B2DE
:101F5000B1B2884238BF3E4608EB0400002200F1CF
:101F600010010192C91C8908CDF800A0B3B2BAB221
:101F700089004046FFF7B3FF98F8040010F0030F04
:101F800007D009F1580340F2011209F1280100F0CD
:101F9000A4FAE41CA408A400D4F5147407D109F130
:101FA000580340F2031209F1A40100F096FA002D43
:101FB0000CBF4546CBF800801AE007F0AEF8DFF81A
:101FC000084726780121217007F0B0F85EB900219A
:101FD000DFF8000707F057F928B107F09EF8002155
:101FE000217007F0A3F805B3284600F039F91CE08A
:101FF000BF1B0024B8B20028C3469CD196E7E21C60
:10200000F91C92088908920002EB810202F110008B
:1020100092B2B2EB810F24BF82B2B2EB810F04D334
:1020200080B207F04BFB050001D100207FE70020C4
:102030000190CDF800A0281900F11001C91C8908F1
:102040003B463A4689002846FFF749FF287910F0B9
:10205000030F07D009F1580340F2231209F1D80108
:1020600000F03BFA62E709F1580340F227120FF241
:10207000846100F032FAD8E7FEB51746412F18BF49
:10208000012F05460E4609D0DFF844060FF28061A5
:1020900000F158034FF4A572FFF740FE0C20FFF744
:1020A00093FE040001D10020FEBD002001900097A6
:1020B0003346324629462046FFF711FF2046FEBD33
:1020C0003EB51C46C01C079B800801EB8005AB4257
:1020D00001D200203EBD069B0092002B14BF03EBF3
:1020E00080000020022301930A460B460146204649
:1020F000FFF7F5FE20463EBD2DE9F04104000E46F7
:10210000DFF8CC5508D105F158034FF4CC720FF22B
:1021100014612846FFF702FE2789BE423BD2BF1B4F
:10212000BFB20FF218680EE0361A2089C01B20815A
:10213000B6B224683CB905F1580340F2AF124146EB
:102140002846FFF7EBFD6089B042EDDB207B10F005
:102150000F0F17D16089864214D0617B880711D494
:102160006168091B711889B2204607F00BFA040058
:1021700008D105F1580340F2BD120FF2D85128469C
:10218000FFF7CCFD668160892081206808B100F0EE
:1021900067F800202060BDE8F081F8B558B9DFF895
:1021A00030050FF2CC5100F1580340F2DF12FFF777
:1021B000B5FD0120F2BDB1F5803FFAD2D9B1048955
:1021C0000B46E418A5B29EB2B542F2D3077B3D069A
:1021D00007D542684942114400F11005A94205D2D1
:1021E000E7E7002AE5D04268494211444160048192
:1021F00041895B1843810020F2BD0022CDE710B574
:10220000DFF8CC4430B904F1580340F24B220FF20E
:1022100060510DE0B1F5803F0DD2B1B143898AB272
:1022200093420ADA04F1580340F255220FF24C515E
:102230002046FFF773FD012010BD44682144416032
:102240009B1A018943818A1A0281002010BD0B006C
:1022500058BFFFF7A2BF5B421946D0E70122F6E75D
:102260002DE9F0470400DFF8688409D108F158032C
:102270004FF437720FF2F84100F04EF8002049E0B9
:1022800000250FF230590FF2145A06F046FF0646A9
:10229000A07B30B908F1580340F2F122514600F01A
:1022A0003BF8A07B471EA773304606F03FFFFFB206
:1022B0007FBB617B207B26688A0700F00F000DD56D
:1022C000206938B908F1580340F2FF2208F58271FD
:1022D00000F022F821692046884717E0022802D141
:1022E00021460D2003E0012804D121460C20FFF7F0
:1022F00099FD0BE018B9204607F086F806E008F1D2
:10230000580340F20F32494600F006F86D1C3400C5
:10231000BBD1E8B2BDE8F0874046FFF7FFBC0146FD
:10232000002001E00968401C0029FBD180B2704701
:1023300010B5040014D006F0F0FEA17B491CA17377
:1023400006F0F4FEA07B58B9BDE81040DFF880032A
:102350000FF2744100F1580340F24232FFF7DEBC45
:1023600010BD70B504000D4618BF002DDFF8606386
:102370000FD106F1580306F594713046BDE8704060
:1023800040F25A32FFF7CABC21892A8951182181AB
:10239000044620680028F7D120896189884208D046
:1023A00006F1580340F2623206F5B0713046FFF78D
:1023B000B5FC206840B106F1580340F263320FF2D9
:1023C0001C413046FFF7AAFC218928894118218148
:1023D000256070BD10B50C46FFF7C3FF2046BDE871
:1023E0001040A5E72DE9F0470546002600270C46DA
:1023F000002D18BF002C6FF00F08DFF8D49203D027
:1024000028892189884206D209F1580340F2CA324C
:1024100009F5DA714DE060896168A0EB070A688907
:10242000801B824588BF824668685246C919801958
:1024300001F0B2FC69895644B142574407D209F110
:10244000580340F2D9320FF2A43100F046F8608907
:10245000B84207D209F1580340F2DA320FF2A43140
:1024600000F03BF860898742688924BF0027246810
:10247000864202BF00262D68002D12D02CB1608943
:102480002189884201D12068B8B92DB1688929898C
:10249000884201D12868D8B9002CBCD10020BDE801
:1024A000F087002CFAD009F158034FF479720FF23B
:1024B000703100F012F84046F1E709F1580340F29C
:1024C000EA3209F5F27100F008F86FF00500E6E76E
:1024D00009F1580340F2EF32F3E74846FFF71EBC1C
:1024E0002DE9F8430446002688461546B14678484B
:1024F00034B900F1580340F20A420FF2343108E0D7
:10250000B8F1000F1CD100F1580340F20B4200F566
:102510000471FFF703FC002021E0FF1ABFB2A8B24C
:102520009BB2B842B8BF07466068C118B0B23A461D
:10253000404401F031FC2468B944BE19ED1B00236E
:10254000A8B250B107E098B267890028E5D0B84238
:10255000E3D32468DB1B002CF5D11FFA89F0BDE81A
:10256000F28302E0C91A006889B210B14389994226
:10257000F8DA02B111807047F3E72DE9F84F904681
:10258000444600276FF00F05DFF8449130B909F198
:10259000580340F2B3420FF2B82106E049B909F1FD
:1025A000580340F2B4420FF2C021FFF796FF2846CD
:1025B00035E0038993420AD209F1580340F2B5424B
:1025C0000FF2C021FFF789FF4FF0FF3027E00FF235
:1025D000D42A0E46054615E035B909F1580340F2F4
:1025E000BD425146FFF779FF6889A346584538BF79
:1025F000834668685A46F11901F0CEFB2D68A4EBBA
:102600000B045F44002CE7D1474507D009F158037C
:102610004FF499620FF2A421FFF75FFF0020BDE89D
:10262000F28FF8B50D4616466A461946FFF7A4FF25
:1026300004002BD0BDF80010208937467918884255
:1026400024DBBDF800006189884208D320480FF2DE
:10265000842100F1580340F2E342FFF75FFB6089F9
:10266000BDF80030C11AB942BCBFC71ABFB260681A
:102670003A462946184401F08FFBF61BB0B238B138
:102680002068B2B2E919FFF778FFF2BD4FF0FF30D2
:10269000F2BD000038B515460A462989FFF72EFC21
:1026A000040001D1002032BD2946FFF79BFE40B156
:1026B000DFF81C008DA100F1580340F22452FFF70F
:1026C0002DFB204632BD00001F01022038000020F3
:1026D00020140108B11E00081CB514466A46FFF715
:1026E0004BFF30B1BDF80010428991423CBF4068B9
:1026F000445413BD706275665F616C6C6F633A2001
:102700006572726F6E656F75732074797065000005
:10271000696E76616C696420706275665F74797049
:1027200065000000706275665F7265616C6C6F6356
:102730003A207020213D204E554C4C007062756649
:102740005F7265616C6C6F633A207120213D204E91
:10275000554C4C006D656D5F7472696D20726574C7
:1027600075726E65642071203D3D204E554C4C00C5
:102770007020213D204E554C4C000000696E637264
:10278000656D656E745F6D61676E697475646520F3
:102790003C3D20702D3E6C656E00000070627566D9
:1027A0005F667265653A20702D3E726566203E2038
:1027B00030000000696E76616C6964207062756635
:1027C000207479706500000070627566207265661D
:1027D000206F766572666C6F77000000702D3E6E1C
:1027E000657874203D3D204E554C4C006F666673F5
:1027F00065745F746F203C3D20705F746F2D3E6C7C
:10280000656E00006F66667365745F66726F6D203B
:102810003C3D20705F66726F6D2D3E6C656E0000F2
:10282000705F746F20213D204E554C4C000000001D
:10283000706275665F636F70795F706172746961F1
:102840006C3A20696E76616C69642062756600007E
:10285000706275665F74616B653A20696E76616C53
:102860006964206275660000706275665F74616BF2
:10287000653A20696E76616C696420646174617088
:1028800074720000706275665F74616B653A2062F5
:102890007566206E6F74206C6172676520656E6F5F
:1028A00075676800706275665F74616B653A206970
:1028B0006E76616C6964207062756600646964207C
:1028C0006E6F7420636F707920616C6C206461742A
:1028D00061000000636865636B20706275665F73FA
:1028E0006B697020726573756C7400007062756638
:1028F0005F636F7079206661696C65640000000039
:1029000080B506F0FBFFC0F30D00DFF8C418A0F59A
:102910008040088001BD000010B50446207D0128DC
:1029200040F00880DFF8AC0805A100F12803D422AC
:10293000FFF7F4F92146BDE810400120FFF772BA15
:102940007463705F667265653A204C495354454E16
:102950000000000080B500F02EFEDFF84C0C01787E
:10296000491C0170C80703D5BDE8014000F042BC16
:1029700001BD00002DE9FE4304000D46DFF8548838
:1029800040F0078008F128034FF4AF7274A100F003
:1029900025F9217DDFF8146C002D42D0042918BFE1
:1029A00007293ED1A06F002804BF208DB0F5066F27
:1029B00037D0A07EC10606D408F128034FF4B272C6
:1029C0006FA100F00BF9208B0290221DE18A00928A
:1029D00001912346626A216D2046FEF74CFC204699
:1029E00000F0D8FF3069A04203D1C068306106E032
:1029F000084620B1C168A142FAD1E168C160002057
:102A0000E0600121DFF81C2C31701068A04204D175
:102A100005F0C9F80020BDE8FE832046FFF77CFFE3
:102A2000F8E719B1022955D013D35BE0E08A0028FA
:102A3000F3D0B068A04203D1C068B06006E0084699
:102A400020B1C168A142FAD1E168C1600020E06014
:102A5000E3E794B908F1280340F211125CA100F0F9
:102A6000BDF80020017D012900F0078008F128034E
:102A70004FF4897249A100F0B1F801270FF23869CB
:102A800059F8270005686CB908F12803FF2208F1FE
:102A9000740100F0A3F805E0E86FA04204BF002134
:102AA000E967ED68002DF7D17F1C042FE8D321469C
:102AB00006F10C0000F09EFF207D012805D108F1F1
:102AC0002803DF223BA100F089F821460220FFF70E
:102AD000A9F99FE7214606F1100000F08BFF0120C5
:102AE00030709AE72046BDE8FE4300BF38B50500C8
:102AF00040F00980DFF8DC0635A100F128034FF42F
:102B0000CE72FFF70BF9287D032804D004280AD0E1
:102B1000072813D019E02846FDF7D8FF040007D195
:102B20000520287505E02846FDF7D0FF0400F7D002
:102B30006CB92846FEF78BF8204632BD2846FDF7D3
:102B4000C5FF0400F4D10920EBE7002032BD14F1E9
:102B5000010FF1D1688B40F008006883F5E70000B1
:102B60007463705F636C6F73655F73687574646FB3
:102B7000776E3A20696E76616C69642070636200DA
:102B80007063622D3E666C61677320262054465F39
:102B90005258434C4F534544000000007063622D6F
:102BA0003E7374617465203D3D204C495354454E3D
:102BB000000000007463705F667265655F6C697326
:102BC00074656E3A20214C495354454E0000000074
:102BD00070636220213D204E554C4C004046FFF76B
:102BE0009DB8000080B558B9DFF8BC0B0AA100F110
:102BF00028034FF4F472FFF791F86FF00F0002BD55
:102C0000017D012903D0418B41F010014183012155
:102C1000BDE80440AEE600007463705F636C6F73E0
:102C2000653A20696E76616C6964207063620000A9
:102C300010B5040040F00980DFF86C0B13A100F11F
:102C4000280340F2072200F07FBD207D012819D023
:102C500089B1608B40F01000608322B101212046D1
:102C6000BDE8104086E6A06F18B1FFF7F9FA002022
:102C7000A067002010BD002AFBD0C01E0128EED99D
:102C8000001FECD06FF00A0010BD00007463705F8D
:102C900073687574646F776E3A20696E76616C69DB
:102CA00064207063620000002DE9F84F040084B0D6
:102CB0008B46DFF820050AD10DF1140DBDE8F04F69
:102CC00000F1280340F23D222DA1FFF727B8217D16
:102CD000012907D100F1280340F2412200F19C01B3
:102CE000FFF71CF8217DDFF8C4780A2909D12146B5
:102CF00007F1140000F07EFE204605B0BDE8F04F5D
:102D00000AE6206D03900025666AD4F890A0D4F8F6
:102D10001080E08AA94621B960B100F05DFAE56053
:102D200008E08146214607F1100000F063FE012013
:102D30005D463870206F08B100F0B7FCE06E08B156
:102D400000F0B3FC606F08B100F0AFFC5DB1208B08
:102D50000290211D0091CDF804902346039932463C
:102D60002046FEF788FA2046FFF7D6FD5FEA0A0004
:102D700003D06FF00C014046D04705B0BDE8F08F9E
:102D80007463705F6162616E646F6E3A20696E7623
:102D9000616C69642070636200000000012183E7B8
:102DA000F8B505460C00134608BFDFF8E44BDFF822
:102DB00024044DB900F1280340F2A92222A1FEF714
:102DC000ADFF6FF00F00F2BD297D51B100F1280376
:102DD00040F2AB2200F1D001FEF7A0FF6FF005003A
:102DE000F2BD180006D100F041F903001DD16FF0CB
:102DF0000100F2BD00270FF2C02656F82700026836
:102E000000E0D26872B1D08A9842FAD13AB1116822
:102E100029B124B12068002818BF8142F1D16FF098
:102E20000700F2BD7F1C042FE7DB002C1EBF2068CB
:102E300000282860DFF87407EB828168E96085600C
:102E400006F0C2FD0020F2BD7463705F62696E64BB
:102E50003A20696E76616C696420706362000000DC
:102E600010B50C0040F00980DFF8680306A100F1FE
:102E7000280340F20F32FEF751FF2046FFF78EFF86
:102E80006FF00C0010BD00007463705F61636365D8
:102E900070745F6E756C6C3A20696E76616C6964F3
:102EA0002070636200000000F8B506461446002555
:102EB000C84856B900F1280340F2593200F1F80130
:102EC000FEF72CFF6FF00F0045E0317D51B100F1AE
:102ED000280340F25A3200F59471FEF71FFF6FF09D
:102EE0000E0038E00220FEF76FFF050008BF4FF02C
:102EF000FF3030D03069DFF8B47628610120F18AE4
:102F0000E9822875717D69750021707A687229726D
:102F1000F07AE872B17AA97232682A60F08A70B1E8
:102F2000B868B04203D1C068B86006E0084620B176
:102F3000C168B142FAD1F168C1600020F06030464A
:102F4000FFF7EAFCDFF8840BA861F968E960FD602F
:102F500006F03AFD002004B120702846F2BD0000C2
:102F6000F8B50400DFF8405808D105F1280340F215
:102F7000A63205F5B0712846FEF7D0FE218D666AAF
:102F8000628E701840F23147BA42E36AA8BF4FF42C
:102F90008662C01A821A01D46185F2BDF01A002837
:102FA000C8BF00260CDC9E1BB6F5803FC0F0088031
:102FB00005F1280340F2B63203A12846FEF7AEFE23
:102FC00066850020F2BD00006E65775F7263765FF4
:102FD000616E6E5F776E64203C3D20307866666679
:102FE0006600000038B504000D46DFF8900B0AD1EA
:102FF0000DF1040DBDE8304000F1280340F2CF325E
:1030000014A1FEF78BBE217D012907D100F1280311
:1030100040F2D33200F5C271FEF780FE208D2D18EC
:10302000ADB240F661018D4201DA854201DA4FF41A
:10303000066525852046FFF793FFB0F5067F08D388
:10304000608B40F0020060832046BDE83240FDF70F
:10305000FEBD31BD7463705F7265637665643A204E
:10306000696E76616C6964207063620070B50022DD
:1030700011A3574C2088401C4FF6FF7581B2A9421E
:1030800008BF4FF44040208000252088E9B253F863
:103090002110096800E0C96849B1CE8A8642FAD198
:1030A000521C90B2B0F5804FE4DB002070BD6D1C67
:1030B000E9B20429EADB70BD3400002030000020B2
:1030C000380000203C0000202DE9F04104001F469C
:1030D0006FF00F053F4806D100F1280340F235425A
:1030E0000FF6C42106E041B900F1280340F2364250
:1030F0000FF6D021FEF712FE66E0237D53B100F1FA
:1031000028034FF4876200F5D671FEF707FE6FF0D3
:1031100009005AE0086860602283207A10B1FEF747
:1031200022FC02E0201DFEF773FC050003D021689D
:1031300031B9281D02D16FF0030046E068682060B5
:10314000B4F81680B8F1000F06D1FFF78FFFE082C8
:1031500010B96FF0010038E0204600F0A5FC002116
:1031600004F148066162B060221D401E6064306157
:1031700070614FF40660616A60852085E16230838A
:1031800029464FF40670608600F0A2FC608602219A
:103190000120308037642046FDF7BFFC050013D1C5
:1031A0000220B8F1000F2075DFF8007403D000F0A2
:1031B00013F80020E0603869E0603C6106F004FC30
:1031C0000120387000F02BFA2846BDE8F08100009D
:1031D000D4010020F0090108B868A04203D1C068FA
:1031E000B8607047084620B1C168A142FAD1E168D1
:1031F000C16070472DE9FE4FDFF8B063DFF8A8A586
:103200007068401C70607078401C707028E0A842A4
:1032100007D00AF1280340F271520AF53F7100F01D
:10322000C7F9E8683061B8F1000F0BD0288B029025
:103230002A1DE98A009201912B466A6A2169284673
:10324000FEF719F82C692846ED68FFF765FB0020AA
:1032500030705FB16FF00C012046B847307828B16C
:1032600035694FF0000901E0A946ED68002D00F036
:103270005C81287D38B90AF1280340F2BE420AF584
:10328000EE7100F095F9287D012807D10AF1280395
:1032900040F2BF420AF5027100F08AF9287D0A283F
:1032A00007D10AF128034FF498620AF50D7100F076
:1032B0007FF97078A97F8142D6D0A8774FF0000BB4
:1032C000287D0228D84605F1400405F1980706D16B
:1032D000A0780628A8BF4FF0010B80F29E80A0784E
:1032E0000C2819DA7878002840D0206B38B10AF120
:1032F000280340F2D4420AF5197100F059F9E06A46
:1033000038B90AF1280340F2D5420AF5267100F0D7
:103310004FF9B8780C2802DB4FF0010B70E0797898
:103320000FF60C20014411F8010C39788142BCBF22
:10333000491C39703978814262DB218C002928468A
:1033400004D1FEF73DF800285AD107E0FDF703FB52
:1033500020B92846FDF77BFC002851D087F8008073
:10336000787806284CD8401C787049E0B5F93000D0
:10337000010005D447F6FF7290421CBF401C28860E
:10338000B5F93000B4F90010884239DB2846FDF762
:10339000E3FD18B1206B98BBE06A88B3287D022852
:1033A00014D0A078B5F93C10B5F93E200C2802EBFA
:1033B000E10228BF0C200FF66811085602FA00F04F
:1033C00047F6FF718842A8BF0846208005F14000FB
:1033D00005F14001A5F8308000890A8C698E904281
:1033E00088BF1046490040088BB2984238BF084653
:1033F0006081688E2081A4F82A802846FDF7E6FDCA
:10340000287D062809D1A87EC10606D57068296ADC
:10341000401A292828BF0BF1010B687A010728D52B
:10342000287D042818BF072823D17168286ADFF88F
:103430005027081A616D52184FF4FA73B2FBF3F378
:10344000834204D20BF1010B4FF0010811E0FA782E
:10345000DFF8303703FB02114FF4FA72B1FBF2F1DF
:10346000814206D22846FDF77DFF10B9F878401C4E
:10347000F870606B60B17068296AB4F900200623A7
:10348000401A12FB03F3984224BF284600F082FB47
:10349000287D03280BF1010104D170682A6A801A83
:1034A000292805E0092805D170682A6A801AF128C0
:1034B00028BF8B465FFA8BF0B0B1276D284600F02D
:1034C00069FAB9F1000F30693FF4A1AE854207D126
:1034D0000AF1280340F26D520AF5347100F068F8E1
:1034E000E868C9F80C009EE6A94699F81C0099F80E
:1034F0001D10ED68401C89F81C00C0B2884213D32F
:10350000002089F81C003070D9F88C204AB1D9F815
:10351000100049469047317800297FF4A1AE002879
:1035200002D14846FDF793FBA0E675694FF000090C
:103530000FE0A84207D00AF1280340F2B3520AF57F
:10354000607100F035F8E86870612846ED68FFF7B3
:10355000E3F93DB3287D0A2807D00AF1280340F299
:10356000A1520AF54A7100F023F87068296A401ADE
:10357000F12814D3284600F00DFA7069B9F1000F54
:10358000D7D0854207D10AF1280340F2AF520AF59D
:10359000567100F00DF8E868C9F80C00D5E7A946A7
:1035A000ED68D6E7BDE8F78F200102202800002053
:1035B0005046FEF7B3BB70B5DFF8CC556878401CB9
:1035C00068702C6920E0A077608BC10706D500F0F9
:1035D00023F8608B4FF6FC7108406083608B010715
:1035E00006D54FF6F772104060832046FFF77EFA4B
:1035F000E668A06F38B100212970204600F014F869
:1036000028780028DDD134462CB16878A17F81422A
:10361000D9D1E468F8E770BD40F00200608320462D
:10362000FDF715BB080002202DE9F04104000AD186
:1036300000F084F940F2096200F56A71FEF76EFB52
:103640006FF00F002FE0A76FD4F884507E7B00202E
:10365000002DA06703463A46214602D02069A847BC
:1036600001E000F056F801006FF00C0812D1B0062E
:1036700018D5208DB0F5066F1CBF401C2085D4F8EE
:1036800084507DB12069002300222146A84740458F
:1036900008D101E0404501D1404604E0A7676FF042
:1036A000040000E00020BDE8F08110B5002803E030
:1036B000046800F003F82000FAD110BD10B5040032
:1036C00009D0606808B1FEF7CBFD2146BDE8104087
:1036D0000320FEF7A7BB10BD38B5050009D1DFF800
:1036E0009C040FF2FC4100F1280340F28262FEF7D5
:1036F00015FB0320FEF768FB040001D1002032BD5A
:103700001022294600F048FB6068FEF711FE2046B3
:1037100032BD10B50800144607D123480FF2DC4132
:1037200000F128034FF4D3620EE03CB12189FFF78A
:1037300059FC2046FEF794FD002010BD002BFBD164
:10374000BDE81040FFF74EBAFEF7E8FA6FF00F0041
:1037500010BDB0B5082818BF0928044608D0124883
:103760000FF2B44100F1280340F2DD62FEF7D6FA11
:10377000DFF8143418695F680021002209E0057D34
:10378000A54205D1056A7D1B8D4224BF294602460C
:10379000C0680028F3D12AB1BDE8B040002110462E
:1037A000FFF782BAB0BD0000F0090108F8B506467F
:1037B00000F085F80400DFF8D05358D128690028BC
:1037C0000AE0418BC4680A0705D54FF6F773194024
:1037D0004183FFF78BF92000F3D168696C68002200
:1037E000002106E0036AE31A934224BF1A46014609
:1037F000C0680028F6D111B10846FFF7CFFA00F0F3
:103800005EF8040033D10920FFF7A3FF00F057F85A
:1038100004002CD10820FFF79CFF00F050F80400B2
:1038200025D1802EA8BF7F2001DA30001CD0421E97
:103830002869D2B20023002110E0447D944207DBC6
:103840000BD16F68D0F820C0A7EB0C079F4204D3C0
:103850006968036ACB1A01462246C0680028ECD189
:1038600011B10846FFF79AFA00F029F8044624B38C
:103870009C21204606F060F904F1480066754FF47B
:10388000866181834FF40662628522854FF4067358
:10389000FF22E27263860622A4F84020E287012319
:1038A0004FF0FF32228603806A6822626B78B74A43
:1038B000A3774180C264B649C1632046F2BD0120AE
:1038C000FEF782BA00BF402070E700B10161704787
:1038D00038B50C4668B100F114052878012807D1E5
:1038E00000F02CF840F2DF7200F57471FEF716FA62
:1038F0002C6731BD38B504000D460CD0207D012861
:1039000007D100F01BF840F2F37200F57E71FEF76C
:1039100005FAC4F8805031BD38B50C4668B100F1E5
:1039200014052878012807D100F008F840F60D02A8
:1039300000F58461FEF7F2F9EC6731BD8F4800F1C4
:103940002803704718B1027D012A08BF81617047C2
:1039500070B504000D461646884809D1BDE8704090
:1039600000F1280340F63D020FF2BC21FEF7D6B964
:10397000217D012907D100F1280340F63E020FF214
:10398000C021FEF7CBF9C4F88C50667770BD0000FB
:103990003433010838B504000BD101B0BDE8304024
:1039A00076480FF2BC2100F1280340F65102FEF7E1
:1039B000B5B9207D00281CBF0A28012819D004F1C0
:1039C0006805286918B1FEF74BFC00202861E868FB
:1039D00010B1204600F0DEF84FF0FF302086686816
:1039E000FFF763FEA868FFF760FE00206860A8602C
:1039F000288031BD70B50C000546604E07D106F138
:103A0000280340F683020FF2742100F04AF83DB912
:103A100006F1280340F684020FF27C2100F041F801
:103A20002868A04203D1C068286006E0084620B19B
:103A3000C168A142FAD1E168C1600020E06020467F
:103A4000FFF7A8FF207D0A2809D0012825D0608B28
:103A5000C10704D5FFF7E0FD207D01281DD0D4F873
:103A60006C0030B106F1280340F6930292A100F0F9
:103A700018F8D4F8700030B106F1280340F694022B
:103A800093A100F00EF8D4F8740030B106F12803C9
:103A900040F6960295A100F004F800202075E0821F
:103AA00070BD3046FEF73AB980B540B9DFF8CC00BA
:103AB00094A100F1280340F6AF02FEF72FF9324A35
:103AC000906951680818906102BD0000612E0008DD
:103AD00038B505460C463AB9FFF730FF40F6C50247
:103AE00000F58961FEF71AF9002C1CBF208D002813
:103AF00007D02828CCBF2838002080B2854288BF54
:103B00000546284632BD70B505000C4609D1FFF7C1
:103B100015FF4FF4106200F58E61FEF7FFF800E02C
:103B2000344644B120682968E668884204BF2046CC
:103B3000FFF734F9F4E770BD70B504001CBF2068CE
:103B400000280D4618D0104E31692046FFF7DBFFE4
:103B5000B1682046FFF7D7FF002D1CBF286800285A
:103B60000AD0F06806E001682268914204BF2B6821
:103B70000360C0680028F6D170BD0000F00901089C
:103B8000B84C0A00F82401002800002000DD6D0078
:103B90001337000810B50446606F18B1FFF785FDB4
:103BA0000020606710BD00007463705F636F6E6E0D
:103BB0006563743A20696E76616C69642070636233
:103BC000000000007463705F636F6E6E6563743A2B
:103BD00020696E76616C696420697061646472004A
:103BE0007463705F7365675F636F70793A20696EA5
:103BF00076616C6964207365670000007463705FB0
:103C0000726563765F6E756C6C3A20696E76616C76
:103C10006964207063620000696E76616C6964207B
:103C200073746174650000007463705F706F6C6C16
:103C30003A20696E76616C696420706362000000EE
:103C4000696E76616C696420736F636B6574207351
:103C50007461746520666F7220706F6C6C00000078
:103C60007463705F7063625F70757267653A206934
:103C70006E76616C69642070636200007463705FCB
:103C80007063625F72656D6F76653A20696E76610A
:103C90006C696420706362007463705F7063625F5C
:103CA00072656D6F76653A20696E76616C69642025
:103CB0007063626C69737400756E73656E742073E3
:103CC00065676D656E7473206C65616B696E670006
:103CD000756E61636B6564207365676D656E747383
:103CE000206C65616B696E67000000006F6F736523
:103CF00071207365676D656E7473206C65616B69A7
:103D00006E6700007463705F6E6578745F697373CB
:103D10003A20696E76616C6964207063620000000D
:103D2000010203040506070707070707070000004D
:103D300003060C18306078000146000A40EA0120B2
:103D400080B270470146080200F47F000A0A40EA88
:103D5000016002F47F42104340EA1160704730B4C2
:103D6000002513E050F8042BD30744BFA9F1010349
:103D70009A18091F042942F8045BFAD213468C07EB
:103D800044BF15809B1CC90748BF1D7050F8041B19
:103D90000029E7D130BC70474AB1000011F8013B5F
:103DA000521E00F8013B1CBF11F8013BF8E77047B9
:103DB00080B505F0A3FDC0F30D00DFF88C15A0F56C
:103DC0008040088001BD2DE9F14F82B00E4640B918
:103DD000DFF878350FF28451DFF87405CF22FDF754
:103DE0009DFF46B9DFF868050FF2885100F14C03DA
:103DF000D022FDF793FF029841890829C0F2A880DC
:103E00004468DFF8507539687869DFF8448502F056
:103E100051F881462088FFF78FFF82466088FFF7C0
:103E20008BFFDFF824154C6800904FF0000B002545
:103E30000FE0002C1CBF206800282CD0796911F1FC
:103E4000010F1FBFB26810401140884223D0A34623
:103E5000E468002C47D0608A00998842F7D13EB9C7
:103E600008F14C03882208F198014046FDF756FFFF
:103E7000207A30B1796891F83420521CD2B2904245
:103E8000E5D1B9F1000FD4D1002C1FBF2068002864
:103E900079698842DBD1207C41070FD46DB1B9F13B
:103EA000000F0BD0786910F1010F07D170682968F5
:103EB000814203D02268824200D12546A08A504523
:103EC000C5D1606800281CBF39698842BFD1BBF1E9
:103ED000000F0ED0E168DFF87004CBF80C104168D9
:103EE000E160446005E02C0003D170687969884284
:103EF0002DD102980821FEF782F958B9A4B1A5691D
:103F00002DB3CDF800A0029AE06907F11003214615
:103F1000A84721E0404600F14C034FF4B8720FF27D
:103F20007041FDF7FBFE12E0B9F1000F0FD1387DB3
:103F300000F0F000E0280AD0B7F90C100298083120
:103F400009B2FEF78BF90298032103F056FF02989D
:103F5000BDE8FE4FFEF784B9BDE8F78F2DE9FC41BF
:103F600006000D4614461F466FF00F08DFF8E00309
:103F700006D100F14C034FF406720FF230410EE00F
:103F800035B900F14C0340F219220FF2384106E036
:103F90004CB900F14C0340F21A220FF24441FDF7F4
:103FA000BDFE404612E0307A10B1FDF7DCFC02E0C5
:103FB0002046FDF72DFD10B96FF0030006E00090DC
:103FC0003B4622462946304600F002F8BDE8F6811D
:103FD0007CB56FF00F06DFF8784330B904F14C037D
:103FE0004FF420720FF2144117E031B904F14C0381
:103FF00040F281220FF220410FE032B904F14C036C
:1040000040F282220FF22C4107E0069D55B904F1DF
:104010004C0340F283220FF23C412046FDF77EFE26
:10402000304676BD0468002C1ABF04F0F006E02E7E
:104030002C1D06D06E68B44202D06FF0030076BD2E
:1040400004460194009500F001F876BD2DE9F84F83
:10405000050084B099466FF00F04DFF8F47206D1C2
:1040600007F14C0340F2D1220FF2084127E05FEA4A
:10407000010806D107F14C0340F2D2220FF214419D
:104080001DE01000039206D107F14C0340F2D32249
:1040900007F1C00113E0DDF83CA0BAF1000F06D132
:1040A00007F14C034FF4357207F1E40107E00E9E6F
:1040B00056B907F14C0340F2D52207F58471384612
:1040C000FDF72CFE204656E0688A38B900222946C2
:1040D000284600F053F8002883464BD1B8F8080072
:1040E00000F1080189B281420CD308214046FEF755
:1040F00084F890B14FF4207208212220FDF7FEFED3
:10410000040002D14FF0FF3035E0B8F8080028B1C4
:1041100041462046FEF75EF900E0444660890828E3
:1041200008D207F14C0340F20E3207F5967138467B
:10413000FDF7F4FD6768688AFFF7FEFD38804846A2
:10414000FFF7FAFD78800020F8802089FFF7F4FD62
:10415000B8800296112001902046A97A039A009116
:104160005146EB7AFDF760FD834644451CBF20466F
:10417000FEF776F8584605B0BDE8F08FF8B504466E
:10418000154601B974495CB971480FF2283100F144
:104190004C0340F2B732FDF7C1FD6FF00F00F2BDE6
:1041A000694FD7F804C00026604600E0C06810B12F
:1041B0008442FBD1012628001ED100223B88581CD6
:1041C0004FF6FF75AB4208BF4FF440403880604661
:1041D0003D8800E0C06840B1438AAB42FAD1521C2E
:1041E00090B2B0F5804FE9DB1CE028001AD000291E
:1041F0000CBF0020086818E0634600E0DB68002B75
:10420000F5D09C42FAD0588AA842F7D10A681868BB
:10421000904218BF002918BF002A03D0002B18BFF6
:104220000028EBD16FF00700F2BD2060658216B95F
:10423000C4F80CC07C600020F2BD0000F8B504009A
:104240000D4616466FF00F07414808D100F14C03A8
:1042500040F235429DA1FDF761FD3846F2BD2DB912
:1042600000F14C0340F236429FA1F4E7608A30B976
:10427000002221462046FFF781FF0100EED1286889
:1042800031496060A682207C40F0040020744A68B6
:10429000104600E0C06818B18442FBD10020F2BD96
:1042A000E2604C60F2BD000038B9294895A100F1E8
:1042B0004C0340F28A42FDF731BD8161C261704713
:1042C000010008D1DFF8880094A100F14C0340F20E
:1042D000A142FDF723BD1C4842688A4203D1D2683F
:1042E000426008E0024632B1D0680028FAD0884225
:1042F000F8D1C868D0600020FDF794BD10B500204B
:10430000FDF762FD040004D0202105F01DFCFF2014
:10431000E072204610BDF1E7002800D1704730B5AB
:104320000268002A18BF00290DD00A685AB1064B4E
:104330005A6806E013680468A34204BF0D6815605C
:10434000D268002AF6D130BD44000020F41F0108D5
:10435000A81F010864000220343301087564705FEF
:10436000696E7075743A20696E76616C696420704C
:10437000627566007564705F696E7075743A206965
:104380006E76616C6964206E657469660000000079
:10439000706275665F72656D6F76655F6865616492
:1043A0006572206661696C65640A00007564705FFF
:1043B00073656E64746F3A20696E76616C6964200F
:1043C000706362007564705F73656E64746F3A2029
:1043D000696E76616C696420706275660000000029
:1043E0007564705F73656E64746F3A20696E766190
:1043F0006C6964206473745F697000007564705F39
:1044000073656E64746F5F69663A20696E76616C7D
:1044100069642070636200007564705F73656E6428
:10442000746F5F69663A20696E76616C69642070AA
:10443000627566007564705F73656E64746F5F6942
:10444000663A20696E76616C6964206473745F6992
:10445000700000007564705F73656E64746F5F69EF
:10446000663A20696E76616C6964206E657469666F
:10447000000000007564705F73656E64746F5F693F
:10448000665F7372633A20696E76616C696420704E
:10449000636200007564705F73656E64746F5F695A
:1044A000665F7372633A20696E76616C696420702E
:1044B000627566007564705F62696E643A20696E49
:1044C00076616C6964207063620000007564705FDF
:1044D000636F6E6E6563743A20696E76616C6964B1
:1044E00020706362000000007564705F636F6E6E21
:1044F0006563743A20696E76616C696420697061E5
:10450000646472007564705F726563763A20696EE8
:1045100076616C6964207063620000007564705F8E
:1045200072656D6F76653A20696E76616C6964209C
:104530007063620038B5044618204443DFF818570A
:10454000285918B1FDF78CFE002028512A190021A6
:10455000117531BD10B500241822DFF8FC16624336
:104560000A44107DF8B1508A401C508280B2B0F5E8
:10457000967F05DA107D012806D1518A042903DDD2
:104580002046FFF7D7FF0EE0032808BF042002D023
:10459000042802D10220107505E0012803D190689B
:1045A000111D00F057FB641C0A2CD5DB10BD2DE952
:1045B000F24F84B000240A2603900292ADF8044022
:1045C000B346B246B0460025DFF890960094182115
:1045D000DFF88406694347180FFA8AF23C7D0A2AFD
:1045E00004BF002CAA4637D0B4B3012C08D007DC96
:1045F00009F168034FF4927209F1280100F016FBEB
:10460000039840B101687A68914204D1029880B160
:10461000B96888420DD0012C15D138680028788AF5
:1046200009D0BDF80410884216D3A846ADF804009E
:1046300012E028B262E0BDF8021088420CD32E4688
:10464000ADF8020008E007DD788ABDF80010884266
:1046500024BFAB46ADF800006D1C0A2DB7DB9DF8FA
:104660001000039C029D810705D40FFA8AF10A29E4
:1046700004D1C00705D44FF0FF303FE00FFA8AFAAB
:1046800028DB0FFA8BF00A280DDA824600F039F8A1
:10469000885888B109F1680340F26D120FF2CC51CD
:1046A00000F0C4FA08E036B20A2EB2BFB2460FFAE2
:1046B00088FABAF10A0FDEDA5046FFF73BFFBAF18B
:1046C0000A0F07DB09F1680340F283120FF2B451BD
:1046D00000F0ACFA00F015F88E18307D38B109F111
:1046E000680340F2851209F1BC0100F09FFA0CB199
:1046F0002068706000217182B560504605B0BDE849
:10470000F08F1822DFF8501512FB0AF2704738B507
:10471000044600251822DFF840156A431144087D3D
:1047200028B18868A04204BF2846FFF703FF6D1C2C
:104730000A2DEFDB31BD2DE9F84380460C0086B031
:10474000DFF8180508D100F1680340F28A220FF261
:104750005851FDF7E3FA84E0D8F804703988B1F5D0
:10476000807F04BF3979062978D17979042904BF7B
:104770007988082972D107F10E0104AA0B68136029
:1047800007F1180105AA0B681360616821B18B421B
:1047900002D10125A94602E000254FF0020994F854
:1047A0003010062907D000F1680340F2A91200F189
:1047B000E801FDF7B3FA049898B3214601F07AFBBB
:1047C00078BB049800F0F000E0282AD02246494641
:1047D00004A8FFF7ECFE002823D41821DFF8782482
:1047E0004843161802203075B460062207F108010C
:1047F00006F10C00FFF7D0FA00207082D6F8009086
:10480000B9F1000F0DD030604FF40061009107F155
:10481000080304F12A02494600F060F84846FDF713
:104820001FFDF888B0F5807F07D0B0F5007F02BF8C
:1048300004A9204600F0FDFC10E07DB1022004A98F
:10484000231D0390029107F108020093019204F1E5
:104850002A0304F12A01204600F084F94046FDF7BE
:10486000FFFC07B0BDE8F0837CB504460D46182078
:10487000DFF8E41342438E18327D022A09DADFF8AA
:10488000DC0300F1680340F2EF2200F59871FDF7B8
:1048900045FA307D022816D1708A40F21D118842F7
:1048A00005DB311D204600F0D5F960B909E0B0F50F
:1048B000877F08DB06F10C02311D204600F0B9F9B4
:1048C00008B9032030754FF40061009106F10C0324
:1048D00004F12A0200F001F876BD2946204605F0D1
:1048E00085B92DE9FF410400174688463E46DFF8AA
:1048F0006C5308D105F1680340F21E320FF2A83163
:104900002846FDF70BFAB8F1000F08D105F168034E
:1049100040F21F320FF2A0312846FDF7FFF947B9E8
:1049200005F168034FF448720FF26C312846FDF729
:10493000F5F93868214601F0BDFA58B1C84B4FF47B
:104940000060009004F12A024146FFF7C7FF04B05F
:10495000BDE8F081386800F0F001E02915D10120B0
:104960008DF8040000215E228DF805108DF80620D8
:1049700001AB787800F07F008DF80700B8788DF8EB
:104980000800F8788DF80900D9E7A168636801EAA2
:10499000000219408A421EBF80B24FF6A9618842C8
:1049A00003D0E068E8B104F10C06AE4BDFF8A8C212
:1049B0001A781827104678430CEB0001097D02296C
:1049C00012DB0CF108010958A14201BF35680CF156
:1049D00004010858854207D141462046FFF744FFAD
:1049E000B5E76FF00300B2E700222046314607FB2F
:1049F00002F40CEB0406367D022E0ADB0CF10805EE
:104A00002E59864201BF0D680CF104063459A542A7
:104A100006D0521C0A2AEADB424600F007F896E765
:104A20001A704146D2B2D9E7000000002DE9F84FD4
:104A300082460D461446286851464FF0FF3901F072
:104A400039FACB46002738B9286800F0F001E02990
:104A500018BF002D00D010B96FF00F007CE0524657
:104A600001212846FFF7A3FD060048BF40B273D4DA
:104A70007F2EDFF8E88106D308F1680340F2C132E7
:104A800090A100F06BF8F6B20096324618217248F9
:104A90004A438618307D18B901273775C6F808A033
:104AA000307D012808D007DC08F1680340F2CF32DE
:104AB00008F5B07100F052F807B974B929465046AC
:104AC00000F0C8F8002C834645D006D108F16803F1
:104AD00040F2E13278A100F041F8307D01280FDD8D
:104AE000009860494FF400620092087006F10C03D0
:104AF0000AF12A022146504605F078F883462AE05A
:104B000029D1254673A700E02D68FDB16889298960
:104B1000884208D1286830B108F1680340F2F132C8
:104B2000394600F01BF8287B4106EDD522464FF4AC
:104B300020710E20FDF7AEFD04465CB1306808B16F
:104B4000FDF78EFB34604FF0000B04E02046FDF7CC
:104B5000EFFBF2E7CB465846BDE8F28F4046FDF743
:104B6000DDB800002DE9FC4704000E469246984649
:104B7000DFF8E89040F0078009F1680340F25742FF
:104B800049A100F053F84FF420721C210E20FDF7CC
:104B9000B5F9050008BF4FF0FF3045D068891C28E3
:104BA00007DA09F1680340F2634209F5C47100F0C5
:104BB0003DF80D986F68FFF7BFF8F88094F8300063
:104BC000062807D009F1680340F26A4209F5DE7150
:104BD00000F02CF80622414607F10800FFF7DCF848
:104BE0000B99062207F11200FFF7D6F80A9802681F
:104BF00007F10E0153460A6007F118010C9802688C
:104C00000A6008204FF480723A807880062139715A
:104C10000420787140F6060100913246FFF75DFEF0
:104C20002846FDF71DFB0020BDE8F6874846FDF746
:104C300075B838B584B0012303930291051D0A4C61
:104C40000194009500F12A0300F12A01FFF78AFF81
:104C500005B030BD024AECE7FCF50120E41801087C
:104C6000589C00081E010220143301086172705F15
:104C70007461626C655B695D2E71203D3D204E550F
:104C80004C4C000069203C204152505F5441424C42
:104C9000455F53495A450000697061646472202180
:104CA0003D204E554C4C00006E6574696620213DD8
:104CB000204E554C4C0000007120213D204E554C9B
:104CC0004C00000074797065206F766572666C6FB9
:104CD000770000006E6F207061636B6574207175E2
:104CE0006575657320616C6C6F77656421000000E9
:104CF00038B5DFF8544A207820BBA06830B100F006
:104D00001EFDE52200F12801FDF708F8FFF7F6FA8D
:104D1000A06010B94FF0FF3032BD417ADFF82C5A55
:104D200041F02001417244222946FFF727FAA0688A
:104D300043222946FFF782FAA0680FF68D21002250
:104D4000FFF7B2FA2078401C2070002032BD10B569
:104D5000DFF8F449207830B900F0F1FCFF2200F1CF
:104D6000A401FCF7DBFF2278501E2070C0B220B9EE
:104D7000A068FFF7A5FA0020A06010BD38B5044672
:104D80000821656A00F019FB002205F11C0120468C
:104D9000FFF74CFEA879FF281CBF401CA87101201A
:104DA000288131BD2DE9FE430400DFF8A40909D1B3
:104DB00000F1500340F2771233A1FCF7AFFF6FF020
:104DC0000F005EE0656A4DB900F1500340F27912C0
:104DD00034A1FCF7A3FF6FF0050052E0012100F0C1
:104DE000ECFA02AB0322294600F024F906003ED07B
:104DF000706800F0D8FAADF808004946228D00F03E
:104E0000ADFCADF8080000F0F3FBADF8080000279A
:104E1000E869FEF797FF00F05AF8ADF808000423A0
:104E20003622494600F061FCADF80800A869FEF79B
:104E300089FF00F04CF800F043F8ADF8080000F0EE
:104E4000ABFA00F09FFAFAD33246BDF8080000F042
:104E5000A0FA00F091FA00944323D8F808003146F4
:104E6000FFF7F4F804463046FDF7FAF901E04FF099
:104E7000FF34A879FF281CBF401CA87100F067FA16
:104E80002046BDE8FE830000646863705F73656C54
:104E90006563743A206E6574696620213D204E5525
:104EA0004C4C0000646863705F73656C6563743AB2
:104EB000206468637020213D204E554C4C0000005A
:104EC000ADF8080004233722494600F00EBC024624
:104ED000BDF80800494600F058BC2DE9FC4EDFF84B
:104EE0007408DFF874980468DFF85CB81EE0C889BD
:104EF000D8B1421ECA8118D1656A687901281CBFE1
:104F00000A28052811D1204600F0CEFAA989688A1E
:104F100000F089F809DBE98107E014214180708AFB
:104F2000B18A00F080F8A8BF31822468002C78D0C4
:104F3000616A00291CBF48790028F6D0888A60B1D0
:104F40004A8A521C4A8292B2824206D1204600F01E
:104F50006AFB204600F0F2F8E7E7088A0028C6D08E
:104F6000421E0A82C3D1666A7079012818BF0A28D6
:104F700003D0052818BF0428D7D1042100F0DDFA9A
:104F800001AB032200F055F8050035D0686800F148
:104F9000F00ABDF8040002233922514600F0A5FBB7
:104FA000ADF804005146228D00F0D8FBADF80400A6
:104FB00004233722514600F098FBADF80400002787
:104FC000F8B2584451460279BDF8040000F0A5FB40
:104FD00000F0A8FAF4D3BDF804002A46514600F0C8
:104FE000A9FEDBF80800009443234A462946FEF751
:104FF000EFFF2846FDF734F9B01D0178FF291CBFEB
:10500000491C017001780A2987DA4FF47A7311FB81
:1050100003F189B201F2F3114FF4FA7291FBF2F14C
:105020007CE7BDE8F38E081A00EBD0714910012926
:1050300070473146204600F0F1BD10B5DFF8140787
:10504000046803E0204600F045F92468B4B3606AC0
:105050000028FAD00189022902DB491E0181F4E708
:105060000129F2D100210181606A41790C2918BF20
:105070000629E7D001290CD180790528204602DCD9
:10508000FFF790FEE1E700F0CEFA204600F056F878
:10509000DBE7082909D180790228204602DAFFF7E8
:1050A0006DFED2E700F08BF9CFE70329CDD18079EF
:1050B00002282046C7DA00F042FAC6E710BD38B52C
:1050C000456ADFF8544B002028626862E07808B136
:1050D000A069A8622079002812BFE069A86A400888
:1050E000E8626079002811BF206AA86AC0EBC0009E
:1050F000C00828630869E861A07920B1606AFEF7FA
:1051000021FE28620120E871E07918B1A06AFEF75B
:1051100019FE68620025E9B26018007A68B104EBF4
:105120008101C86AFEF70EFE00906946E8B204F0FD
:1051300098FD6D1CE8B20228EDDB31BD38B50500E5
:105140006FF00F04DFF8080606D100F1500340F2BB
:10515000E7220FF6902109E095F83110CA0709D42B
:1051600000F150034FF43A7200F1EC01FCF7D6FD68
:10517000204632BD288D6C6AB0F5107F25DB34B92E
:10518000342004F09BFA04001FD06C6203E0207905
:1051900008B1FFF7DCFD3421204604F0CDFCFFF719
:1051A000A7FD90B90120207195F83110480705D46A
:1051B0000221204600F091FA002032BD284600F07E
:1051C00089F820B1284600F02EFA4FF0FF3032BDAA
:1051D000009543232146FEF7FBBEDFF874050FF66A
:1051E000042100F15003704738B505466C6AFCB1E4
:1051F000607901001CD0C11E022901D9C91F05D147
:105200000023A3712846BDE8324098E10D2809DB50
:10521000DFF83C050FF66C3100F1500340F26D32BF
:10522000FCF77CFD0020A0712846BDE8324051E02B
:1052300031BDFEB5040006D1FFF7CFFF40F28B323F
:10524000FCF76CFDF7BD666A300042D07279082A1F
:1052500002BF0968F06981423BD10C2100F06DF971
:1052600002AB0422FFF7E5FE05002AD0686800F1D2
:10527000F007BDF8080004233222394600F035FA61
:10528000ADF80800F069FEF75DFD0246BDF80800C4
:10529000394600F07AFAADF808002A46394600F09F
:1052A00049FD00944323DFF8A404DFF89C44DFF8B1
:1052B000A82401902946A068FEF7C8FE2846FCF7FE
:1052C000CFFFB01D0178FF291CBF491C01701421BC
:1052D0004180F7BD2DE9FE4306460022756AEA616A
:1052E000062100F06AF802AB01222946304600F0A0
:1052F00095FC040021D0606800F055F8ADF8080076
:105300004946328D00F02AFAFFF7DAFDADF80800C1
:10531000002700F041F800F035F8FAD3BDF8080096
:1053200000F036F800F028F800964323D8F808007B
:105330002146FEF78BFE00F0FCF8A879FF281CBF81
:10534000401CA87100F003F80020BDE8FE83A97995
:10535000062909DA012202FA01F14FF47A70414379
:1053600089B201F2F31101E04EF653414FF4FA70A5
:1053700091FBF0F028817047DFF8D003DFF8D823E5
:1053800001907047ADF808007F1CF8B20428704700
:105390002246494600F0CEBCF8B240444946027964
:1053A000BDF80800B9E1DFF8A08300F1F009BDF80D
:1053B000080002233922494697E128468DE13EB58F
:1053C0000400DFF88C0306D100F1500340F21542CF
:1053D0000FF6C41107E0656A45B900F1500340F2C9
:1053E00017420FF6D011FCF799FC37BD00206882F8
:1053F0004FF6FF71A86A10F1010F08D000F04EF8C7
:1054000088BF0846A882A88A08B90122AA82E86A49
:1054100010F1010F09D000F041F888BF084682B2B0
:1054200002B9012068816889E881286B10F1010FB9
:1054300009D000F033F888BF084682B202B90120D3
:10544000A881A8892882A8896A89824202D308B1E2
:1054500000206881E87908B1286A03E0287F802865
:1054600002DAFF20009004E0C028A8BF6FF07F415F
:105470000091696A0191080005D1E969009801402D
:1054800041F0807101910A21FFF797FF01AB6A4655
:1054900005F11C012046FCF7AAF937BD1E303C225D
:1054A000B0FBF2F0884270472DE9FE430546052126
:1054B00000F042F800F0B2F8040022D000F0A3F8A7
:1054C000ADF8040049462A8D00F048F9ADF8040013
:1054D000FFF7F8FCADF80400002700F08DF800F0AD
:1054E00021F8FAD3BDF80400FFF752FFD8F80800FE
:1054F0000095432306F11802FFF76CFE00F018F840
:1055000001E04FF0FF35B079FF281CBF401CB0719F
:10551000B0790A2804DA4FF4FA6200F05FF800E08C
:10552000282057E0ADF804007F1CF8B2042870472B
:1055300005462046FCF794BE6E6A3046CDE02DE964
:10554000FE4305460321FFF7F7FF00F067F804006C
:1055500030D000F058F8ADF804004FF4107249460E
:1055600000F0FCF8ADF8040000F042F8ADF80400DB
:105570000027F069FEF7E6FB0246BDF80400494645
:1055800000F003F9ADF80400FFF79CFCADF804004F
:1055900000F032F8FFF7C6FFFAD32246BDF8040048
:1055A000FFF7F7FED8F808006B4AFFF711FEFFF788
:1055B000BFFF01E04FF0FF35B079FF281CBF401C52
:1055C000B071B0790A2804DA4FF47A7200F006F864
:1055D00000E0142030812846BDE8FE8310FB02F075
:1055E00080B200F2F3104FF4FA7190FBF1F07047C3
:1055F00004233222494678E0F8B240444946027911
:10560000BDF8040089E06068DFF83C8100F1F00932
:10561000BDF8040002233922494666E001AB0322AB
:1056200031462846FAE2FEB50646746A002C1CBFD5
:105630006079002850D0A06902900021A161E16149
:10564000216261622163E162A162A18261822182A1
:10565000E181304600F086FB68B301AB07222146AA
:10566000304600F0DBFA050025D0686800F1F0074D
:10567000BDF8040004233622394600F036F8ADF8B0
:1056800004000298FEF75EFB0246BDF804003946AE
:1056900000F07BF8ADF804002A46394600F04AFBDA
:1056A000294880680096432302AA2946FEF790FC09
:1056B0002846FCF7D5FDDFF864160B460A4630464F
:1056C000FCF795F80021204600F007F8207918B182
:1056D000FFF73DFB00202071F7BD4379994203D0CD
:1056E00041710021817101817047F8B504461E4661
:1056F0003019801C45280D46174607D300F01FF8C7
:1057000040F29A5200F58871FCF708FB2F55641C93
:10571000A2B2641CAE54A0B2F2BD70B544280446D7
:105720000D46164607D300F00AF840F2A65200F5DF
:10573000AA71FCF7F3FA2E55641CA0B270BD0448A0
:1057400000F15003704700000000002034330108CE
:10575000A0160108B00002203833010870B50446D5
:10576000801C45280D46164607D3FFF7E8FF40F298
:10577000AE5200F5C671FCF7D1FA300A2855641C08
:10578000A0B2641C2E54A0B270BDF8B50446001D32
:1057900045280D46164607D3FFF7D1FF40F2B75212
:1057A00000F5E471FCF7BAFA320E2A55641CA1B276
:1057B000300C641C6854A3B2320A641CEA54A7B2C9
:1057C000641CEE55A0B2F2BD2DE9F44FDFF8500590
:1057D000426888B0506A08990390002849681CBF45
:1057E0000079002847D0089843892C2BC0F280818B
:1057F000087802281BD10020009209E0009A024498
:105800000C1892F82A30227F934210D1401CC0B26B
:10581000009A02F1240305931B7B984201DA0628C3
:10582000ECD34868FEF78EFA03990A68904240F07C
:105830005F81002006900A21DFF8DC0304F07CF988
:10584000089841892C29C0F053810899DFF8C89342
:10585000B1F808A0F02004E0012006906C204FF081
:10586000EC0A089C029005E0091A89B20291AAEBA1
:10587000000A2468002C00F03B8160890299814273
:10588000F2DA02A86168058804911FFA8AFA554580
:1058900032DB99F8000050B1D9F80C000022012841
:1058A00089F80020DAD0022805D00328D4D0069841
:1058B000002800F03B81002106912C204FF06C0A5B
:1058C000CFE79DF804000190012109F80610019826
:1058D000C8F80C0060898542D9DB2D1AAAEB0000BC
:1058E000ADB21FFA80FA554580F202812468002C7F
:1058F00000F01481606804900498405DFF28C8D0CF
:1059000005F1020B1FFA8BF1A9424FF0FF36C0F2EE
:10591000EF8061896A1C8A4203DA049A521951782D
:1059200003E0216809B14968097802000F4600F0D8
:105930009A8001287AD003286ED006284ED03328CA
:1059400043D034282CD0352821D0362816D03A28F8
:105950000BD03B2840F08480042908BF052668D07E
:1059600000F054F940F26162C0E0042908BF042647
:105970005FD000F04BF940F25D62B7E0042908BF48
:10598000022656D000F042F940F25962AEE00129F9
:1059900008BF01264DD000F033F940F25562A5E072
:1059A000012904D10298F02806D1002641E000F038
:1059B00027F940F24F6299E0DFF868030FF248419F
:1059C00000F1500340F2516290E0042908BF032621
:1059D0002FD000F01BF940F2416287E04A1001EB42
:1059E00092739B10B1EB830004D108290BDB0827CD
:1059F00008261EE0DFF82C030FF2F03100F150030F
:105A000040F2396272E0B942A8BF082611DA00F00C
:105A1000F1F840F23C6269E004270429A8BF072698
:105A200007DA00F0E7F840F233625FE0042910D1B2
:105A300006264819801CB0F5803F59DA4D19AD1C77
:105A4000002FADB211D000210FF2D4320191079294
:105A50001FE0B54B0FF27431B24840F22E6245E0C0
:105A600000270028E5D16D1CADB233E7012009F80D
:105A700006003F1F0198FEF765F9C8F80C001FFAF1
:105A80008BF20BF1040081B29142FFB230D3834616
:105A9000761C0A2E06D30799A34BA2484FF4CF6277
:105AA000FCF73CF919F806000028DED1042FB4BF3A
:105AB000B8464FF004081FFA8BF3424601A920466E
:105AC000FCF70EFD404513D1042F09EB860815DDC8
:105AD000791007EB91729210B7EB8200C6D0914813
