:020000040800F2
:10000000480C02208D8B0108095201080B5201088F
:100010000D5201080F5201081152010800000000A2
:10002000000000000000000000000000B502010810
:1000300013520108000000005D020108D9FC00080D
:10004000D98D0108DD8D0108E18D0108E58D0108DC
:10005000E98D0108ED8D0108F18D0108F58D01088C
:10006000F98D0108FD8D0108018E0108058E01083A
:10007000098E01080D8E0108118E0108158E0108E8
:10008000198E01081D8E0108218E0108258E010898
:10009000298E01082D8E0108318E0108358E010848
:1000A000398E01083D8E0108418E0108458E0108F8
:1000B000498E01084D8E0108518E0108558E0108A8
:1000C000598E01085D8E0108618E0108658E010858
:1000D000698E0108155201081F5201086D8E010832
:1000E000718E0108758E0108798E01087D8E0108D8
:1000F0002952010833520108818E0108858E0108BA
:10010000898E01088D8E0108918E0108958E010857
:10011000998E01089D8E0108A18E01083D520108AB
:10012000A58E0108A98E0108AD8E0108B18E0108C7
:10013000B58E010847520108B98E0108BD8E01082D
:10014000C18E0108C58E0108C98E0108CD8E010837
:10015000D18E0108D58E0108D98E0108DD8E0108E7
:10016000E18E0108E58E0108E98E0108ED8E010897
:10017000F18E0108F58E0108F98E0108FD8E010847
:10018000018F0108058F0108098F01080D8F0108F3
:10019000118F0108158F0108198F01081D8F0108A3
:1001A0000000000000000000218F01082DE9FE4F33
:1001B0000500002D08D1DFF87C3C8322DFF8D4173E
:1001C000DFF8D40701F03AFDDFF86C6C6868306046
:1001D0006889142804DA280001F0B5FFBDE8F78F1C
:1001E000DFF8B8773968786902F0C6FA002804D1D8
:1001F000387D10F0F000E02800D1ECE7306880890D
:1002000002F033FB80B2000B81000800C0B214285A
:1002100005DB28890A00D2B292B2904200D2DAE716
:10022000DFF87C470800C0B214382080DFF87487FC
:100230000020C8F8000068890A00D2B292B2904249
:1002400008D32088DFF860271080C9B2280001F0A9
:100250002DFF46E02868002808D1DFF8D83BC222ED
:10026000DFF84817DFF8300701F0E8FC1421280018
:1002700001F01CFFDFF830076989018021880488BC
:100280000C1B0188280001F011FF2868408921001B
:1002900089B288429FD328684068C8F800002100CE
:1002A00089B2286801F002FF2889041B2C81688923
:1002B000002808D0DFF87C3BDF22DFF8F416DFF8F7
:1002C000D80601F0BBFC288929680989884208D032
:1002D000DFF8603BE022DFF8DC16DFF8BC0601F057
:1002E000ADFC3068008802F0C0FA316808803068E0
:1002F000408802F0BAFA316848803168486802F0F4
:10030000BCFA31684860DFF84C1C086031688868C6
:1003100002F0B3FA31688860DFF83C8CC8F800005E
:100320003068C08902F0A1FA3168C88130688089DC
:1003300002F09BFA10F03F00DFF87C160870DFF83F
:100340001C9C2889A9F80000DFF86C06007810F0E2
:10035000030F0AD0B9F80000401CA9F80000B9F852
:10036000000029898842FFF436AF5FF0000BDFF808
:10037000F0ABDAF8004001E0A346E468002C67D057
:10038000207D002808D1DFF8AC3AFB22DFF82C16DC
:10039000DFF8040601F052FC207D0A2808D1DFF8BE
:1003A000943AFC22DFF81816DFF8EC0501F046FC61
:1003B000207D012808D1DFF87C3AFD22DFF8A41B5C
:1003C000DFF8D40501F03AFC207A002809D0207A21
:1003D000796891F83410491CC9B2884201D0A3460B
:1003E000CBE7208B316809888842C5D1E08A316823
:1003F00049888842C0D1606839698842BCD1206888
:1004000079698842B8D1E068A04209D1DFF8243A7E
:1004100040F20D12DFF8501BDFF87C0501F00EFCF6
:10042000BBF1000F07D0E068CBF80C00DAF8000051
:10043000E060CAF80040E068A04209D1DFF8F43972
:1004400040F21512DFF8C41BDFF84C0501F0F6FB93
:10045000002C71D1DFF8B80B046808E0207A7968C5
:1004600091F83410491CC9B2884212D0E468002CBB
:1004700028D0207D0A2809D0DFF8B83940F21F12B1
:10048000DFF8901BDFF8100501F0D8FB207A002878
:10049000E4D1208B316809888842E7D1E08A31684D
:1004A00049888842E2D1606839698842DED1206893
:1004B00079698842DAD1200000F01BFA280001F0A7
:1004C00042FE8BE60022DFF8503B186806E0002869
:1004D00023D00168002920D00200C06800281CD069
:1004E000017A00290CD0017AD7F804C09CF834C0F6
:1004F0001CF1010C5FFA8CFC614501D00200ECE7B5
:10050000C18AD6F800C0BCF802C06145E4D10168D8
:10051000D7F814C06145DAD1FFE700280CD0002AD3
:1005200004D0C168D1601968C160186000F043F957
:10053000280001F008FE51E6002C00F0F080DFF802
:100540008C7B00203860288938817D603068F860B5
:10055000DFF87C6B00203060DFF8788B002088F8B3
:100560000000DFF874BB0020ABF80000DFF848049F
:100570000078000703D5687B50F001006873A06F16
:10058000002813D0200003F055F810F10D0F06D00D
:10059000A06F00280AD0B9F80000002806D0608DAE
:1005A000002802D1200004F00BFFA9E0DFF82C5B4B
:1005B0002C60200000F006FA40B210F10D0F00F0A0
:1005C0009F8098F80000000711D5D4F8900000280B
:1005D00005D07FF00D012069D4F8902090472100CC
:1005E000504603F083FA200002F07DF988E00020F5
:1005F000BBF80000002815D0BBF80020D4F880001C
:10060000002806D092B221002069D4F880309847A3
:1006100000E000207FF00C0140B2884270D0002042
:10062000ABF80000200000F09BF8002868D130688B
:10063000002833D0A06F002809D0DFF8F8374FF436
:10064000F372DFF89C1ADFF8500301F0F7FAA07E8E
:10065000C00606D5306801F076FD200002F08BFB65
:100660004EE0D4F88400002807D00023326821002F
:100670002069D4F884C0E04705E0002332682100F7
:10068000002003F06CF801007FF00C0249B29142A7
:1006900036D040B2002801D03068A06798F800003A
:1006A000800608D5A06F00280DD0A06F407B50F0C9
:1006B0002000A16F487300202860200000F050F84F
:1006C00000281AD01CE0208DB0F5066F02D0208DD6
:1006D000401C2085D4F88400002807D00023002285
:1006E00021002069D4F884C0E04700E000207FF0BA
:1006F0000C0140B28842DED102E0200004F0E4F9AF
:100700000020DFF8D81908600020306078680028E1
:1007100025D0786801F017FD002078601FE0306870
:10072000808902F0A2F8400716D430680088029051
:1007300030684088019017F11000009017F1140301
:10074000DFF810080068B9F8001010FA81F2D8F844
:100750000010002004F0EBFD280001F0F4FC3DE562
:1007600010B50400002C08D1DFF8C83640F25A2238
:10077000DFF87019884801F061FADFF8580900784D
:10078000C00616D5A07EC00609D4D4F89000002873
:1007900005D07FF00E012069D4F890209047210009
:1007A000DFF8BC0703F0A2F9200002F09CF801205A
:1007B00000E0002010BDFEB505007F4C207840070A
:1007C00000F19680002D08D1DFF8683640F28122D2
:1007D000DFF81419704801F031FA2078C0061BD5F3
:1007E0006E48DFF854160A68128802920968498830
:1007F000019110F11001009110F11403DFF854077A
:100800000068DFF8581709884218DFF84C070168BC
:10081000280004F08CFD6BE02078800768D5687DA7
:1008200003F05EF80400002C0CD1A869002806D063
:100830005FF0FF3200212869AB69984701E07FF043
:100840000F0055E055484169216000696060E88A01
:10085000E082DFF8E465306800882083032020759B
:10086000DFF8F0763868401C6062606AE062200061
:1008700003F0A0F9A06520656064E0653868401E5B
:10088000606528692061E567687A10F00C00607285
:10089000287A2072DFF8C8060168E160046004F07D
:1008A000E4FE0120DFF844180870200001F038F958
:1008B0003068C089A4F86000B4F86000A4F8620051
:1008C000201D04F0C1FF0100221D608E03F08CF991
:1008D00060861221200004F025F840B2002804D0E0
:1008E0000021200002F0C0F902E0200004F0ECF842
:1008F000F7BD3EB50400304D2878400748D4002CA1
:1009000008D1DFF8303540F2EE22DFF8E417224854
:1009100001F094F92878800727D5DFF838160A689F
:10092000606A121A002A27D40A68606A121A208D97
:10093000121A012A20DA1948DFF8FC2413681B88F0
:10094000029312685288019210F11002009210F185
:1009500014030868DFF8041609884218DFF8F80560
:100960000168200004F0E3FC12E02878C00703D5FA
:10097000DFF8800700682062DFF8E00500880028C3
:1009800006D0608B50F002006083200004F09CF8D9
:1009900037BD000090860108406D0108A4050220C3
:1009A00018080220C80702201A080220FC8A010841
:1009B0001C8D0108B07901083E080220686D01080D
:1009C000106701087FB5050000240020002D09D123
:1009D000DFF860344FF44772DFF81C17DFF81C07AC
:1009E00001F02CF9DFF8246A3078400742D5287DE1
:1009F000022807D1DFF860050068296D884219D107
:100A0000012417E0DFF84C1508686A6A904201D1AA
:100A100001240FE00A68686A121A002A0AD40968D9
:100A2000686A091A288D091A012903DA688B50F0BF
:100A300002006883E4B2002C1AD0287D002809D176
:100A4000DFF8F0334FF44E72DFF8B416DFF8AC067F
:100A500001F0F4F8DFF87C06017851F0080101702C
:100A6000698B4FF6FE70014069837FF00D006EE2E6
:100A700000206CE2307880070BD5287D022808D052
:100A8000287D032805D0688B50F002006883002081
:100A90005DE2A87EC00603D4DFF85806006828622D
:100AA000002085F89B00002085F89A00280001F0BE
:100AB00037F8287D022814D0C0F04882042800F0BE
:100AC0007081C0F0D280062800F0CD81C0F078811E
:100AD000082800F0F681C0F06481092800F0228225
:100AE00034E2307810F01200122840F09680DFF8DF
:100AF000681408686A6C521C904240F08E80DFF8DF
:100B000054040268521C6A626A6AEA62096869648B
:100B1000DFF824130968C989A5F86010B5F86010DA
:100B2000A5F862100068401E686504202875281D1D
:100B300004F08AFE01002A1D688E03F055F86886CD
:100B400041F21D10698E4900814202D3698E49002D
:100B500001E041F21C116A8E92008A4203D2688E33
:100B600080B2800009E0698E4900814203D3688E1B
:100B700080B2400001E041F21C10A5F84800B5F831
:100B80006600002808D1AB4B4FF45B72DFF8741598
:100B9000DFF8680501F052F8B5F86600401EA5F8C8
:100BA00066002C6F002C0ED1EC6E002C08D1A14BEE
:100BB0004FF45D72DFF85015DFF8400501F03EF8A4
:100BC0002068E86601E020682867200002F097FDB1
:100BD000286F002803D15FF0FF30288604E0002052
:100BE0002886002085F84200D5F88800002807D024
:100BF000002229002869D5F888309847010000E0D4
:100C000000217FF00C00020049B2914200F09F8168
:100C1000688B50F00200688326E03078C00623D548
:100C2000DFF8E80484490A68128802920968498852
:100C3000019110F11001009110F11403DFF8140379
:100C40000068DFF8181309884218DFF80C03016800
:100C5000280004F06CFB95F84200062804DA002016
:100C60002886280004F0C2F970E13078C00640F10F
:100C70008B80B9490A68686C121A521E002A6BD41C
:100C80000A68286D121A012A66DA04202875E86FAE
:100C9000002802D17FF005011AE0E86F8069002882
:100CA00008D1644B4FF46A72DFF86414DFF84C0427
:100CB00000F0C4FFE86F8069002807D000222900F7
:100CC0002869EB6F9B699847010001E07FF00F01F5
:100CD000080040B2002809D049B211F10D0F02D02E
:100CE000280002F048F87FF00C0030E1280000F006
:100CF00011FADFF8E4130888002802D00888401EA3
:100D0000088041F21D10698E4900814202D3698E2C
:100D1000490001E041F21C116A8E92008A4203D21E
:100D2000688E80B2800009E0698E4900814203D359
:100D3000688E80B2400001E041F21C10A5F8480026
:100D4000DFF89003007880062AD5688B50F0020007
:100D500068830720287523E0DFF8B003364A13685C
:100D60001B88029312685288019210F110020092BF
:100D700010F1140377480068784A128882180968CD
:100D8000280004F0D4FA0BE03078800708D57148C9
:100D90000068696A491E884202D1280004F042F9BD
:100DA000D4E0280000F0B6F9DFF8280300788006C8
:100DB00005D5688B50F00200688307202875C5E0D0
:100DC000280000F0A7F9C348007880063DD53078A8
:100DD000C00633D560480068296D88422ED1E86E80
:100DE00000282BD1688B50F002006883280002F0A5
:100DF00041FE5B480168A94203D10168C9680160EE
:100E000009E0006800E0C068002804D0C168A94279
:100E1000F9D1E968C1600020E8600120B349087099
:100E20000A2028757A480168E960056004F01DFC15
:100E300018E000BF4C560108C4070220688B50F030
:100E400002006883082028750CE03078C00609D5B8
:100E500041480068296D884204D1E86E002801D11C
:100E60000620287572E0280000F054F999480078AF
:100E7000800625D5688B50F002006883280002F0B8
:100E8000F9FD37480168A94203D10168C9680160CA
:100E900009E0006800E0C068002804D0C168A942E9
:100EA000F9D1E968C1600020E86001208F4908702D
:100EB0000A20287556480168E960056004F0D5FBF2
:100EC00044E0280000F026F93078C00629D52248F1
:100ED0000068296D884224D1E86E002821D12800BD
:100EE00002F0C8FD1E480168A94203D10168C96823
:100EF000016009E0006800E0C068002804D0C16813
:100F0000A942F9D1E968C1600020E8600120774971
:100F100008700A2028753E480168E960056004F001
:100F2000A4FB13E0280000F0F5F83078C0060CD5DB
:100F300009480068296D884207D1E86E002804D16D
:100F40006448017851F010010170FFE7002004B0FF
:100F500070BD0000CC070220D0070220200802202C
:100F6000BC070220906D01083C67010838B50500F8
:100F70000C00002D08D1DFF8503C40F21F42DFF892
:100F80009C1B5E4800F05AFEE868808901F06DFC09
:100F9000C00716D5200002F0A9FB002434E0E06869
:100FA000808901F062FCC00707D5012001F05DFCDB
:100FB000E96889890843E96888812000246802F08B
:100FC0009EFB002C0BD0E0684168DFF8000C006845
:100FD0002A898018411A2089091A0029DFD5002C96
:100FE00012D0E0684168DFF8E40B02682B89D21860
:100FF000511A012908DBE26851680068091A298141
:101000002989686800F0B1FF2C6031BD686701086C
:10101000C007022068640108B80702202DE9F041EA
:1010200006000C001D0033E027002468786801F0FA
:10103000FDF88046B6F86600414689B2884208D27B
:10104000DFF8843B40F25742DFF8841B2B4800F066
:10105000F5FDB6F86600B0EB0808A6F866801E49F4
:101060000A88388982180A80380002F048FBB6F8EE
:10107000660000280CD0002C0AD1002D08D1DFF822
:10108000483B40F26242DFF84C1B1C4800F0D6FDA2
:10109000002C17D0E168486801F0EFFB0700E0681A
:1010A000808901F0E2FB10F0030F01D0012100E084
:1010B0000021208938180918DFF81C0B0068091A6C
:1010C0000129B1DB2000BDE8F081000040060220CC
:1010D000D40702203F0802201E080220D807022061
:1010E00024820108B86D0108D07901083B0802206C
:1010F000F0790108B007022040820108406D010824
:10110000107A0108A886010858890108A405022060
:10111000307A01082DE9F84306000024002E09D199
:10112000DFF8A43A40F27B42DFF8B01ADFF8B00AE9
:1011300000F084FD307D042809DADFF88C3A40F2B3
:101140007C42DFF8A01ADFF8980A00F077FDAF487C
:101150000078C00640F19B81B6F86000B16D0918B7
:10116000DFF8682A736D10681B1A002B18D4706D95
:101170001368984206D1B36DDFF85C0A00681B1A49
:10118000002B0DD4B06DDFF8503A1B6898421DD18A
:10119000B6F86000DFF8503A1B68DB89984215D238
:1011A000DFF8440A0068C089A6F86000B6F862005B
:1011B000B6F86030984203D2B6F86000A6F8620034
:1011C00010687065DFF8100A0068B065DFF8085A2B
:1011D0002A68706C121A012A46DADFF8100A0088B1
:1011E00000283AD1B06DB6F860208018884234D11A
:1011F000B6F93000002830D4706C296888422CD1B0
:10120000012496F8430096F84310491CC9B288425D
:1012100004D296F84300401C86F8430096F8430039
:10122000042813DBB6F84810708E4118B6F8480051
:1012300089B2814206D3B6F84810708E4118A6F8DC
:10124000481003E04FF6FF70A6F8480096F84300F8
:10125000032802DB300003F031FF002C40F0EA806D
:10126000002086F84300E5E02968706C091A491EE1
:10127000002900F1DC802968306D091A012980F20B
:10128000D680B07E40070BD5718B4FF6FB700140C6
:101290007183B6F84A00A6F848000020A6F86A0054
:1012A000002086F84200B6F93C00C010B6F93E10A6
:1012B0004018A6F840002868716C411A002086F892
:1012C000430028687064307D04285EDBB6F848006F
:1012D000B6F84A20904225D2708B000501D5012234
:1012E00000E002220B001400E4B2708E44439BB273
:1012F000A4B2A34203D3D2B2708E12FB00F1B6F8AF
:1013000048000818B6F8482080B2904205D3B6F8D5
:1013100048000918A6F8481003E04FF6FF70A6F839
:10132000480032E0B6F86A000818B6F86A2080B2C1
:10133000904205D3B6F86A000918A6F86A1003E0CF
:101340004FF6FF70A6F86A00B6F86A00B6F84810C3
:1013500088421AD3B6F86A10B6F84800091AA6F8F7
:101360006A10B6F84810708E4118B6F8480089B275
:10137000814206D3B6F84810708E4118A6F848107E
:1013800003E04FF6FF70A6F84800F36EDFF8602820
:10139000316F3000FFF742FE3067336FDFF85428BB
:1013A000F16E3000FFF73AFEF066306F002803D18F
:1013B0005FF0FF30308601E000203086002030777B
:1013C000F06E002802D10020A6F86800B6F864107C
:1013D000DFF8240800884118A6F86410708B000517
:1013E00028D5306F002813D1F06E002808D0F06E99
:1013F000C168486801F041FAF16C081A012819DA4D
:10140000718B4FF2FF700140718313E03E080220A0
:10141000306FC168486801F030FAF16C081A012891
:1014200008DA718B4FF2FF700140718302E03000E7
:1014300003F0C6FF706B002829D0B16B2868091A29
:10144000002924D5DFF8B4070168706B081A00B2D0
:10145000B6F93C10B0EBE100B18F4118B187010043
:1014600009B2002901D500B2404200B2B6F93E10DF
:10147000B0EBA100F18F4018F087B6F93C00C01026
:10148000B6F93E104018A6F8400000207063DFF85F
:101490005C87B8F80000002800F00E83307D072834
:1014A00080F20A83DFF82477716A3868091A491EC6
:1014B00000295CD4716A3868091AB8F80000091A62
:1014C000491C012953DADFF838476568706AD7F894
:1014D0000090B0EB09096068002809D1DFF8E83610
:1014E00040F29452DFF81C17DFF8F40600F0A6FB78
:1014F0004FF6FF70814509D3DFF8CC3640F29552A4
:10150000DFF80417DFF8D80600F098FB6068008960
:10151000494689B2884209D2DFF8AC3640F2975288
:10152000DFF8E816DFF8B80600F088FB2089B0EB9A
:101530000900208160680189B1EB090106E0688932
:10154000B9EB00092981002068812D6868894A4625
:1015500092B29042F3D31FFA89F94946280000F06D
:10156000A5FD706A3860E0683968416008E0396854
:10157000706A091A002903D5708B50F0020070833D
:101580003968706A091A002900F192823968706A14
:10159000091A308D091A491C012980F28982706A62
:1015A0003968884240F09D81DFF85456E8688089A8
:1015B00001F05BF910F0030F01D0012000E00020E2
:1015C00029894018A8F80000308DB8F8001088422A
:1015D00047D2E868808901F048F9C00710D5E8686B
:1015E000808901F042F9C0B210F03E0001F03DF9EF
:1015F000E9688A894CF2FF010A401043E968888152
:10160000308D2881E868808901F02FF9800702D5A4
:101610002889401E28812989686800F0A6FCE868AE
:10162000808901F022F910F0030F01D0012000E0C1
:10163000002029894018A8F800003868B8F8001080
:1016400010FA81F0716A328D8918884209D0DFF86A
:10165000783540F2CC52DFF8B815DFF8840500F099
:10166000EDFA706F002800F08680E868808901F04C
:10167000FCF8C00709D5706F00287CD0706F716FBF
:101680000968716702F03BF8F5E7746F25E0002008
:101690001BE0E068808901F0E8F8C00719D5E86828
:1016A000808901F0E2F8800713D4012001F0DDF811
:1016B000E96889890843E9688881E868808901F0D8
:1016C000D4F810F0030FE2D0012029894018A8F8BF
:1016D00000002000246802F012F8002C0BD0E06813
:1016E00041683868B8F8002010FA82F0411A208961
:1016F000091A0029CDD5002C3CD0E168486839682A
:10170000B8F8002011FA82F1081A012832DBE068EB
:1017100041683868091A2981E868808901F0A5F8CC
:10172000800702D52889401E28812989686800F031
:101730001CFCE868808901F098F810F0030F01D0D4
:10174000012000E0002029894018A8F80000E16885
:1017500048683968B8F8002011FA82F1814209D04E
:10176000DFF8643440F2FD52DFF8A814DFF87004AB
:1017700000F064FA74673868B8F8001010FA81F065
:101780007062308DB8F80010884209D2DFF8383422
:1017900040F20762DFF88014DFF8440400F04EFAEC
:1017A000318DB8F80000091A3185300001F0D9FBFD
:1017B00068680089002805D06868DFF86014086050
:1017C00000206860E868808901F04FF8C00737D5CD
:1017D000DFF84C04017851F02001017030E06068BE
:1017E000106015E00021328D2089121A511A3185BE
:1017F000300001F0B6FB6068008900280AD0DFF8ED
:101800001C2410680028EAD06168106800F030FDE0
:1018100000206060E068808901F027F8C0070AD5E1
:10182000DFF8FC03017851F020010170307D0428BD
:1018300001D10720307520687067200001F05FFF3C
:10184000706F00283BD0706FC1684868716A884229
:1018500035D1746F706FC16848683860E0688089FE
:1018600001F003F810F0030F01D0012000E0002088
:10187000716A2289801841187162E068808900F0DD
:10188000F4FF10F0030F01D0012000E00020318DA3
:1018900022898018814209D2DFF82C3340F22C6271
:1018A000DFF88013DFF8380300F0C8F9E0688089BA
:1018B00000F0DBFF10F0030F94D0012193E7B07E1E
:1018C000C00709D5718B4FF6FE7001407183708B94
:1018D00050F00200708303E0708B50F001007083C1
:1018E000FCE0706F002805D1DFF8140301F016FF4B
:1018F0007067D9E00024756F0AE02C002868002882
:1019000005D1E96848683968081A01285ADA2D684B
:10191000002D00F0C980E96848683968814211D01B
:10192000002C22D1E96848683968081A0028E4D5F3
:10193000B34801F0F3FE002803D070672900FFF7D9
:1019400015FBB1E0AE482989028991420CD201F021
:10195000E5FE002807D0002C01D0206000E0706771
:101960002900FFF703FB9FE09EE0E16848683968C3
:10197000081A401E0028C0D4E96848683968081A67
:10198000401C0128B9DA9E4801F0C8FE8046B8F133
:10199000000F16D0E1684868218941183868091A93
:1019A000012908DBE16848683968081A2081218923
:1019B000606800F0DAFAC4F8008029004046FFF7BA
:1019C000D5FA71E0E868808900F04FFFC0076BD45A
:1019D0008B4801F0A3FE28602868002864D0E968DD
:1019E0004868298941183868091A012908DBE9681B
:1019F00048683968081A28812989686800F0B5FAAA
:101A0000B8F80000396811FA80F1706A091A308D4F
:101A1000091A012948DB2868C068808900F025FF81
:101A2000C00713D52868C068808900F01EFFC0B2C7
:101A300010F03E0000F019FF2968C9688A894CF24D
:101A4000FF010A4010432968C9688881716A308D96
:101A500041183868091A28680181286801892868AE
:101A6000406800F082FA2868C068808900F0FDFEB6
:101A700010F0030F01D0012000E00020296809893F
:101A80004018A8F800003868B8F8001010FA81F083
:101A9000716A328D8918884206D04B4B40F2F96248
:101AA0005B494F4800F0CAF8300003F089FC15E0AC
:101AB000300003F085FC11E044490A68706A121A8C
:101AC000002A07D40968706A091A308D091A491C5E
:101AD000012903DB708B50F002007083BDE8F183B5
:101AE00010B4514801880288521C02804F4A106885
:101AF000002805D04E480B0004889BB2A34205D2B3
:101B000039480068143089B2405C04E00088091A42
:101B10001068C9B2405C10BC70470000E06D01085D
:101B2000F8B50400002C06D1274B40F27D724149E4
:101B30002B4800F083F8404D288800283DD03A4ECD
:101B400000203080FFE730882988884235D2FFF7AF
:101B5000C7FFC0B200280ED002280DD0F3D3FFF784
:101B6000BFFF0100C9B2022926DB3188C0B2801E46
:101B700041183180E7E720E0FFF7B2FF042804D1E5
:101B800028883188891C884200DA16E0FFF7A8FF10
:101B900007003F02FFF7A4FF0743380080B240F27E
:101BA0001921884203DA380080B2002802D14FF4AC
:101BB0000677FFE76786C6E7FFE7F1BD18480178BB
:101BC00051F01001017070474C560108CC070220FB
:101BD000086E0108507A0108D00702205C820108D3
:101BE000406D010878820108C40702202008022005
:101BF000B88D0108C08D01081E080220B007022020
:101C0000400602200C8B01081C8B01082C8B01085C
:101C1000105F0108985C0108707A0108D40702205F
:101C20003F080220306E01081C080220C80702206D
:101C30001A08022094820108180802200EB4C0B5C8
:101C4000024603A800210190009101AB0121044844
:101C500078440C3003F0EAFF06BC5DF810FB00BFCF
:101C6000816B010080B505F048F90021DFF880297B
:101C7000117005F04BF9DFF8500A006800E0C06809
:101C8000002805D0416F0029F9D002F065F8FFE780
:101C900001BD80B5FFF7E6FF01BD38B505F02DF9B0
:101CA000DFF84C4925780121217005F02FF9EDB2BC
:101CB000002D0CD10021DFF8140A05F0EFF90028FF
:101CC00005D005F01AF90021217005F01FF931BD8A
:101CD00070B4BDF90C50049C00260660416002817E
:101CE000438105734473012181730021C17370BC6A
:101CF00070472DE9FC470E009046C0B205004046F3
:101D000000B2012808D0412806D0B0F5C17F0ED01E
:101D1000B0F5207F7BD0C8E0424612B2310089B2D4
:101D2000002000F0CEF804002000BDE8F687002473
:101D30005FF0000937000D2005F078FA0600002E4C
:101D400045D039002A0092B2D21C4FF6FC700240F6
:101D5000D2F5147289B292B2914241D2BA460020B1
:101D60000190404600B2009053469BB23A0092B2B6
:101D7000280080B2304410F11001C91C8908890084
:101D80003000FFF7A5FF307910F0030F09D0DFF81E
:101D9000403940F20112DFF83C19DFF83C09FFF747
:101DA0004DFFADB2ED1CAD08AD00D5F51475002D9D
:101DB00009D1DFF81C3940F20312DFF82019DFF8EF
:101DC0001809FFF73BFF002C16D1340016E0FFF78F
:101DD00064FF002C02D0200000F0B5F90020A4E739
:101DE000AA461FFA8AFA1AF1030A4FF6FC7010EAA3
:101DF0000A0ADAF5147AB2E7C9F80060B146B7EB1F
:101E00000A070025380080B2002894D18CE7290009
:101E100089B2C91C4FF6FC700140320092B2D21C4C
:101E20004FF6FC700240511811F1100089B23200D7
:101E300092B2D21C92089200914208D3010089B25A
:101E4000320092B2D21C92089200914201D200203C
:101E50006BE780B205F05EFC0400002C01D100208D
:101E600063E7002001900FFA88F8CDF80080330076
:101E70009BB2320092B2ADB204EB050010F110013A
:101E8000C91C890889002000FFF722FF207910F083
:101E9000030F09D0DFF8383840F22312DFF840187A
:101EA000DFF83408FFF7CAFE3EE7DFF8243840F2D7
:101EB0002712DFF83018DFF82008FFF7BFFE0020F8
:101EC00033E7FEB505000E001700380000B24128C8
:101ED0000DD0380000B2012809D0DFF8F4374FF4F4
:101EE000A572DFF80418DFF8F007FFF7A7FE0C2053
:101EF00005F09CF90400002C01D100200CE000202A
:101F000001903FB2009733009BB2320092B2290099
:101F10002000FFF7DDFE2000FEBD3EB51C00079B44
:101F2000C0B29BB20500ADB2ED1CAD08AD0015FA14
:101F300081F5AB4201D2002016E0069B002B05D0B4
:101F400080B2C01C80088000184400E000200223FA
:101F5000019312B200920B009BB20A0092B20100F0
:101F60002000FFF7B5FE20003EBD70B504000D0057
:101F7000002C09D1DFF858374FF4CC72DFF86C171A
:101F8000DFF85407FFF75AFE2800218980B2884203
:101F900044D22689761B11E060892D1A2089801B86
:101FA00020812468002C09D1DFF8243740F2AF12D9
:101FB000DFF83C17DFF82007FFF740FE60892900B3
:101FC00089B28842E8D3207B10F00F0F1BD1280084
:101FD000618980B2884216D0607B800713D4616823
:101FE000091B691889B2200005F0C9FA0400002C09
:101FF00009D1DFF8DC3640F2BD12DFF8F816DFF861
:10200000D806FFF71BFE65816089208120680028C3
:1020100002D0206800F097F80020206070BD70B5F5
:1020200004000D001600002C09D1DFF8A43640F2A0
:10203000DF12DFF8C416DFF8A006FFF7FFFD002C63
:1020400002D0B5F5803F01D3012027E0002D01D15A
:10205000002023E02900208940180A0080B292B2B3
:10206000904201D2012019E0207B000608D560686B
:102070006D42284414F11002904207D201200DE075
:10208000F6B2002E0BD060686D4228446060608913
:1020900008186081208909182181002070BD012065
:1020A000FCE780B50022FFF7BAFF02BD38B5040097
:1020B0000D00002C09D1DFF8183640F24B22DFF872
:1020C0003816DFF81406FFF7B9FD002C02D0B5F57D
:1020D000803F01D3012020E0002D01D100201CE031
:1020E000290060890A0092B290420BD2DFF8E035F5
:1020F00040F25522DFF80416DFF8DC05FFF79EFDFD
:1021000001200AE060686068284460606089401AC5
:1021100060812089411A2181002032BD80B50B00E9
:102120001BB2002B04D509B24942FFF7BFFF03E001
:10213000D2B209B2FFF773FF02BD80B5012209B226
:10214000FFF7ECFF02BDF8B50400002C0DD1002C08
:1021500009D1DFF87C354FF43772DFF89C15DFF8D2
:102160007805FFF76BFD00205FE000250BE0DFF84E
:10217000603540F20F32DFF88815DFF85C05FFF7B5
:102180005DFD6D1C3400002C4DD004F0B6FE070040
:10219000A07B002809D1DFF8383540F2F122DFF8C2
:1021A0006415DFF83405FFF749FDA07B401EA073DE
:1021B000A67B380004F0AAFEF6B2002E31D12668C4
:1021C000207B10F00F00617B890711D5270038694B
:1021D000002809D1DFF8F83440F2FF22DFF8281593
:1021E000DFF8F404FFF72AFD200039698847C8E7C3
:1021F0000100C9B2022904D121000D2005F043F8E5
:10220000BFE70100C9B2012904D121000C2005F06B
:102210003AF8B6E7C0B20028A9D1200005F03DF990
:10222000AFE70024AFE72800C0B2F2BD01000020F4
:1022300001E0401C09680029FBD180B2704710B54D
:102240000400002C13D004F058FEA17B491CA1739C
:1022500004F05CFEA07B002809D1DFF8743440F262
:102260004232DFF8A814DFF87004FFF7E7FC10BD76
:1022700038B504000D00002C01D0002D0AD1DFF884
:10228000503440F25A32DFF88814DFF84C04FFF77C
:10229000D5FC28E004E0218928894118218124689F
:1022A00020680028F7D120896189884209D0DFF8A9
:1022B000203440F26232DFF85C14DFF81C04FFF7D0
:1022C000BDFC2068002809D0DFF8043440F26332F6
:1022D000DFF84414DFF80004FFF7B0FC21892889F7
:1022E00041182181256031BD10B50C002100FFF798
:1022F000BFFF2000FFF7A3FF10BD2DE9F843050045
:102300000C0000260027002D05D0002C03D02889C2
:10231000218988420CD2DFF8B83340F2CA32DFF8A4
:10232000FC13DFF8B403FFF789FC7FF00F0059E0DE
:102330006889801B6189C91B884204D3B4F80A806C
:10234000B8EB070803E0B5F80A80B8EB0608424688
:10235000606800EB0701686800EB0609484605F075
:10236000D7FA18EB060618EB07076889B04209D2BE
:10237000DFF85C3340F2D932DFF8A413DFF85803FA
:10238000FFF75CFC6089B84209D2DFF8443340F2C1
:10239000DA32DFF89013DFF84003FFF74FFC608973
:1023A000874201D3002724686889864205D1002628
:1023B0002D68002D01D1002C16D1002C06D060898B
:1023C0002189884202D1206800281AD1002D06D028
:1023D00068892989884202D1286800281ED1002CEA
:1023E000A6D10020BDE8F283DFF8E4324FF4797221
:1023F000DFF83413DFF8E002FFF720FC7FF00F0076
:10240000F0E7DFF8CC3240F2EA32DFF82013DFF8F1
:10241000C802FFF713FC7FF00500E3E7DFF8B032F6
:1024200040F2EF32DFF80413DFF8AC02FFF706FCEE
:102430007FF00500D6E72DE9F04704000D00904637
:1024400000260027002C0BD1DFF8843240F20A422C
:10245000DFF8DC12DFF88002FFF7F0FB002042E03B
:10246000002D0BD1DFF8683240F20B42DFF8C412C6
:10247000DFF86402FFF7E2FB002034E02BE0B4F861
:102480000A90B9EB03094046494680B289B28842B6
:1024900000D2C1464A4692B260689BB200EB03018B
:1024A000300080B205EB000A504605F031FA19EB16
:1024B000070719EB0606B8EB090800230AE0180025
:1024C00080B20028DBD01800618980B28842D6D360
:1024D00060891B1A2468404680B2002801D0002C75
:1024E000EDD1380080B2BDE8F08710B402E0438936
:1024F000C91A0068002804D00B0044899BB2A3428B
:10250000F5D2002A00D0118010BC704780B589B286
:10251000FFF7EBFF02BD2DE9F04704000E001700A6
:102520003D00ADB25FF00008002C09D1684B40F2CD
:10253000B34281496848FFF781FB7FF00F0053E009
:10254000002E09D1624B40F2B4427C496248FFF749
:1025500075FB7FF00F0047E02089390089B288427F
:1025600009D25B4B40F2B54275495B48FFF766FB09
:102570005FF0FF3038E0002C06D0002E04D0208918
:10258000390089B2884202D27FF00F002CE01CE0B3
:10259000002C06D14E4B40F2BD426A494E48FFF72F
:1025A0004DFBA9466089484501D2B4F80A904A46D5
:1025B00006EB0801D4F804A0504605F0A9F9B5EBE4
:1025C000090519EB0809C8462468002DE0D1002D43
:1025D00002D1BFB2B84506D03D4B4FF499625A497B
:1025E0003D48FFF72BFB0020BDE8F087000000000E
:1025F000360802202DE9F8430F0016006A4619003C
:1026000089B2FFF783FF0400002C3CD02089BDF87D
:10261000001011FA86F1884235DB3500B846BDF866
:1026200000006189884206D3294B40F2E3424749C2
:102630002948FFF703FB6189BDF80000091A300043
:1026400080B2814204DA6089BDF80060861BFFE732
:10265000320092B26068BDF8001000EB0109390049
:10266000484605F055F9AD1BB6B208EB0601280047
:1026700080B2002805D02A0092B22068FFF74BFFF5
:1026800003E0002001E05FF0FF30BDE8F28338B5E1
:1026900015000A0012B22989C0B2FFF72AFB040014
:1026A000002C01D100200EE029002000FFF725FEBC
:1026B00040B2002806D0064B40F224522449064876
:1026C000FFF7BCFA200032BDBC070220931C0008B3
:1026D0006C58010848630108606B0108C06001087C
:1026E0000866010880800108F4880108288501082F
:1026F000408501089C800108048D0108D0780108FC
:102700000889010858850108047301081C8901081B
:10271000685E0108786301088C8A0108A8630108D3
:1027200070850108B88001089C8A01083466010898
:10273000F07801082873010888850108D480010811
:1027400010790108A0850108B8850108D085010825
:10275000308901081CB514006A4689B2FFF7D6FE1D
:10276000002808D0BDF800104289914203D2406889
:10277000BDF80010445413BD10B40300C243002A36
:1027800001D0002801D101201AE091F831209207F0
:1027900001D4002014E04A68904201D100200FE0EB
:1027A0008A6813404C688A681440A34207D18A683B
:1027B00090438968C943884201D1012000E000208C
:1027C00010BC704780B51022014900F003F802BD2B
:1027D00030060220FCB50023006800900C006D4616
:1027E000002604E02E202070641C6D1C761C300036
:1027F000C0B2042834DA002795F800C05FF00A0E52
:102800009CFBFEF00EFB10C095F800C05FF00A0EB6
:102810009CFBFEFC85F800C00DF1040C3030BE4678
:102820005FFA8EFE0CF80E007F1C28780028E3D19A
:102830003800471EC0B200280CD01800431C90423C
:1028400006DA3800C0B21CF800002070641CEFE704
:10285000002009E01800431C9042C3DB002003E085
:10286000601E002202700800F6BD0100080080B260
:10287000000A50EA012080B270470100080210F4FB
:102880007F0050EA01600A00120A12F47F421043EE
:1028900050EA1160704730B4002513E050F8042B63
:1028A000D30744BFA9F101039A18091F042942F86C
:1028B000045BFAD213468C0744BF15809B1CC907E2
:1028C00048BF1D7050F8041B0029E7D130BC704789
:1028D00080B505F071F88004800CB0F58040DFF819
:1028E000D017088001BD10B50400207D012808D153
:1028F000DFF8C037D422DFF8C017DFF8C007FFF7D2
:102900009DF92100012004F0BEFC10BD10B50400AB
:10291000207D012808D1DFF89C37DF22DFF8A017DF
:10292000DFF89807FFF78AF92100022004F0ABFCDA
:1029300010BD80B500F03CFEDFF888070178491C27
:1029400001700078C00701D500F0D8FB01BD38B593
:1029500004000D00002D08D1DFF85837FF22DFF802
:102960006817DFF85807FFF769F905E0E06FA8423C
:1029700001D10020E067E468002CF7D131BD38B503
:102980000400002C09D1DFF82C3740F21112DFF8D7
:102990003C17DFF82807FFF751F9207D012809D0FF
:1029A000DFF810374FF48972DFF82417DFF80C07CF
:1029B000FFF744F9012508E02100DFF8180750F877
:1029C00025000068FFF7C3FF6D1C042DF4D331BD53
:1029D0003EB504000D00002C09D1DFF8D8364FF4C5
:1029E000AF72DFF8F416DFF8D406FFF727F9EDB27F
:1029F000002D4ED0207D042802D0207D072848D10C
:102A0000A06F002803D1208DB0F5066F41D0A07EC5
:102A1000C00609D4DFF89C364FF4B272DFF8BC165A
:102A2000DFF89806FFF70AF9208B0290E08A019000
:102A3000201D00902300626A216D200002F077FCC7
:102A4000200001F017F8DFF898060168A14203D1D1
:102A50000168C968016009E0006800E0C0680028FA
:102A600004D0C168A142F9D1E168C1600020E060F2
:102A70000120DFF870160870DFF86C060068A042CD
:102A800002D1FFF79BF802E02000FFF72CFF0020A7
:102A900022E0207D002803D002282AD01DD335E073
:102AA000E08A002814D0DFF844060168A14203D16F
:102AB0000168C968016009E0006800E0C06800289A
:102AC00004D0C168A142F9D1E168C1600020E06092
:102AD0002000FFF708FF00203EBD2000FFF74FFF5A
:102AE0002100DFF80C0601F001F82000FFF70EFFCF
:102AF000F1E72100DFF8E80500F0F8FF0120DFF83A
:102B0000E41508702000FFF7EEFEE4E7200000F077
:102B100001F8E1E738B50400002C09D1DFF894355D
:102B20004FF4CE72DFF8A415DFF89005FFF786F8B2
:102B3000207D032804D0042816D007281FD029E0C0
:102B4000200001F0B2FE0500280040B2002801D1AB
:102B500005202075280040B200281DD1200001F07A
:102B6000B3FF280040B232BD200001F09EFE0500F8
:102B7000280040B2002801D105202075EAE7200096
:102B800001F093FE0500280040B2002801D1092081
:102B90002075DFE70020E6E728005FF0FF3140B254
:102BA0008842DED1608B50F0080060830020DAE7B5
:102BB00080B500280CD1DFF8FC344FF4F472DFF854
:102BC0003415DFF8DC09FFF739F87FF00F0009E072
:102BD000017D012903D0418B51F010014183012176
:102BE000FFF7F6FE02BD70B505000E001400002DC3
:102BF0000CD1DFF8C03440F20722DFF8FC14DFF814
:102C0000A009FFF71BF87FF00F002CE0287D0128BA
:102C100002D17FF00A0026E0002E12D0688B50F01F
:102C200010006883002C04D001212800FFF7D0FE9B
:102C300019E0A86F002804D0A86FFFF784FA0020DD
:102C4000A867002C0ED0287DC01E012801D9001FC6
:102C500005D13100C9B22800FFF7BAFE03E07FF0CA
:102C60000A0000E0002070BD2DE9FE4F04008B46F5
:102C7000002C0AD1DFF83C3440F23D22DFF8241961
:102C8000DFF83804FEF7DAFF73E0207D012809D170
:102C9000DFF8203440F24122DFF80C19DFF81C0481
:102CA000FEF7CCFF207D0A2808D12100DFF8FC08C0
:102CB00000F01CFF2000FFF716FE5AE0002500265A
:102CC000276DD4F82480D4F89090D4F810A0207DFB
:102CD000002818D1E08A002820D0DFF8100401680D
:102CE000A14203D10168C968016009E0006800E001
:102CF000C068002804D0C168A142F9D1E168C16070
:102D00000020E0600AE05D46E68A2100DFF8D0039B
:102D100000F0ECFE0120DFF8CC130870206F0028D3
:102D200002D0206F00F0E2FCE06E002802D0E06EDE
:102D300000F0DCFC606F002802D0606F00F0D6FC71
:102D4000002D0BD0208B0290B6B20196201D009072
:102D5000230042463900200002F0E9FA207D2000DD
:102D6000FFF7C1FD4846002803D07FF00C01504614
:102D7000C847BDE8F78F80B50121FFF775FF01BD9A
:102D8000F8B505000C000423002C01D1DFF8A048A1
:102D9000002D0CD1DFF81C3340F2A922DFF84419D2
:102DA000DFF81803FEF74AFF7FF00F0055E0287D9B
:102DB00000280CD0DFF8FC3240F2AB22DFF82819F3
:102DC000DFF8F802FEF73AFF7FF0050045E010005B
:102DD00080B2002809D100F03CF90200100080B256
:102DE000002826D17FF0010037E0002600E0761CA5
:102DF0009E421EDADFF8DC0250F82600006800E090
:102E0000C0680028F3D0C18A1700BFB2B942F7D119
:102E100000280BD00168002908D0002C06D02168BA
:102E2000002903D001682768B942E9D17FF0070083
:102E300013E0002C08D02068002805D0002C01D118
:102E4000002000E020682860EA82DFF8A002016824
:102E5000E960056002F009FC0020F2BD10B50C002D
:102E6000002C09D1DFF84C3240F20F32DFF8341970
:102E7000DFF82C07FEF7E2FE2000FFF77CFF7FF073
:102E80000C0010BD70B5060014000025002E0CD1FA
:102E9000DFF8203240F25932DFF80C19DFF81C025B
:102EA000FEF7CCFE7FF00F0056E0307D00280CD0FE
:102EB000DFF8003240F25A32DFF85019DFF8FC0137
:102EC000FEF7BCFE7FF00E0046E0307D012803D106
:102ED00035007FF008003FE0022004F0A7F905006C
:102EE000002D02D15FF0FF3036E030692861F08AB2
:102EF000E88201202875707D6875707A68720020FC
:102F00002872F07AE872B07AA87230682860F08A85
:102F1000002814D0DFF8D4010168B14203D1016860
:102F2000C968016009E0006800E0C068002804D0BA
:102F3000C168B142F9D1F168C1600020F060300091
:102F4000FFF7D1FCDFF86009A86169480168E96012
:102F5000056002F08AFB0020002C00D020702800C1
:102F600070BD38B50400002C08D1524B40F2A63297
:102F7000DFF86019DFF82806FEF760FE606A218D31
:102F80004018618E40F23142914202DB4FF486617B
:102F900000E0618EE26A821A511A002904D4218D60
:102FA0006185E16A401A18E0616AE06A091A01293C
:102FB00002DB002060850FE0E06A656A451BB5F51D
:102FC000803F08D33B4B40F2B632DFF80C19DFF8F4
:102FD000D005FEF733FE6585002032BD38B504000C
:102FE0000D00002C09D1334B40F2CF32DFF8EC1842
:102FF000DFF8AC05FEF722FE2AE0207D012808D18B
:103000002C4B40F2D332DFF89819DFF89405FEF725
:1030100015FE208D2D18280080B240F661018842EF
:1030200004DA2800218D80B2884203D24FF4066072
:10303000208500E025852000FFF793FFB0F5067F8F
:1030400006D3608B50F002006083200001F03CFD4D
:1030500031BD30B40021FFE7154B1888401C1880A3
:1030600018884FF6FF72904202D14FF4404018800A
:10307000002200E0521C1000C0B2042815DA1548E6
:103080001400E4B250F82400006800E0C068002892
:10309000F0D0C48A1D88AC42F8D1491C080080B227
:1030A000B0F5804FD8DB002000E0188830BC7047B6
:1030B0001C020020B858010844890108886B0108E7
:1030C000F08001083C080220B06B0108108D010857
:1030D000E8850108EC8A0108307901080C810108B3
:1030E000BC0702203B080220D8070220B4070220B8
:1030F000B807022000860108288101082DE9FE4F4B
:103100000020DFF8DC99D9F80000401CC9F8000065
:10311000DFF8D0A99AF80000401C8AF8000035E0DA
:10312000DBF80000A84209D0DFF8103B40F27152F2
:10313000DFF8B419DFF86804FEF780FDE868CBF823
:103140000000F6B2002E0BD0288B0290E88A019086
:10315000281D00902B006A6A296D280002F0E7F80C
:103160002E69287D2800ED68FFF7BDFBDFF8688A2F
:10317000002088F800003800002803D07FF00C0100
:103180003000B84798F80000002807D00024DFF886
:1031900020BADBF8005001E02C00ED68002D00F0B3
:1031A000B681287D002809D1DFF8903A40F2BE426E
:1031B000DFF8281ADFF8E803FEF740FD287D012834
:1031C00009D1DFF8783A40F2BF42DFF8141ADFF88D
:1031D000D003FEF733FD287D0A2809D1DFF85C3AD9
:1031E0004FF49862DFF8FC19DFF8B403FEF726FD10
:1031F000A87F9AF800108842CED09AF80000A877ED
:1032000000270026287D022805D195F842000628CF
:1032100001DB7F1CCEE095F842000C2801DB7F1C0F
:10322000C8E095F89900002863D0286F002809D0DD
:10323000DFF8083A40F2D442DFF8041ADFF86003FE
:10324000FEF7FCFCE86E002809D1DFF8F03940F207
:10325000D542DFF8281ADFF84803FEF7EFFC95F8AF
:103260009A000C2801DB7F1CA4E0DFF8140A95F813
:103270009910084410F8010C95F898100200D2B289
:10328000914204D295F89810491C85F8981095F849
:103290009810C0B28142C0F08D805FF00108B5F88F
:1032A0006000002807D1280002F01EF9002810D085
:1032B0005FF000080DE0B5F86010280001F0F3F9A8
:1032C000002806D1280001F0FFFB002801D15FF0A3
:1032D0000008B8F1000F6DD0002085F8980095F82F
:1032E0009900072866D295F89900401C85F8990046
:1032F00060E0B5F93000002808D4B5F9300047F691
:10330000FF71884202D0288E401C2886B5F9300013
:10331000B5F9401088424DDB280001F001FE00287D
:1033200005D0286F002845D1E86E002842D0287DBE
:1033300002281AD095F842000C2802D295F84200D3
:1033400000E00C20B5F93C10C910B5F93E208918F1
:10335000DFF87829C0B2105611FA00F047F6FF7175
:10336000884200DB0800A5F8400000202886B5F858
:103370004800B5F86010884202D2B5F8480001E074
:10338000B5F8600080B24008A5F84A00B5F84A00D8
:10339000698E490089B2884203D2688E4000A5F840
:1033A0004A00688EA5F848000020A5F86A002800A9
:1033B00001F001FE287D062809D1A87EC00606D5A9
:1033C000D9F80010286A091A292900D37F1C687AC5
:1033D000000734D5287D042802D0287D07282ED167
:1033E000D5F89410DFF8E80841184FF4FA70B1FBF3
:1033F000F0F1D9F80020286A121A914202D27F1CFB
:10340000761C1CE0D5F8941095F89B20DFF8C408D2
:1034100000FB02114FF4FA70B1FBF0F1D9F8002073
:10342000286A121A91420AD2280002F027F840B204
:10343000002804D195F89B00401C85F89B00686F1C
:1034400000280DD0D9F80010286A091AB5F94000F3
:10345000062210FB02F0814202D3280000F07CFC1F
:10346000287D032806D1D9F80010286A091A2929CD
:1034700000D37F1C287D092806D1D9F80010286ABE
:10348000091AF12900D37F1CFFB2002F17D0D5F8FD
:103490009070280000F0EEFA002C3FF441AEDBF80B
:1034A0000000854208D1DFF8943740F26D52DFF812
:1034B00028183B48FEF7C2FBE868E06041E62C00B4
:1034C000ED68207F401C2077207F617F8842FFF4D9
:1034D00065AE00202077DFF8006700203070D4F858
:1034E0008C00002806D021002069D4F88C20904759
:1034F000010000E00021307800287FF447AE49B297
:1035000000297FF44BAE200001F0DEFA46E60024ED
:10351000264E356811E03068A84208D0DFF81C3725
:1035200040F2B352DFF8B4171D48FEF787FBE86896
:1035300030602800ED68FFF7D6F9002D2DD0287DEA
:103540000A2808D0DFF8F43640F2A152DFF89017CD
:103550001348FEF773FB0020D9F80020296A521A9D
:10356000F12A00D3401CC0B2002813D0280000F07C
:1035700081FA002CCFD03068854208D1DFF8BC3604
:1035800040F2AF52DFF85C170548FEF757FBE868DA
:10359000E060CEE72C00ED68CFE7BDE8F78F0000D4
:1035A000886B010844810108F4600108C00702200B
:1035B000F8B5DFF830552878401C287029E02878C5
:1035C000A077A07EC0070BD5608B50F0020060830F
:1035D000200001F079FA618B4FF6FC7001406183A5
:1035E000A07E000707D5618B4FF6F770014061831D
:1035F0002000FFF78FFAE668A06F00280DD0DFF8F3
:10360000D87500203870200000F014F838780028B1
:1036100003D0DFF8D406046800E03400002C05D0A5
:10362000A07F29788842CAD1E468F7E7F1BD00009D
:10363000CC8D0108F8B50400002C0CD1DFF8FC3566
:1036400040F20962DFF8A416DFF8A406FEF7F6FAE6
:103650007FF00F0045E0A06F467BA56F0020A067BC
:10366000D4F88400002807D000232A002100206914
:10367000D4F88470B84705E000232A002100002018
:1036800000F06DF8010049B200291DD1B00627D520
:10369000208DB0F5066F02D0208D401C2085D4F817
:1036A0008400002808D00023002221002069D4F8DB
:1036B0008440A047010000E000217FF00C000200E0
:1036C00049B291420CD10CE07FF00C010A0040B2EB
:1036D000904201D1080004E0A5677FF0040000E0FB
:1036E0000020F2BD18860108D86B010810B503E070
:1036F000046800F004F820000028F9D110BD10B5CE
:103700000400002C09D06068002802D06068FEF731
:103710001AFD2100032003F0B6FD10BD70B50500B1
:10372000002D09D1DFF8143540F28262DFF8C415AC
:10373000DFF8BC05FEF782FA032003F077FD0400F2
:10374000002C01D1002009E01022260029003000C1
:1037500004F0DEF86068FEF772FD200070BD10B561
:103760000800140000280CD1DFF88C354FF4D36228
:10377000DFF88815DFF87805FEF760FA7FF00F00B4
:1037800008E0002C07D02189FFF728FC2000FEF775
:10379000DAFC002010BD5BB2002BFAD1FFF708FA6B
:1037A000F8E7000050790108D863010838B5010036
:1037B000C9B2802901DB7F20FFE70100C9B20029DF
:1037C00023D0441E00230020DFF81C15096816E0F2
:1037D0004A7D2500EDB2AA420AD34A7D2500EDB20A
:1037E000AA420BD1BE4A15680A6AAD1A9D4205D39A
:1037F000BB4800680B6AC31A08004C7DC9680029E1
:10380000E6D1002801D0FFF7B6FA31BDA05E01086D
:1038100070B504002000C0B208280DD02000C0B24E
:10382000092809D0DFF8D03440F2DD62DFF8D01487
:10383000DFF8BC04FEF702FA00230022DFF8A80438
:1038400000680FE0017D2500EDB2A94209D1A44D29
:103850002E68016A761A9E4203D32968036ACB1A3E
:103860000200C0680028EDD1002A03D0002110001A
:10387000FFF7FAF970BD38B500230020DFF8841493
:1038800009680AE0964C25680A6AAD1A9D4203D37E
:1038900020680B6AC31A0800C9680029F2D1002801
:1038A00001D0FFF768FA31BD5D2E000810B5DFF8D2
:1038B000380400680BE0C468817E090706D5428B96
:1038C0004FF6F7710A404283FFF724F920000028E1
:1038D000F1D110BD4C7301086081010830860108E8
:1038E00070B50500012003F0A1FC0400002C23D1D9
:1038F000FFF7DCFFFFF7BFFF012003F097FC040098
:10390000002C19D10920FFF783FF012003F08EFC62
:103910000400002C10D10820FFF77AFF012003F0EB
:1039200085FC0400002C07D12800C0B2FFF73EFF41
:10393000012003F07BFC0400002C2FD09C210022EE
:103940002600300004F08AF865754FF48660A4F80C
:1039500064004FF406616185618D2185FF21E1726C
:103960004FF4067161860621A4F840100621E18714
:103970005FF0FF3121860121A4F8481058490968F9
:10398000216258490978A177A4F84A00DFF8780342
:10399000C4F88400DFF87403C4F89400200070BDFC
:1039A000006C010880B54020FFF79AFF02BD002897
:1039B00000D00161704738B504000D00002C0DD017
:1039C000207D012808D19D4B40F2DF72DFF84013C3
:1039D000DFF81C03FEF732F9C4F8845031BD38B566
:1039E00004000D00002C0DD0207D012808D1934B40
:1039F00040F2F372DFF81C13DFF8F402FEF71EF951
:103A0000C4F8805031BD38B504000D00002C0CD036
:103A1000207D012807D1894B40F60D02DFF8F8120E
:103A2000B348FEF70BF9C4F8905031BD00000028F0
:103A300003D0027D012A00D18161704770B5040076
:103A40000D001600002C07D17C4B40F63D02B34917
:103A5000A748FEF7F3F80CE0207D012806D1774B4C
:103A600040F63E02AE49A248FEF7E8F8C4F88C5092
:103A7000667770BD10B50400002C07D16F4B40F67F
:103A80005102A8499A48FEF7D9F826E0207D00287F
:103A900023D0207D0A2820D0207D01281DD0A06FB2
:103AA000002804D0A06FFEF74EFB0020A067606FD7
:103AB000002802D0200000F04FF95FF0FF30208690
:103AC000E06EFFF713FE206FFFF710FE0020E066A8
:103AD000E06E20670020A4F8680010BD0000000020
:103AE000B00702203D080220E466010838B5050051
:103AF0000C00002C06D1804B40F683028A497C489A
:103B0000FEF79CF8002D06D17B4B40F684028749D6
:103B10007748FEF793F82868A04203D12868C06868
:103B2000286009E0286800E0C068002804D0C16867
:103B3000A142F9D1E168C1600020E0602000FFF7F8
:103B400099FF207D0A280CD0207D012809D0A07E75
:103B5000C00706D5608B50F002006083200000F0A3
:103B6000B3FF207D01281DD0E06E002806D0624BF7
:103B700040F693026E495E48FEF760F8206F002819
:103B800006D05D4B40F694026A495948FEF756F854
:103B9000606F002806D0584B40F69602664954489C
:103BA000FEF74CF8002020750020E08231BD0000B7
:103BB000BC07022080B5002806D14F4B40F6AF026B
:103BC0005E494B48FEF73AF85D490A685D4800686F
:103BD00082180A60086802BD3B080220606601087E
:103BE0008C6601080864010838B505000C00002A3D
:103BF00006D1414B40F6C50253493D48FEF71EF839
:103C0000002C02D1280080B217E0218D080080B27C
:103C1000002810D0282002000B0092B29BB29A42DA
:103C200001D2081A00E000202900020089B292B2F5
:103C3000914200D30500280080B232BDB858010877
:103C40002861010870B505000C00002D06D12A4B33
:103C50004FF410623D492648FDF7F0FF04E0E668A6
:103C60002000FFF788F83400002C05D02068296870
:103C70008842F4D0E468F7E770BD0000D85E010820
:103C8000B08D010838B504000D00002C1DD020684F
:103C900000281AD0144801682000FFF7D3FF2C48F1
:103CA00001682000FFF7CEFF002D0ED02868002805
:103CB0000BD02848006806E001682268914201D1D3
:103CC00029680160C0680028F6D131BDDC8A01088E
:103CD000B84C0A00F8240100B8660108506C0108CD
:103CE00038640108286C0108BC070220786C0108C0
:103CF000886B01087C810108B85801089881010887
:103D0000CC8A0108C00702205F37000800DD6D0083
:103D1000A06C0108C86C0108F06C01084886010815
:103D200070790108B4810108D081010890790108F7
:103D300060860108EC810108788601080882010884
:103D400090000020B0070220186D01085C61010896
:103D5000B4070220B807022010B50400606F0028E5
:103D600004D0606FFFF7C2FC0020606710BDB1F5A2
:103D7000807F02D34FF0FF30704701700120704701
:103D80000078401E8041C043C00F704780B50028B6
:103D900006D0017A002903D0007A04F072F802E01C
:103DA000100001F051FD02BD2DE9F04705000E00A5
:103DB00091469A46002D08D1DFF84C3BA322DFF84C
:103DC0004C1BDFF84C0BFDF739FF002E08D1DFF854
:103DD000383BA422DFF83C1BDFF8340BFDF72EFF45
:103DE000089FF80702D55FF0040801E05FF00008C3
:103DF000B80701D5002000E00020390701D50021D7
:103E000000E00021FA0601D5002200E0002210EBBC
:103E1000080811EB080812EB0808032003F006FA63
:103E20000400002C04D13000FEF78DF9002048E09A
:103E3000A77200202060666030894146C9B289B20D
:103E4000884208D2DFF8C03AB022DFF8CC1ADFF897
:103E5000C00AFDF7F3FE31894046C0B2091A21813C
:103E600014213000FEF71DF9002804D02000FFF7D0
:103E700046FC002025E060684068E060E88AFEF7C4
:103E8000F4FCE1680880288BFEF7EFFCE1684880CD
:103E90005046FEF7F2FCE16848605FFA88F80420BB
:103EA00098FBF0F0401D5FFA89F959EA003948465D
:103EB00080B2FEF7DAFCE16888810020E168488280
:103EC0002000BDE8F0872DE9F84307000E00914679
:103ED0001C00B046002C08D1DFF82C3AE822DFF8AD
:103EE0003C1ADFF82C0AFDF7A9FE089D002D08D129
:103EF000DFF8143AE922DFF8281ADFF8140AFDF790
:103F00009DFE3000494680B289B2884224D2099889
:103F100080070CD4A87E40061ED40A98C0B20028A0
:103F200005D0E86E002802D1286F002814D048463A
:103F300080B2310089B201F21B21890889008842D0
:103F400001D2C84608E0B0461FFA88F808F21B28DC
:103F50004FF6FC7010EA08084FF42072414689B20F
:103F60003800C0B2FDF7C5FE0500002D01D10020CC
:103F700013E02868002809D0DFF88C3940F20B12D2
:103F8000DFF8281BDFF88809FDF758FE6889801BD9
:103F900020802E81288968812800BDE8F28338B509
:103FA00004000D00002C09D1DFF85C3940F2331217
:103FB000DFF8FC1ADFF85809FDF740FE207D0428E1
:103FC0000BD0207D072808D0207D022805D0207D39
:103FD000032802D07FF00A0042E0280080B20028C7
:103FE00001D100203CE0B4F86400ADB2A84206D292
:103FF000608B50F0800060835FF0FF3030E0B4F8F9
:104000006600092806D3608B50F0800060835FF063
:10401000FF3025E0B4F86600002810D0206F00289B
:104020000CD1E06E002809D1DFF8DC384FF4AB7218
:10403000DFF8801ADFF8D808FDF700FE0FE0206FE8
:10404000002802D1E06E002809D0DFF8BC3840F229
:104050005912DFF8641ADFF8B808FDF7EFFD002009
:1040600032BD2DE9F84F8AB006009A46002006902E
:10407000002500270020099000245FF0000900209F
:104080008DF81C000020ADF80C005FF00008002047
:10409000ADF81400002E0CD1DFF86C384FF4CF725D
:1040A000DFF8181ADFF86808FDF7C8FD7FF00F0089
:1040B0002EE1B6F86200022390FBF3F0738E834288
:1040C00001DA738E04E0B6F86200022390FBF3F38A
:1040D000180080B2002802D0ADF8163002E0708ED1
:1040E000ADF816000891089800280CD1DFF81838B0
:1040F0004FF4D772DFF8C819DFF81408FDF79EFDFA
:104100007FF00F0004E1ADF80E20BDF80E10300076
:10411000FFF745FF010049B2002901D040B2F7E0A6
:10412000B6F866B000208DF811008DF810A0F06E82
:10413000002800F03E81F56E00E02D682868002818
:10414000FBD1A87AC00702D55FF0040A01E05FF056
:10415000000AA87A800701D5002000E00020A97A93
:10416000090701D5002100E00021AA7AD20601D575
:10417000002200E0002210EB0A0A11EB0A0A12EBFF
:104180000A0ABDF81600298911FA8AF1884209DA6B
:10419000DFF874374FF4F372DFF82819DFF870078F
:1041A000FDF74CFDBDF816102889091AB1EB0A0A73
:1041B000B6F86800ADF80C00BDF80C00002836D049
:1041C0005046BDF80C1080B2884209D2DFF838376B
:1041D0004FF4FC72DFF8A81BDFF83407FDF72EFD63
:1041E0002F00BDF80C00BDF80E10884202D2BDF8B9
:1041F0000C0001E0BDF80E00514689B2814201DA9F
:10420000D0460AE0BDF80C00BDF80E10884202D27C
:10421000BDF80C8001E0BDF80E8018EB0909BDF86F
:104220000C00B0EB0800ADF80C00BAEB080ABDF8C2
:104230000C0000280FD04846BDF80E1080B288420E
:1042400009D0DFF8C4364FF40072DFF8641BDFF8E2
:10425000C006FDF7F3FC4846BDF80E1080B2884258
:1042600080F0FA80504680B2002800F0F58028895E
:10427000002800F0F180514689B2BDF80E20484672
:1042800080B2121A914202DAADF812A005E0BDF830
:104290000E00B0EB0900ADF812002F009DF81000E1
:1042A000C0074AD5012002909DF8100001900096A9
:1042B00003AB524692B2BDF812100020FFF703FE86
:1042C0000690002827D1708B50F0800070830698EC
:1042D000002802D00698FDF736FF002C02D02000FF
:1042E000FFF704FAB6F8660000280FD0306F0028F8
:1042F0000CD1F06E002809D1DFF80C364FF44A7269
:10430000DFF8B01ADFF80806FDF798FC5FF0FF3021
:104310000BB0BDE8F08FBDF812200898494689B26D
:1043200001440698D0F804A0504603F0F1FA06982C
:10433000FDF77CFF10EB0B0B36E0696800E00968C5
:1043400008680028FBD1087B10F0C00F18D148681E
:10435000498908440899884212D1484680B2002809
:1043600009D0DFF8A43540F23122DFF8A81BDFF8CE
:10437000A005FDF763FCBDF81200ADF8140013E0D2
:104380000122BDF812100020FDF7B3FC06900028B2
:1043900099D00898494689B2084406994860069819
:1043A000FDF744FF10EB0B0BBDF8120010EB0909F1
:1043B00052E0B6F86800002809D0DFF84C3540F22A
:1043C0004B22DFF8541BDFF84805FDF737FC43E0CC
:1043D0000998002809D1DFF8303540F2AB22DFF828
:1043E0003C1BDFF82C05FDF729FC0998076030E03D
:1043F0000898494689B20844009948604FF42072F1
:104400009DF8111089B23620FDF773FC07000028D3
:1044100000F0908000993800FDF72AFF3800FDF782
:1044200005FF10EB0B0B584680B20A2880F08680FF
:104430009DF81C000090F06D10FA89F300223900FD
:104440003000FFF7B1FC070000287BD0002CBFD163
:104450003C0009971AEB09094846BDF80E1080B2D6
:10446000884270D2BDF80E00B0EB0900BDF81610FE
:104470009DF811A0B1EB0A0A0100524689B292B22E
:10448000914201D28246FFE79DF81000C00738D55F
:10449000002C01D1012000E00020C0B202909DF864
:1044A00010000190009603ABBDF816209DF8110096
:1044B0005AFA80F189B23620FFF705FD070000287F
:1044C0001ED07889514689B2884209D2DFF8383443
:1044D00040F26722DFF8441BDFF83404FDF7AEFB3F
:1044E000524692B20898494689B2014478689DF8CC
:1044F000113018440090009803F00AFA00988DE7F4
:10450000E1E6BDF80C00002809D0DFF8FC3340F2EA
:104510007122DFF80C1BDFF8F803FDF78FFB012297
:10452000514689B23620FDF7E4FB009000287FF465
:104530005FAFC8E60098FDF706FEC4E63800FDF759
:1045400002FEC0E6BFE6404680B200282AD0D5F879
:1045500004901FE0B9F8080018EB0000A9F8080063
:10456000D9F80000002813D1424692B20898009072
:10457000D9F80400B9F80A1000EB010A0099504676
:1045800003F0C6F9B9F80A0018EB0000A9F80A0010
:10459000D9F80090B9F1000FDCD1288918EB000898
:1045A000A5F80880BDF80C00A6F868000698002859
:1045B00015D0002D09D1DFF8503340F2E122DFF8A9
:1045C000F81ADFF84C03FDF739FB06996868FDF728
:1045D0004FFE298906980089411829812AE0BDF8F3
:1045E0001400002826D0002D02D06868002807D1CA
:1045F000C54B40F2E722DFF84C1BC548FDF71EFB18
:10460000696805E00A89BDF8140082180A81096802
:1046100008680028F6D10A89BDF8140082180A81BA
:104620004A89BDF8140082184A812989BDF814000E
:1046300041182981002D01D1F46600E02C60F06D55
:10464000BDF80E1010FA81F0F065B6F86410BDF8F0
:104650000E00091AA6F86410A6F866B0B6F866004F
:1046600000280DD0306F00280AD1F06E002807D145
:10467000A54B40F21332DFF83C17A548FDF7DEFAF0
:10468000002F0ED0F86800280BD09DF8100080078E
:1046900007D40820FEF7E9F8F96889890843F96822
:1046A0008881002034E62DE9F84F06008846002472
:1046B00000200020002E07D1934B40F24B32DFF850
:1046C000881B9348FDF7BAFAF76E002F02D15FF00E
:1046D000FF306FE0404680B200280AD18A4B40F29A
:1046E0005332DFF8681B8A48FDF7A8FA7FF005000F
:1046F00060E04046398980B2884201D3002059E009
:10470000708E414689B2884207D27F4B40F25B32BD
:10471000DFF83C1B7E48FDF791FA3889002807D165
:10472000794B4FF45772DFF82C1B7948FDF786FA66
:1047300097F80A905FEAC97002D55FF0040B01E0B8
:104740005FF0000B5FEA897001D5002000E00020D7
:104750005FEA097101D5002100E000215FEAC9622A
:1047600001D5002200E0002210EB0B0B11EB0B0B2C
:1047700012EB0B0BB7F808A0BAEB080A4FF4207243
:104780005AFA8BF189B23620FDF7B3FA0500002DF5
:1047900012D1002C07D05C4B4FF47672DFF8281B47
:1047A0005B48FDF74BFA002D02D02800FDF7CBFC4B
:1047B0005FF0FF30BDE8F28F786800893B89C31A4B
:1047C00018EB03039BB2524692B268685FFA8BFB08
:1047D00000EB0B017868FDF72EFE514689B2884246
:1047E000D7D1F8688089FEF740F883461BF03F0B6D
:1047F00000245FEA0B7003D51BF0F70B54F008049C
:104800005FEACB7003D51BF0FE0B54F00104F9688E
:104810004868FEF732F85FFA89F9CDF8009010FA8F
:1048200088F32200D2B229003000FFF7BDFA04005D
:10483000002CAED07868FDF7F9FCB6F86610081ABF
:10484000A6F8660078680189B1EB0A0189B2786838
:10485000FDF78BFB3889B0EB0A0AA7F808A05FFACE
:104860008BFB584680B2FEF700F8F9688989084347
:10487000F96888817868FDF7D9FCB6F866104018A9
:10488000A6F866006068FDF7D1FCB6F8661040181F
:10489000A6F86600386820603C602068002802D1D5
:1048A0000020A6F86800002084E738B50400002C3A
:1048B00007D1154B40F2EB32DFF8001B1448FDF72F
:1048C000BDF9E06E00281AD0E56E00E02D6828687A
:1048D0000028FBD1E8688089FDF7C7FF10F0070FBB
:1048E0000DD10120FDF7C1FFE96889890843E96816
:1048F0008881608B50F020006083002003E001215C
:10490000200000F00FF832BD9C560108907A010893
:10491000586E010870730108C0860108947301087D
:10492000B07A01082DE9FC4104000D0000260020AA
:1049300015F0030F09D1DFF8383B40F21242DFF8DF
:10494000341BDFF8940BFDF779F9002C09D1DFF85F
:10495000203B40F21342DFF8201BDFF87C0BFDF711
:104960006DF9A80700D50126F00701D5042700E05E
:104970000027B00701D5002000E00020310701D555
:10498000002100E00021F20601D5002200E0002213
:10499000C719CF19D7194FF420723900C9B289B29B
:1049A0003620FDF7A6F98046002806D1608B50F02E
:1049B000800060835FF0FF3075E0B8F80A00FFB256
:1049C000BFB2B84209D2DFF8A83A40F23A42DFF863
:1049D0000C1BDFF8040BFDF731F9F6B20096E36D1E
:1049E0002A00D2B241462000FFF7DEF90600002877
:1049F00006D1608B50F0800060835FF0FF3052E0A2
:104A0000307B10F0030F09D0DFF8643A40F24242E5
:104A1000DFF8CC1ADFF8C00AFDF710F9308900285A
:104A200009D0DFF84C3A40F24342DFF8B81ADFF819
:104A3000A80AFDF703F9E06E002801D1E66606E05A
:104A4000E16E00E0096808680028FBD10E600020D4
:104A5000A4F8680015F0030F02D0E06D401CE0657B
:104A6000E80703D5608B50F0200060837068FDF785
:104A7000DDFBB4F866104018A4F86600B4F86600D0
:104A800000280FD0206F00280CD1E06E002809D13B
:104A9000DFF8DC3940F26642DFF8381BDFF8380A0D
:104AA000FDF7CCF80020BDE8F68100006C89010814
:104AB000D07A0108D45C010890610108D886010809
:104AC000C4610108F08601082DE9F0470500002DBA
:104AD00009D1DFF89C3940F2E142DFF8FC1ADFF837
:104AE000F809FDF7ABF8287D012809D1DFF88039F6
:104AF00040F2E442DFF8E41ADFF8DC09FDF79EF843
:104B0000DFF8DC0A0068A84201D10020F8E0B5F81F
:104B10006000B5F84810884202D2B5F8608001E024
:104B2000B5F84880EC6E002C07D1A87E800703D52D
:104B3000280000F045FCE3E0DCE02A1D2900280005
:104B4000FFF724F90600002E02D17FF00300D7E022
:104B5000002D02D0286800280BD1002E01D0301D76
:104B600000E00020002802D17FF00300C8E00068C8
:104B70002860E1684868FDF780FE696C401A218969
:104B8000401880451BD2B5F8600080450FD1286FD2
:104B900000280CD195F89900002808D1002085F84C
:104BA0009800012085F89900002085F89A00A87ED9
:104BB000800703D5280000F003FCA1E09AE0002064
:104BC00085F899002F6F002F04D000E03F68386807
:104BD0000028FBD1002C00F08780E1684868FDF7D1
:104BE0004CFE696C401A2189401880457CD3E068EE
:104BF0008089FDF73AFE400709D5DFF8743840F2A6
:104C00003752DFF8E019DFF8D008FDF717F8286F02
:104C1000002817D0A87E10F0440F13D1E86E0028AA
:104C200008D0E86E006800280CD1E86E0089698E13
:104C3000884207D2B5F86400002803D0B5F86600B2
:104C4000092801DB012000E00020002803D1A87E14
:104C500010F0A00F48D0287D022807D01020FDF7C3
:104C600004FEE16889890843E168888132002900EF
:104C7000200000F0A1F8010049B2002942D12068CB
:104C8000E866287D022804D0698B4FF6FC7001404D
:104C90006983E1684868FDF7F0FD8146E068808936
:104CA000FDF7E3FD10F0030F32D00121208919EB4D
:104CB00000000818296D091A002900D52865E06848
:104CC0008089FDF7D2FD10F0030F23D00120218948
:104CD0004018002850D000202060286F00281BD1E9
:104CE0002C672700EC6E75E7E86E002802D10020E3
:104CF000A5F86800698B4FF67F700140698300203A
:104D0000BDE8F087698B51F08001698340B2F7E715
:104D10000021CBE70020DAE7E1684868FDF7ADFD48
:104D20008146F9684868FDF7A8FDB9EB0009B9F1BB
:104D3000000F1ED515F1700901E0D9F80090D9F8DF
:104D4000000000280FD0D9F80000C1684868FDF7BE
:104D500094FD8246E1684868FDF78FFDBAEB000AD2
:104D6000BAF1000FE9D4D9F800002060C9F800407A
:104D7000B8E73C603F68B5E72000FEF7C0FCB1E74C
:104D8000F07A010810B50400002C09D1DFF8E036F4
:104D900040F29A52DFF85018DFF83C07FCF74EFF5C
:104DA0006068807B012801D0012000E0002010BD58
:104DB000107B0108307B0108FEB504000D001600D1
:104DC000002C09D1DFF8A8364FF4B762DFF81C18C1
:104DD000DFF80407FCF732FF002D09D1DFF8903629
:104DE00040F2B952DFF80818DFF8EC06FCF726FFAE
:104DF000002E09D1DFF8783640F2BA52DFF8F41706
:104E0000DFF8D406FCF71AFF2000FFF7BBFF0028ED
:104E100001D000207DE0686AFDF72FFDE168886021
:104E2000688DFDF722FDE168C881686A698D4018C8
:104E3000E862E06810F11407A07AC0070CD52A1DBB
:104E400031004FF40670FEF7CFFE80B250F00170D3
:104E5000FDF713FD38603F1DB5F93000002801D57E
:104E600000202886686B002808D1DFF88C070068CE
:104E70006863E1684868FDF700FDA863E168606861
:104E80004068081A61684989091A62685181616835
:104E90000989081A61680881E06861684860002033
:104EA000E1680882A07AC00701D5042000E0002054
:104EB000A17A890701D5002100E00021A27A12071A
:104EC00001D5002200E00022A37ADB0601D50023F1
:104ED00000E00023D4F80CC0604408441044184497
:104EE0001430874209D0DFF8883540F21C62DFF8C1
:104EF0000C17DFF8E405FCF7A1FE029606200190EE
:104F0000A87A0090EB7A2A1D2900606800F0F1FD74
:104F100040B2FEBD946701089864010880890108C9
:104F200070B50400002C09D1DFF8443540F263620B
:104F3000DFF8CC16DFF8A005FCF780FE206F002814
:104F400002D17FF0050035E0256F00E02D6828686C
:104F5000002807D02800FFF715FF0028F6D07FF0C3
:104F6000050027E02800FFF70DFF002802D07FF0A2
:104F700005001FE0E06E2860206FE06600202067DB
:104F8000608B50F400606083E9684868FDF775FC49
:104F90000600E8688089FDF768FC10F0030F01D077
:104FA000012000E00020298971184018E0640020E9
:104FB0006063002070BD10B50400002C09D1DFF83B
:104FC000B0344FF4D362DFF83C16DFF80C05FCF781
:104FD00035FE94F84200FF2804D094F84200401CAB
:104FE00084F842002000FFF76FFD10BD10B50400EB
:104FF000002C09D1DFF8783440F2AD62DFF80816F2
:10500000DFF8D404FCF71AFE2000FFF789FF002820
:1050100002D12000FFF7CFFF10BD0000285B010880
:105020003C8B0108F8B50400002C09D1DFF84034AE
:1050300040F2C162DFF8D415DFF89C04FCF7FEFDF6
:10504000206F002802D17FF0050033E0256F280093
:10505000FFF798FE002802D07FF005002AE02868BC
:10506000206714F16C0600E03668306800280CD028
:105070003068C1684868FDF700FC0700E9684868C7
:10508000FDF7FBFB3F1A002FEED430682860356037
:105090002868002802D10020A4F8680094F8420093
:1050A000FF2804D094F84200401C84F842000020FD
:1050B00060630020F2BD0000485F010810B50400E5
:1050C000002C09D1DFF8A83340F2F962DFF840156F
:1050D000DFF80404FCF7B2FD206F002830D0A07E7A
:1050E00040072DD42000FFF79DFF002828D1B4F8F9
:1050F0004800B4F86010884202D2B4F8480001E0D9
:10510000B4F86000022190FBF1F0A4F84A00B4F872
:105110004A00618EB0EB410F04D2608E80B2400035
:10512000A4F84A00B4F84A10628E03204243501893
:10513000A4F84800608B50F00400608300202086B3
:1051400010BD0000805F01082DE9F84F82468846B7
:10515000110099464FF4207211EB0801143189B205
:105160002220FCF7C6FD0400002C41D06089414696
:1051700089B21431884208DABD4B40F22472DFF85C
:105180009414DFF85403FCF759FD0D9D0C9E0B9F02
:105190000A98D4F804B080B2FDF767FBABF80000C2
:1051A000380080B2FDF761FBABF80200CBF8049049
:1051B0005046FDF762FBCBF808001FFA88F8042080
:1051C00098FBF0F0401DF6B256EA0036300080B28F
:1051D000FDF74BFBABF80C00280080B2FDF745FB58
:1051E000ABF80E000020ABF810000020ABF8120066
:1051F0002000BDE8F28FF8B584B004000D00160061
:105200001F00002C07D19A4B40F24272DFF80814BD
:10521000B148FCF713FD608D039010200290208BA5
:105220000190E08A00903B00320092B2290089B2DE
:10523000606AFFF789FF002803D0616A628D8918D0
:10524000E16205B0F0BD0000B8730108DC7301082D
:105250004C8B01085C8B010870B50C001600002512
:10526000002C07D1824B40F25672DFF8B0139A48F7
:10527000FCF7E4FC616811F11400F20701D5042287
:1052800000E00022B30701D5002300E0002334072B
:1052900001D5002400E00024F60601D5002600E038
:1052A0000026ADB201EB850111441944214431447B
:1052B0001431884206D06E4B40F27572CF49864851
:1052C000FCF7BCFC70BD0000288D0108FEB5050090
:1052D0000C0016001F00002C06D1654B40F28772AF
:1052E000CF497D48FCF7AAFC3A0031002800FEF7C0
:1052F0004DFD002802D17FF0030512E0002D02D001
:10530000EB7AA97A01E0FF230021029006200190A8
:10531000C9B20091DBB23A003100200000F0E9FB95
:1053200005002000FCF70FFF280040B2FEBD2DE96C
:10533000FF470700894616001C00002C06D14C4B85
:1053400040F2C472B7496448FCF778FC0C9D002D0C
:1053500006D1474B40F2C572B3495F48FCF76EFC7B
:105360005FF0000846F2080A4846FDF786FA1FFA81
:105370008AFACDF80CA014210291BDF838100191E1
:10538000BDF834100091030000224146C9B289B231
:105390003000FFF7D9FE0600002E0CD04346DBB2EA
:1053A000002231003800FFF757FF2B0022003100A8
:1053B0003800FFF78BFFBDE8FF870000B0820108CF
:1053C000F8B5040000260027002C06D1284B40F237
:1053D000EA7296494048FCF731FCF00701D50425F4
:1053E00000E00025B00701D5002000E000203107D3
:1053F00001D5002100E00021F20601D5002200E0E5
:10540000002245194D195519206DFDF736FA030094
:105410000022EDB2290089B22000FFF7ECFE050062
:10542000002D06D1608B50F0030060837FF00100F7
:105430001CE03B00DBB23200D2B229002000FFF7B3
:105440000BFF231D220029002000FFF73FFF010072
:1054500049B2002904D0618B51F00301618304E05B
:10546000628B4FF6FC710A40628340B2F2BD0000CD
:105470009C560108C0520108507B010870B5050018
:105480000026002D06D16A4B40F6240269491248D5
:10549000FCF7D4FB286D401EFDF7EFF90300002256
:1054A0003100C9B289B22800FFF7A5FE0400002C24
:1054B00002D15FF0FF300DE03300DBB200222100AB
:1054C0002800FFF7C9FE2B1D2A0021002800FFF746
:1054D000FDFE40B270BD0000586E0108105D01086D
:1054E00008870108C06701082DE9F84304005FF050
:1054F0000008002C06D14E4B40F64F024E494F4853
:10550000FCF79CFBE66E002E01D100205FE094F8D2
:105510009A00FF2804D094F89A00401C84F89A005E
:10552000F0688089FDF7A1F9C00704D5308900280B
:1055300001D1012700E000273800C0B2002801D0C7
:10554000002200E00122F068436892B24146C9B2ED
:1055500089B22000FFF74FFE0500002D02D15FF059
:10556000FF3034E0D5F80490FFB2002F0BD01120AB
:10557000FDF77BF9B9F80C204CF2FF010A4010430B
:10558000A9F80C000BE0686810F114017068038939
:1055900030891B1A9BB201227068FCF74CFFF1683E
:1055A0004868FDF76AF9401C216D091A002900D5E9
:1055B00020654346DBB2002229002000FFF74CFEA5
:1055C000231D220029002000FFF780FE40B2BDE825
:1055D000F2830000806E010820870108A86E010890
:1055E000D807022038870108D06E0108707B0108B7
:1055F000907B010800740108B0070220948901081B
:105600002474010848740108CC82010850870108FD
:10561000B07B0108C8640108F86E0108206F01081A
:10562000EC670108E882010804830108D07B0108C7
:105630009C560108208301086C740108586E01080B
:1056400080B5FDF776F973480068002803D17248E9
:105650000068002805D000227049FA2000F080F888
:1056600002E000206E49086001BD80B56C49086801
:1056700000280ED167480068002803D166480068FA
:10568000002806D00120086000226449FA2000F0BA
:1056900067F801BD70B504000D0016000A2001F086
:1056A000C5FD002808D1002805D15E4BBE225E4909
:1056B0005E48FCF7C3FA27E0002101608560C66000
:1056C00044605B4A1168002901D110601CE0436806
:1056D000116849685B1AB3F1004F03D31168016088
:1056E000106011E0126800E01268002A0CD0116806
:1056F000002906D04368116849685B1AB3F1004F6E
:10570000F2D311680160106070BD38B50400250047
:105710006868804702F035FE46490B682968CB1857
:10572000191AB1F1004F06D3220043492B6818180B
:10573000FFF7B0FF04E022003F491800FFF7AAFF7F
:1057400031BD10B5012408E03C4800EBC4023A49E1
:1057500050F8340000F004F8641C062CF4D310BD9B
:1057600070B504000D001600B4F1804F06D32D4B28
:1057700040F2291232492D48FCF760FA02F001FE8E
:105780002418320029002000FFF784FF70BD70B597
:1057900002F0F7FD040013E04A68A21AB2F1004FCC
:1057A00013D20A6802608D68CE684868214A10608A
:1057B0000A2001F068FD2800002801D03000A84729
:1057C0001B4801680029E7D1FFE770BD38B5184DC7
:1057D0002868002802D15FF0FF3018E002F0D1FD08
:1057E000040028684068001BB0F1004F01D300207E
:1057F0000DE028684068041BB4F1004F06D3094B44
:105800004FF4DC720F490948FCF718FA200032BD4A
:1058100000000000BC070220C0070220415600081B
:10582000F4070220EC560108685B0108706F01085C
:10583000EC070220F00702200B570008F86401086B
:10584000B85F0108A889010810B4DFF8BC13096823
:1058500008E091F83120920703D40268CB689A429D
:1058600015D00968002914D091F8312012F00502F2
:10587000052AF6D14A68002AF3D003688A681340E3
:105880004C688A681440A342E3D1080019E008007C
:1058900017E0DFF87823116800290FD0116891F81C
:1058A000311011F00501052908D111684968002956
:1058B00004D0007800F0FF007F2801D1002000E034
:1058C000106810BC704780B5010091F83100C00726
:1058D0000FD5486800280CD0DFF8340342694B68C4
:1058E0009A4204D04069FCF747FF002801D001200C
:1058F00000E0002002BD2DE9F04705008A460126A0
:105900006F683878C0B20009C0B2042804D02800FB
:10591000FCF719FC0020EAE0387810F00F005FEA8D
:1059200080085FFA88F87888FCF79FFF0400200061
:10593000298980B2884204D2210089B22800FCF76C
:1059400014FB6889414689B2884207D32889A4B2EA
:10595000A04203D3404680B2142804DA2800FCF7A2
:10596000F2FB0020C3E03869DFF8A492C9F8140004
:10597000F868C9F8100099F8140010F0F000E02859
:105980000BD19AF83100C00705D5DAF804000028D9
:1059900001D054461CE000241AE05046FFF793FF64
:1059A000002801D0544613E0002499F8140000F0B8
:1059B000FF007F280CD09448046800E02468002C85
:1059C00006D05445FAD02000FFF77DFF0028F5D01F
:1059D000002C0BD1787A112808D1404680B2384487
:1059E0004088B0F5884F01D154460026002E15D0CE
:1059F000D9F81000002811D05146D9F81000FCF752
:105A0000BBFE002805D199F8100010F0F000E02846
:105A100004D12800FCF797FB002068E0002C04D19B
:105A20002800FCF790FB002061E0F8884FF63F71FA
:105A3000084208D0280002F06AFF0500002D01D1BD
:105A4000002054E06F68C9F80040C9F804A0C9F804
:105A50000870387810F00F008000C0B2A9F80C0070
:105A6000414689B22800FCF721FB787A01280DD045
:105A7000062806D011280ED15146280003F063FAFB
:105A800022E051462800FAF791FB1DE0514628001C
:105A900003F0CCFD18E02100D9F81400FCF76CFEEF
:105AA00000280ED199F8140010F0F000E02808D07A
:105AB000414609B22800FCF740FB0221280003F010
:105AC0008CFE2800FCF73FFB0020C9F800000020F6
:105AD000C9F804000020C9F808000020A9F80C004B
